:020000040800F2
:10600000403D0020A1610008FF630008ED8000080A
:106010000000000000000000000000000000000080
:1060200000000000000000000000000041A5000882
:10603000000000000000000079990008F9A900089C
:10604000D16100080000000049A00008D1610008EB
:10605000D1610008D1610008A57C0008CD7C000852
:1060600000000000D1610008D1610008D161000882
:10607000FD6F0008D1610008EDAF000800000000CE
:1060800009B00008D1610008D161000879AA0008B0
:10609000D1610008A9AB0008D1AF00080D8100084C
:1060A000D1610008D1610008D1610008C5B60008BF
:1060B000E9B60008D161000800000000BDC000087A
:1060C00000F002F800F041F80CA030C8083824189D
:1060D0002D18A246671EAB4654465D46AC4201D120
:1060E00000F033F87E460F3E0FCCB6460126334211
:1060F00000D0FB1AA246AB4633431847A0F000007D
:10610000C0F000000023002400250026103A01D32F
:1061100078C1FBD8520700D330C100D50B6070475F
:1061200010B5642902D100F0D1F810BD002010BDD7
:106130001FB500F0BDFE0400002000210EF042FE5D
:10614000401C60601FBD10B510BD00F0B9FE1146C7
:10615000FFF7EEFF0BF0DEFA00F0D1FE03B4FFF71D
:10616000F2FF03BC00F018FF70B505460C4616465A
:1061700002E00FCC0FC5103E102EFAD2082E02D32B
:1061800003CC03C5083E042E07D301CC01C5361F3E
:1061900003E021782970641C6D1C761EF9D270BD55
:1061A0000F4880F308880F480168090E0E4A914293
:1061B00005D10E480E4901600E480F4901600F4895
:1061C00080470F480047FEE7FEE7FEE7FEE7FEE7F1
:1061D000FEE700000B480C490C4A0D4B70470000CD
:1061E000403D0020040000001F0000001810024085
:1061F000010000000000014000000000FDA90008AF
:10620000C1600008401D0020403D0020402D0020BE
:10621000402D002010B5044600F0B8FD00680821AC
:10622000005D084010BD10B5044600F0AFFD0068E9
:106230001021005D084010BD0FB41CB5074B06AA25
:106240007B4469460090059800F005FE00206946F1
:1062500000F014FE1CBC08BC04B01847390C000048
:10626000F8B50E460446002020622046E1688847C3
:10627000002829D0252802D06268A16820E0E168C2
:1062800020460027884705001ED028464138192897
:1062900002D80127FF0220353246204627602946D2
:1062A000FFF73EFF002808D0012804D0F61DF608AD
:1062B000F6000836D9E7361DD7E762682846A16898
:1062C0009047206A401CCFE7206AF8BDF7B500254B
:1062D00075291068009914A611D0C046C046002840
:1062E00002DA404211A608E0009909688A0701D540
:1062F0000FA602E0490704D50EA6012501E0C0461D
:10630000C046009F0024243704E000F0BCFD30317B
:106310003955641C0028F8D12B4632462146009896
:1063200000F03CFDFEBD0000000000002D0000005C
:106330002B0000002000000010B5431E5C785B1CA1
:10634000002CFBD105E00C78491C1C705B1C002C58
:1063500003D0521EF7D20021197010BD034610B5AC
:106360000B439B070FD1042A0DD308C810C9121F75
:10637000A342F8D018BA21BA884201D9012010BD31
:106380000020C04310BD002A03D0D30703D0521C05
:1063900007E0002010BD03780C78401C491C1B1B33
:1063A00007D103780C78401C491C1B1B01D1921E9D
:1063B000F1D1184610BD000030B5441C03E001784F
:1063C000401C00290DD08107F9D10B4BDD0104C819
:1063D000D11A91432940FAD0001B0A0603D0C01EEF
:1063E00030BD001B30BD0A0401D0801E30BD090243
:1063F000FCD0401E30BD0000010101017047704714
:10640000414D46323031313130303230303131333C
:1064100030363032303030314E454F5445434820CD
:10642000505654204C54442020202020202020204E
:10643000202020202020202020202020202020205C
:10644000202020202020202020202020202020204C
:10645000202020202020202020202020202020203C
:10646000202020202020202020202020202020202C
:10647000202020202020202020202020202020201C
:10648000202020202020202020202000F7B598B0B8
:106490000020179001200390002600200290019018
:1064A000009018220AA8189900F00EFA002426E09D
:1064B0000AA9085DFFF7B7FE002809D00AA8005D09
:1064C00041380AA908550AA8005D0A30085514E0A9
:1064D0000AA9085DFFF79EFE002809D00AA8005D02
:1064E00061380AA908550AA8005D2430085504E05F
:1064F0000AA8005D30380AA90855601CC4B2182CDF
:10650000D6DB08A8C07F169018220AA910A8FFF7AA
:106510002BFE00240FE010A80778002505E010A945
:10652000681C085C4855681CC5B2162DF7DB10A81E
:106530008775601CC4B216988442ECDB002406E028
:1065400010A8015D029808180290A01CC4B2172C74
:10655000F6DB0298410040180290012406E010A8E2
:10656000015D019808180190A01CC4B2172CF6DB3D
:1065700001990298401800903D21009800F05DFAC2
:1065800000913D210098081A0090169900988842C1
:1065900002D000201BB0F0BD0C220AA8199900F00F
:1065A00093F9002426E00AA9085DFFF73CFE0028C5
:1065B00009D00AA8005D41380AA908550AA8005D5B
:1065C0000A30085514E00AA9085DFFF723FE0028E9
:1065D00009D00AA8005D61380AA908550AA8005D1B
:1065E0002430085504E00AA8005D30380AA908558F
:1065F000601CC4B20C2CD6DB00240FE008A8077A7C
:10660000002505E00AA9681C085C4855681CC5B24D
:106610000C2DF7DB08A8C774601CC4B2022CEDDB9C
:106620000024032509E00AA8415D20460C300AAA8F
:106630001154601CC4B2A81CC5B20D2DF3DB00259B
:1066400009E00AA8415D20460C300AAA1154601CDA
:10665000C4B2A81CC5B20C2DF3DB012421E0012536
:106660001BE0A000801C0AA90F5C00260CE0A00023
:10667000801C801B401E0AA9095CA000801C801B96
:106680000AAA1154701CC6B2032EF0DBA000801CB5
:10669000801B0AA90F54681CC5B2A542E1DD601C2D
:1066A000C4B2052CDBDD17220AA904A8FFF75CFDA4
:1066B000042206A903310AA8033000F005F90422D8
:1066C00004A903310BA8033000F0FEF8042205A949
:1066D00003310CA8033000F0F7F8042208A90331B5
:1066E0000DA8033000F0F0F8042207A903310EA82A
:1066F000033000F0E9F8002408E010A8005D0AA9C2
:10670000095D401A04A90855601CC4B2172CF4DBBB
:10671000172204A90AA8FFF727FD042207A90331BD
:106720000CA8033000F0D0F8042208A903310DA80A
:10673000033000F0C9F8042206A903310EA8033083
:1067400000F0C2F80B2422E00AA8005D0A2809DB49
:106750000AA8005D232805DC0AA8005D37300AA9D5
:10676000085512E00AA8005D242809DB0AA8005D8C
:106770003D2805DC0AA8005D3D300AA9085504E063
:106780000AA8005D30300AA90855601CC4B2172C55
:10679000DADB0C220CA803301A99FFF7DFFD002882
:1067A00009D10120179008A8007C0449087008A8A6
:1067B000407C034908701798ECE600004E02002068
:1067C0000A030020034670B502460B439B070FD116
:1067D0000E4CE60100E008C208C91D1B9D4335426E
:1067E000F9D0D9B21170521C00290DD01B0AF8E75C
:1067F0000B78491C1370521C002B05D00B78491CD8
:106800001370521C002BF3D170BD00000101010177
:106810000346F0B50B439B072DD1244DEF01042A0D
:1068200029D308C810C95E1B9E43121F3E4017D0D3
:10683000D8B2E1B2401A3106014310D198B2A1B2E8
:10684000401A310401430AD118022102000A090A40
:10685000401A3102014302D1180E210E401AF0BD38
:10686000A342DCD018BA21BA884201D90120F0BD78
:106870000020C043F0BD002A01D10020F0BD037804
:106880000C78401C491C002B0DD0A3420BD1521E8A
:1068900009D003780C78401C491C002B03D0A3427C
:1068A00001D1521EEBD1181BF0BD00000101010106
:1068B000421E5378521C002BFBD10B78491C1370DD
:1068C000521C002BF9D17047F8B5042A2CD383074A
:1068D00012D00B78491C0370401C521E83070BD04A
:1068E0000B78491C0370401C521E830704D00B78A0
:1068F000491C0370401C521E8B079B0F05D0C91A00
:10690000DF002023DE1B08C90AE0FFF72DFCF8BDDD
:106910001D4608C9FD401C46B4402C4310C0121F40
:10692000042AF5D2F308C91A521EF0D40B78491C78
:106930000370401C521EEAD40B78491C0370401CA3
:10694000012AE4D409780170F8BDD2B210B513025F
:106950009A1813049A1800F00EF810BD01E004C054
:10696000091F0429FBD28B0701D50280801CC907AF
:1069700000D00270704700290BD0C30702D002700C
:10698000401C491E022904D3830702D50280801CC3
:10699000891EE3E70022EEE70022DFE7F8B50746AD
:1069A0000B4639461943890713D1164CE601042AD0
:1069B0000FD302CB0D1B8D43354202D102C0121FF3
:1069C000F5E7CBB20370401C521E002B13D0090A0E
:1069D000F7E7002A14D01978521E5B1C0170401C86
:1069E000002908D0002A0BD01978521E5B1C0170B8
:1069F000401C0029EDD1002A02D01146FFF7CAFF42
:106A00003846F8BD010101010378C2781946437880
:106A100012061B0219438378C0781B0419431143E3
:106A20000902090A000608437047020A08704A7002
:106A3000020C8A70020ECA707047002203098B4252
:106A40002CD3030A8B4211D300239C464EE003460D
:106A50000B433CD4002243088B4231D303098B42C1
:106A60001CD3030A8B4201D394463FE0C3098B42F7
:106A700001D3CB01C01A524183098B4201D38B0150
:106A8000C01A524143098B4201D34B01C01A5241F3
:106A900003098B4201D30B01C01A5241C3088B4238
:106AA00001D3CB00C01A524183088B4201D38B0023
:106AB000C01A524143088B4201D34B00C01A5241C5
:106AC000411A00D201465241104670475DE0CA0F9C
:106AD00000D04942031000D34042534000229C465C
:106AE00003098B422DD3030A8B4212D3FC22890166
:106AF00012BA030A8B420CD3890192118B4208D33C
:106B0000890192118B4204D389013AD0921100E09D
:106B10008909C3098B4201D3CB01C01A52418309B1
:106B20008B4201D38B01C01A524143098B4201D3DE
:106B30004B01C01A524103098B4201D30B01C01A09
:106B40005241C3088B4201D3CB00C01A5241830883
:106B50008B4201D38B00C01A5241D9D243088B42D9
:106B600001D34B00C01A5241411A00D2014663467C
:106B700052415B10104601D34042002B00D54942E0
:106B8000704763465B1000D3404201B50020C04609
:106B9000C04602BD7047704770470000F0B5FF2542
:106BA0002D04C609C209FF2704462E400137CB0930
:106BB0003E4348402A402B400746002A6BD0002B1A
:106BC00069D0AA4267D0AB4265D0002800DA3246CD
:106BD0000125ED0529432C4309022002090AD21A96
:106BE0004B0C7F24E31A434C000A7C44E35C7D2475
:106BF0002404121914145B00A218884201D3521CF9
:106C000000E0400049420C465C4324115C43DB0138
:106C10006415E318040A5C43C502200D0C46444386
:106C20006419250A5D432303EC0C0D4665430003FC
:106C30000019EB184C42A34201D35B18401CD40549
:106C40002018002B07D05B00C91804D3401C002972
:106C500001D1400840003F2189048A4209D3002A1B
:106C600008DC1106090F04D0032149074018C00FA2
:106C7000C007F0BD01224100120689187F2252068A
:106C80009142F6D205214907C84201D59010F0BDC6
:106C9000FF20C005F0BD002F00DA32461648AA4298
:106CA00007D2AB4205D21902090E17D0F80FC00760
:106CB000F0BDFF2563002D06AB42F9D84900A9427B
:106CC000F6D8AB4201D1A942F2D0A94201D10021AC
:106CD00001E061004908D0050843F0BD1102090E2A
:106CE000FBD0FF200243D005F0BD0A460146104606
:106CF00054E7000073E300000000C07F0102C215EA
:106D000004D00123DB071943002A0ADB9E239A1AC9
:106D100002D40846D0407047FF224100120691423B
:106D200001D900207047C017C04370471F22030CD1
:106D300002D10F2200041CD0030E01D10002083A38
:106D4000030F01D10001121F830F01D18000921E99
:106D5000002801DB4000521ED205511802125118C2
:106D60001922904004D3491C002801D14908490048
:106D700008467047C10FC90700D040420122920760
:106D80001143D3E701218907D0E7000010B500F0D7
:106D90008FF8001D10BD00BF2DE00000FFB50446B8
:106DA0000D4681B0243000902168880604D5102259
:106DB000E0699143216000E00120A84201DD471B0A
:106DC00000E000270498A1697A191018081AA06138
:106DD0002078C00602D42046C046C046002608E0FF
:106DE00003986268A168805D9047206A401C761C09
:106DF000206204988642F3DB2078C0060AD520463C
:106E0000C046C04606E06268A16830209047206A0C
:106E1000401C206238467F1E0028F4DC07E0009802
:106E20006268A168405D9047206A401C2062284645
:106E30006D1E0028F3DC2046C046C04620780006C0
:106E400002D5022005B0F0BD0120FBE701694A1C14
:106E500002610878704700B58FB00291002105915A
:106E60000549019379440391114604906846FFF760
:106E7000F7F90FB000BD0000E5FFFFFF0A681070D2
:106E8000521C0A60704701468008081A020910184F
:106E9000020A1018020C1018C008820012185200C2
:106EA000891A01E0401C0A390A29FBD27047000008
:106EB00000487047001D002000487047E01C00207B
:106EC0007546FFF7F9FFAE46050069465346C00810
:106ED000C000854618B020B5FFF77CF960BC0027DC
:106EE0004908B6460026C0C5C0C5C0C5C0C5C0C596
:106EF000C0C5C0C5C0C5403D49008D46704710B5EE
:106F00000446C046C0462046FFF728F910BD0000E1
:106F1000024670B50A4392072AD11E4DEE0104C8FD
:106F200008C9541B9443344017D0D0B2D9B2401A88
:106F30002106014310D190B299B2401A21040143B5
:106F40000AD110021902000A090A401A210201435B
:106F500002D1100E190E401A70BD9A42DFD010BA3D
:106F600019BA884201D9012070BD0020C04370BD0C
:106F700002780B78401C491C002A09D09A4207D19C
:106F800002780B78401C491C002A01D09A42EFD0AD
:106F9000D01A70BD0101010101491820ABBEFEE706
:106FA0002600020070B58C180578401C6B075B0F3B
:106FB00001D10378401C2A1106D10278401C03E05D
:106FC0000678401C0E70491C5B1EF9D12B0705D4B6
:106FD0000023521E0DD40B70491CFAE70378401CA5
:106FE000CB1A921C03E01D780D70491C5B1C521ECD
:106FF000F9D5A142D8D3002070BD000010B50421FE
:107000005C4800F097F901287ED10421594800F02E
:1070100039F9584800F072F9574908805748006814
:10702000012851D156480088401C554908805548D0
:107030000068514909884018524908605048008842
:10704000642841DB002204214A4800F084F96421CD
:107050004C480068FFF7F1FC4B49088009884B4A0F
:10706000514308464A49FFF7F2FC4A4908807D210E
:10707000C90048480088FFF7EAFC0C46C8212046B2
:10708000FFF7E5FC4449088000203B4908803D4962
:1070900008603B4908800120404908703E4800884C
:1070A000002801DD012000E000203B49088008465F
:1070B00000783B4908703B48008801210843394962
:1070C00008800120384908802C48006802284FD1E8
:1070D00036480088401C35490880354800682649F4
:1070E00009884018324908603048008814283FDB7E
:1070F000002204211F4800F02EF914212C480068BA
:10710000FFF79BFC2B4900E032E0086009681F4A4A
:10711000514308461E49FFF790FC26490860FA21B2
:1071200024480068FFF789FC23490860FA212148B8
:107130000068FFF782FC21480160002020490870A8
:1071400048701E480068002803D11B4800788870EA
:1071500004E019480078401C19498870002006494D
:1071600008801349086011490880012015490870FA
:1071700010BD00000024014072020020B002002077
:107180008C02002078020020B6020020E40C0000EF
:10719000FF0F0000BA02002074020020A4020020A9
:1071A000300200204C0200208003002090020020CA
:1071B00088020020A0020020980200209C020020EB
:1071C000A7020020A602002000B589B01E4800F0EA
:1071D00067F80121480402F0EDFB0121480202F0AA
:1071E00019FC01200790032108A801700021C1703B
:1071F00007A90920C00600F01FFE02200790032106
:1072000008A801700021C17007A90920C00600F07C
:1072100013FE0E4802F0B2FB0020019001216846E7
:107220000172002003900590069001A9064800F025
:107230009DF800F0C4F8044800F042F8012102482B
:1072400000F0AFF809B000BD00240140004000018B
:1072500010B50A460021C1681F24A4060B46A343AB
:1072600019460B4613431946C16010BD10B50B46B5
:107270000021846A1C43846200BF0C4614432146EB
:10728000416110BD01607047002904D0826801236C
:107290001A43826003E0826802231A4382607047C7
:1072A00010B504460548844207D10121401502F07B
:1072B000C1FB0021601502F0BDFB10BD00240140A0
:1072C00030B501460020002200238C680125ED071F
:1072D0002C438C6000BF8C68E30FDB07521C0F242B
:1072E0002403A24201D0002BF5D18C68E40FE407FF
:1072F000002C01D1086C00E0002030BD0146086C74
:1073000080B2704730B502460020002301242406D5
:107310000C40002C05D0946801252D06AC43234673
:1073200000E013681C460C40002C01D0012000E056
:10733000002030BD10B502460020002354680C40E8
:10734000234614680C40002C03D0002B01D00120F0
:1073500000E0002010BD002A03D043680B434360C7
:1073600002E043688B4343607047000010B5002281
:10737000C268084B1A400C7964030B6823438C687D
:107380002343CC6823430C6923434C6923431A43AA
:10739000C26010BD03D2FFFF8168042211438160E7
:1073A0007047002905D0C26801239B031A43C260BD
:1073B00004E0C26801239B039A43C260704708B58A
:1073C0000C2168460170002141700121817002F09A
:1073D00037FA08BD1CB50121880402F0EBFA01213F
:1073E0006846017100218171C17103214171102032
:1073F00000906946014800F01FFD1CBD00040048D4
:10740000F0B5B5B0054631270024687A312802D09E
:10741000322858D158E00C22A9185148FFF7F8F942
:1074200000284AD1002615E04E48805DF021084032
:10743000011130314A480C3001554A48805D00073F
:10744000000F303046490C31621C8854701CC6B2A3
:10745000A01CC4B2062EE7DB00240EE040480C302E
:10746000005D392807DD3E480C30005DC01DC1B20B
:107470003B480C300155601CC4B20C2CEEDB384A82
:107480000C32374928461A30FFF700F8012812D18C
:107490003548007801280CD1182229461A31304885
:1074A0001830FFF7B5F9002801D1302706E0322760
:1074B00004E0322702E0322700E0312731202B4957
:1074C00008700846477046E001203490752229462E
:1074D00008316846FFF7F8F901A9012005F00AFD17
:1074E0003390339830282FD11E2308AA002120483A
:1074F00007F0C0FC0A2310AA00211D481E3007F027
:10750000B9FC282313AA00211948283007F0B2FC3F
:1075100031203290012332AA00211548503007F063
:10752000A9FC0C2301AA002111485B3007F0A2FC42
:1075300033200B49491E087001230A4600211846D2
:1075400007F098FC302700E0332732200749087005
:107550000846477000BF00BF384635B0F0BD000098
:107560000E0F00200C0300204E02002029030020F3
:10757000BD1C0000FEB5002069468880964D1DE1C7
:10758000088907073F0F22D09348B90040380E18EA
:10759000306869468880888800047CD530688F49C7
:1075A0000840306028208E4978434418B834A07AC7
:1075B0000028207870D000F0B7FC400420786CD50B
:1075C00000F0BAFC0090002868D0E1888CE00889BF
:1075D000C00612D4804840380168824A11400160D8
:1075E0007F4C207E00F0D8FC2063A16A0818A062BE
:1075F0007D48002100684268EAE0794C764EB83454
:10760000403E3168684681808088000513D5207827
:1076100000F0B2FCA06102462046A188A83802F022
:1076200055F930686D49084030606F4800688168DE
:107630006B488847C2E06846808800049FD531685F
:10764000664801403160207800F096FCA061002877
:1076500009D023690246A188184602F037F9A169CA
:1076600020694018206160480021006802685C4879
:10767000904728695D4980B24118E0683E280ED9DC
:10768000C202120CC00601D1521E92B29002012217
:10769000D20310430AE04AE015E01FE028E0C203ED
:1076A000120CC00701D0521C92B2900208803068C0
:1076B0004F490840012109034840490048404D49CD
:1076C000084330607AE000F057FC0090002813D0A7
:1076D000A1882069009A02F0F9F80DE000F03CFC66
:1076E0000090002804D021892069009A02F0EEF869
:1076F0002078002100F086FBA16900980818A0619D
:10770000216900980A1822616069002803D0E368A3
:1077100000998B4206D934482178006802683048C5
:10772000904704E083B221782D4800F084F9684640
:107730008088000642D52820474329483C183068F5
:107740002849084030601834A07A002820780DD0ED
:1077500000F0EAFB4006207813D500F0EDFBA061B5
:10776000002819D00246E188206913E000F014FCDB
:10777000A061002814D00246A188206904F012FDFF
:107780000EE000F0E9FBA061002805D02369024665
:107790002189184604F006FD2078012100F032FB13
:1077A000207800F0F9FBA06121690A182261636961
:1077B0002178002B09D00A4800F0B8F968686946BA
:1077C0000881000400D5DBE6FEBD0748006842687A
:1077D00003489047F2E70000405C00408F0F000034
:1077E000E01500200F8F0000E40400200660004038
:1077F0008FBF0000808000008100064808180168E3
:10780000490405D50168044A1140044A1143016046
:1078100070470000005C00408F8F000080C00000B7
:107820008100064808180168490605D50168044A20
:107830001140044A1143016070470000005C0040A1
:107840008F8F0000C080000003498A69CB131A4360
:107850008A61012181707047405C004003498A6958
:10786000CB139A438A61002181707047405C0040CD
:10787000CA09490610B5490E282359430C18002A95
:1078800001D0183400E0B834A07A0028607814D011
:10789000002820781AD0FFF7AFFF2078FFF7C0FF4D
:1078A000207803F0EFFE2078002102F063FF2078BB
:1078B000002102F027FF002010BD0028207802D010
:1078C000FFF7AEFF0EE0FFF797FFF0E7FFF794FF3B
:1078D0002078FFF7A5FF207803F0E4FE2078002150
:1078E00002F010FF2078002102F044FFE3E770B5BA
:1078F000CA0906D04906490E282251430C181834EB
:1079000003E0282251430C18B83460780025002881
:10791000207806D0FFF784FF2078302102F02AFF7C
:1079200006E0FFF769FF03212078090302F0EAFE71
:10793000A570002070BD70B50E064906490E0D46B3
:10794000282461430C180021002E03DA0120607600
:10795000183401E0B8346170E260E37028002070F0
:1079600002D16162E161216221616161A161A17065
:10797000002B06D0012B30D0022B05D0032B06D1D3
:1079800028E00121490200E0002102F00BFFA07A6B
:1079900003252D03002823D0207802F075FE2289CC
:1079A000E188207802F00AFE60780028207831D043
:1079B000FFF722FF2078FFF733FF207803F062FE05
:1079C0002078002102F0D6FE2078002102F09AFEF5
:1079D000002070BD03214902D7E701218902D4E7C5
:1079E0006078A1880028207807D002F0A5FE2078D2
:1079F000FFF716FF207820211AE002F055FEA0893B
:107A000081B2207802F060FE2078FFF7F5FE207842
:107A10002946DBE7FFF7F0FE2078FFF701FF20782B
:107A200003F040FE2078294602F06CFE2078002109
:107A300002F0A0FECCE738B54906490E2824614380
:107A400000250C18C83400952CC41C3CE16818466D
:107A50008B4203D9401A0091606101E00093656197
:107A6000A07A002800980BD082B26178207802F0CA
:107A7000BDFD03212078090302F044FE002038BD3B
:107A800081B2207802F020FEF3E70000F0B50B4C45
:107A90000B4E0C4F00220171D3B2980005192868D3
:107AA0003040184338432860521C042AF4D3802005
:107AB000014302484030C160F0BD0000005C00405E
:107AC0008F8F00008080000070B5CA0906D049067B
:107AD000490E282251430A18183203E02822514344
:107AE0000A18B8321078012109030123002807D0B1
:107AF00054789370002C0FD0102102F03BFE0DE063
:107B0000074C2068074D284048401021484006494E
:107B100008432060937001E002F0F4FD002070BD86
:107B2000005C0040BFBF00008080000038B54906FF
:107B3000490E282400254C4324180095217628342A
:107B40002CC41C3CE16818468B4203D9401A0091B2
:107B5000606101E000936561A07A002800980BD075
:107B600082B26178207802F041FD207800F0DCF9E3
:107B700040060CD521890BE082B2A188206904F06F
:107B800011FB009881B2207802F0E6FD09E0E1885F
:107B9000009882B2206904F005FB6178207800F03B
:107BA00031F92078302102F0E5FD002038BD0000D9
:107BB00010B50122827000210171C26081601046FF
:107BC00002F0F6FC002002F0F3FC002002F0F8FDC9
:107BD000002002F0E5FCBF2002490002086002F02C
:107BE000E7FC10BD5004002030B50C064906490ED4
:107BF000282569430818002C01DA183000E0B83055
:107C000099B2002A06D001228272C180190C01812A
:107C1000002030BD002282728180F9E704490122F0
:107C20000A6000234B6003230B60827070470000E2
:107C3000405C00400EB501204003009000216846E2
:107C40000171082141710021817100F097F807212D
:107C50006846017200214172817202A801F0F0FDB4
:107C60000EBD08B51F216846017001214170002139
:107C7000817001F0E5FD08BD1CB50121880401F00B
:107C800099FE0121684601710021C17103214171F2
:107C9000202000906946024800F0CEF81CBD00008C
:107CA0000004004810B5042000F05AF8002808D05D
:107CB000012004490870002003490870042000F0E6
:107CC00049F810BDE2000020E300002010B50120BB
:107CD000400300F045F8002802D001200349087055
:107CE0000120400300F036F810BD0000CC03002056
:107CF00000B585B00121880401F05CFE0121084631
:107D000001F088FE0021684601720121C172042041
:107D1000019001A90E4800F08FF80221012002F025
:107D200011FC042003900021684601740C21417469
:107D30000121817403A800F021F806216846017032
:107D4000022141700121817001F07AFD05B000BD72
:107D500000040048014948617047000000040140E8
:107D600001460020044A52690A40002A01D001203D
:107D700000E000207047000000040140002120497D
:107D80008279002A35D00A46126803689A430B4666
:107D90001A600A46526803689A430B465A60027991
:107DA00051180A6803681A430A60154A9268036802
:107DB0009A43134B9A601A46D26803689A43104B51
:107DC000DA604279102A0CD11A46926803681A4385
:107DD0000B4B9A601A46D26803681A43084BDA6064
:107DE0000DE00749427951180A6803681A430A608E
:107DF00005E0027951180A6803689A430A607047DF
:107E000000040140084B8000084AC018002907D030
:107E1000012904D101681140054A114301607047EE
:107E200001681140034AF8E7005C00408F8F0000B2
:107E300080C00000C0800000F0B50A460021002389
:107E4000002400BF3DE001258D402B4615681D40F4
:107E50002C469C4234D11579012D02D01579022D82
:107E600016D185684F000326BE40B543856055791D
:107E70004E00B540866835438560858801268E4072
:107E8000B5438580858896798E40B6B23543858026
:107E900005684F000326BE40B543056015794E00C6
:107EA000B540066835430560C5684F000326BE40EF
:107EB000B543C560D5794E00B540C6683543C56049
:107EC000491C1029BFD3F0BDF0B5002300244D0795
:107ED000EE0E1546B5402B46CD10AE0005462035BA
:107EE000AD594E07F70E0F26BE40B543CE10B60073
:107EF00007462037BD51CD10AE003D46AD591D435C
:107F00002C46CD10AD003E467451F0BD0246002017
:107F1000138A0B40002B01D0012000E000207047A5
:107F200001857047816170470249800040180068F0
:107F300080B27047005C004005490969C00089B201
:107F400008180449401840888005800D70470000DB
:107F5000405C00400060004005490969C00089B2EA
:107F6000081804494018C0888005800D704700003B
:107F7000405C00400060004005490969C00089B2CA
:107F8000081804494018C0888005800D704700001B
:107F9000405C00400060004005490969C00089B2AA
:107FA00008180449401840888005800D704700007B
:107FB000405C00400060004010B50848046BC16A96
:107FC000406B081809D00822054900F0B1FB0449AC
:107FD00004221031204600F0ABFB10BD80F7FF1FDC
:107FE00006050020F1B53E4C0025E561207801280A
:107FF0000BD0012120698902884201D128462561E0
:10800000E2680646904201D12570F8BD4027354808
:10801000964211D9891B61612B46A16101E0491C7F
:108020005B1C9A4201D94029F9D3E361A16140293F
:1080300031D96761A7612EE0911B6161402900D9A8
:1080400067616269A261402A25D94027B1B2002D3B
:1080500013D041182448FEF737FC23486169E269D0
:1080600040182049FEF730FC6069402802D9206999
:10807000403000E0E069206106E0411840221A48E3
:10808000FEF722FC40362661606940386061A069D5
:108090004038A0611DE0A269E369B1B297B2002B3C
:1080A0000DD0411810486269FEF70EFC0E48616958
:1080B000E26940180B49FEF707FCE06906E0411849
:1080C0000948FEF701FCA169206940186561A561B6
:1080D00020613B46044A81210098FFF727FDF8BD47
:1080E0005404002088170020881B002000BFBFF325
:1080F0004F8F04480449C860BFF34F8F00BF00BFD3
:10810000FEE700000400FA0500ED00E038B5182194
:108110003F4800F009F93F4908400446022C04D0CA
:10812000042C50D0402C6CD163E03B4800780128EF
:1081300004D002282FD0032843D141E037480068FB
:10814000374A127880182038C17F314800F0FBF898
:1081500033480078401EC0B231490870002819D158
:10816000022008702C4908702E480078012811D18F
:108170008102274800F0CAF80920800200902A48AE
:108180000078012210430146002328480278204845
:1081900000F0DCF815E02348007800280FD12448CF
:1081A0000068017822480068401C214B186018487C
:1081B00000F0C9F81D480078401E1C49087000E016
:1081C00000BF00BF22E01448007802280FD11548F4
:1081D000007801280AD10E4800F0B1F81449096866
:1081E000087013480068401C1149086000BF00BFB8
:1081F0000CE00320084908700121054800F02AF826
:1082000004E02146024800F017F800BF00BF38BD67
:1082100000540040FE0F00003C03002040030020FB
:10822000490300203D0300203E03002048030020B6
:1082300044030020C1617047C1617047002904D028
:10824000026801231A43026003E0026852085200E8
:1082500002607047002905D0426801239B031A433E
:10826000426004E0426801239B039A4342607047E6
:1082700010B502460023002093691C460C4023469B
:10828000002B01D0012000E0002010BD002A03D007
:1082900003680B43036002E003688B43036070478D
:1082A00010B50A46002103685B085B0003600168A3
:1082B000144B194094682402536823431943016006
:1082C0000F2424061368A343036103680124234396
:1082D000036000218160C1601469936923431946DA
:1082E000816083680124E40323438360D1680368C9
:1082F0000B4303604168044B1940536919434160C3
:1083000010BD0000FFE0CF00FF7FFF07002905D16F
:10831000426801239B029A43426004E042680123C1
:108320009B021A434260704708B502460020009045
:1083300000920098401800900098006808BD01461F
:10834000486AC0B27047816270470000F0B50C46C1
:1083500000214168074D2940A505AD0D1604FF27F2
:108360003F043E4035431D43059E3543294341604C
:10837000F0BD0000009800FCF0B593B0002608F0B6
:108380006BFE01F0FBFC08F0B9FDFFF7B1FC08F053
:1083900065FDFFF771FC7D22D2000121D1480BF071
:1083A000B7FC0121CF4803F081F80A220121CE4811
:1083B0000BF0AEFC0121CC4803F078F87D22D2000E
:1083C0000121CA480BF0A4FC0121C84803F06EF853
:1083D00004F0E4F8E1214902C5480CF07FF8FEF70B
:1083E000F3FE02F023F80220C24908600BF0FEF809
:1083F000C149002001F0FAFDC049002001F0A0FDB4
:10840000BD4800783C214843BB4949784018BC49E5
:10841000088002F011F808F0C3FD012304AA1946F0
:10842000A52006F027FD6846007C592833D04E2150
:108430001291012312AA0021184606F01BFD00210B
:108440006846017500240BE0214639225143084655
:108450006430012305AA002106F00CFD601CC4B2A3
:10846000032CF1DB04F0A0FD0CF0B8FB0AF01EFABF
:1084700004F072FD3120A349087101230A1D002177
:10848000A14806F0F7FC59200490012304AA00211A
:10849000A52006F0EFFC00210491012304AA19464F
:1084A000AC2006F0E7FC6846007C59280FD000217C
:1084B0001291012312AA94487B3006F0DBFC59216B
:1084C0000491012304AA0021AC2006F0D3FC08F09B
:1084D00067FD03208D49087080218D48FFF720FD3E
:1084E00000BF8A480078002803D001F083F90128F2
:1084F000F7D001F07FF9002801D113B0F0BD802141
:108500008348FFF70FFD05208049087000BF7F48B2
:108510000078002803D001F06DF90128F7D001F0B0
:1085200069F9002800D1E8E7042078490870402163
:108530007748FFF7F5FC00BF74480078002803D0A7
:1085400001F058F90128F7D001F054F9002800D1C2
:10855000D3E740216E48FFF7E5FC03206B49087024
:1085600000BF6A480078002803D001F043F90128D1
:10857000F7D001F03FF9002800D1BEE70123614A9E
:10858000121D1946604806F075FC5E4800793128D6
:108590000CD1604801685B48A330FEF713F95D48D1
:1085A00041685848C630FEF70DF939E000200390C5
:1085B0000290342105A8FEF7EFF91E2305AA012138
:1085C0003B20C00106F056FC012301AA19464E4883
:1085D000793006F04FFC6846027905A949485C30BD
:1085E000FEF7DCF900200390029000210191342174
:1085F00005A8FEF7D1F91E2305AA012142485B30E8
:1086000006F038FC012301AA19463F487A3006F0EB
:1086100031FC6846027905A93A487F30FEF7BEF979
:108620000121002008F032FD364808F0DDFD09F098
:108630008BFF09F061FB00240DE01A216143364AEB
:10864000881807F01BFA1A20604333494018807AD3
:108650008619601CC4B231480078A042EDDC2F4876
:1086600001783046FEF7E9F92D4908702B4840782B
:10867000002806DD2B4807F001FA2A48807A2849AD
:10868000487028481230FEF7BFF980782649887173
:1086900000250DE01A2169431F4A89180846123047
:1086A000FEF7B2F981782048C01D4155681CC5B25B
:1086B000022DEFDB04F070FA04F028F91648FEF7FB
:1086C000A3F90778384609F0D7FB0120174908704D
:1086D00000200490012304AA0021952006F0CAFB83
:1086E00000BF0AE7000400400044014000200040B1
:1086F00000440040B0020020540300204C0300203E
:1087000048020020F6140020431D0000AB030020A7
:10871000000400483C0400206A100020F4020020FD
:10872000B81000209E100020030F0020CB03002073
:1087300070B500231D460EE0040F0A2C02D25E0025
:10874000303401E05E0037348C555C006418000161
:108750005B1C6570DBB29342EED370BDF3B5AFB076
:10876000044630212D91042601200E9000200C900B
:10877000002501210A916079217900020843FD4A10
:10878000811A90427BD037DCFB4A811A904277D025
:108790001DDCFA4A811A904273D00DDCF849401A68
:1087A00070D001286FD003286ED0F64940180028F9
:1087B00001D000F052FFDDE2F3480818002870D025
:1087C00001286FD010286ED01128F2D1F8E3A82923
:1087D00040D008DC3E2967D03F2975D0A02979D048
:1087E000A429E6D1E8E0AA2970D0AB296FD0AC2942
:1087F0006ED0AD29DDD104E1FF222032881A9142EA
:1088000067D014DC052974D008DC012972D0022954
:1088100071D0032970D00429CBD1D2E30E2944D0E2
:1088200038296AD0392969D03A29C2D12DE00F28D8
:1088300070D008DC01286ED00A286DD00B286CD0CF
:108840000E28B6D113E1102868D0122867D013285B
:10885000AFD180E23098052810DD607921790002DF
:1088600008430F903098C1B2204603F0B3FE2D901C
:108870002DAA00210F9804F00FFC022699E7F9E3D6
:108880006CE34DE329E1C1E13DE260792179000229
:1088900008430F90BD4A00210F9804F0FDFB02260B
:1088A00087E766E34FE3F0E34BE02046FEF7A8FDE1
:1088B0002D90617922790902114308462DAA0021E1
:1088C00004F0EAFB022674E74DE003E017E027E03E
:1088D00054E0D7E0204605F0DFFF2D906179227942
:1088E0000902114308462DAA002104F0D5FB0126F8
:1088F0005FE7FBE3FBE3FBE3FBE3FBE3FBE3617924
:1089000022790902114308460022114604F0C4FBF3
:1089100001264EE7F8E1D5E0EEE397E000E20BE256
:108920003098C1B2204609F0C1FB2D9061792279BF
:108930000902114308462DAA002104F0ADFB0226CE
:1089400037E73098811F20460BF08CFEC0B22D9087
:10895000617922790902114308462DAA002104F009
:108960009BFB022625E7617922790902114308461B
:108970000022114604F090FB02261AE70C2328AAD5
:108980000121834806F076FA0C2228A920460930F6
:10899000FDF73EFF002802D130202D9001E031206C
:1089A0002D90617922790902114308462DAA0021F0
:1089B00004F072FB0226FCE60C2328AA012174486D
:1089C00006F058FA0C2228A920460930FDF720FFAE
:1089D000002809D10C232246173200216C4806F0EA
:1089E00049FA30202D9001E031202D9061792279D3
:1089F0000902114308462DAA002104F04DFB02266E
:108A0000D7E6182328AA0121082006F033FA1822F5
:108A100028A920460930FDF7FBFE002809D10C23C8
:108A20002246233200215A4806F024FA30202D90A5
:108A300001E031202D906179227909021143084625
:108A40002DAA002104F028FB0226B2E63098801FF0
:108A5000C1B2204609F0BEFE6179227909021143B4
:108A600008460022114604F017FB0126A1E66179B1
:108A700022790902114308460022114604F00CFB3A
:108A8000022696E62146083128A806F027FC07466C
:108A9000394628A803F072FDC1B22E913098801F8C
:108AA00081B220460AF03CFA2046309905F0F4FCE9
:108AB00001211091012310AA0021AB2006F0DAF960
:108AC000012676E6617922790902114308460022DF
:108AD000114604F0E1FA02266BE601202D490870E8
:108AE0002D480068401C2C4908602146083128A800
:108AF00006F0F4FB0746394628A803F03FFDC1B253
:108B00002E9128A8007E01287FDB28A8007E1A2845
:108B10007BDA224800788006C00F002866D0204803
:108B2000FDF772FF0078002869D1012128A8007E96
:108B300004F006F9C0B21190002841D10121084685
:108B400003F038FC042217491748FDF7BDFE042244
:108B500016491748FDF7B8FE012016490870164857
:108B60000068022108431449086004201349087072
:108B700045E0000016200000681F0000611B000097
:108B8000D007000074ECFFFF1EFCFFFFB4050020BF
:108B9000181D0000260200201C0200203C020020BC
:108BA000BA10002054030020520200204C03002081
:108BB000560200204F020020440200203202002012
:108BC0001198C11D01208840FE4909680843FD49EC
:108BD00008601198C11D01208840FB4909680843BD
:108BE000F949086008F028FFE3E50EE0F648006860
:108BF00040210843F449086008F01EFFD9E500222F
:108C0000F249F34804F048FA0126D2E50120F1497F
:108C10000870F1480068401CEF490860214608319F
:108C200028A806F05BFB0746394628A803F0A6FCF7
:108C3000C1B22E9128A8007E012863DB28A8007EFF
:108C40001A285FDAE04800788006C00F00284AD072
:108C5000E248FDF7D9FE007801284DD1002128A86F
:108C6000007E04F06DF8C0B21190002826D10021DA
:108C7000012003F09FFB0422D949DA48FDF724FEC6
:108C80000422D949D948FDF71FFE0120D8490870B0
:108C9000D84800788006800F002805DD0120D649DD
:108CA00008700020D5490870D548006802210843A3
:108CB000D34908600420D34908701DE01198C11DF4
:108CC00001208840BF4909680843BE4908601198DF
:108CD000C11D01208840BC4909680843BA490860A1
:108CE00008F0AAFE65E5B848006840210843B64987
:108CF000086008F0A1FE5CE50022B449B44804F025
:108D0000CBF9012655E554E53098801FC1B22046C5
:108D100003F046FD2046309905F0BEFB012648E5EC
:108D2000617922790902114308462246083200215E
:108D300004F0B2F902263CE50020A64908706179EA
:108D4000227909021143084622460832002104F024
:108D5000A3F901262DE500209E490870617922794A
:108D600009021143084622460832002104F094F912
:108D700001261EE5204609F089FE269000287DD0B8
:108D80002698132804D0142803D0152835D101E0E3
:108D900000BF00BF9C489D4908601F229C48016895
:108DA0009A480068FDF7FAFD984800681F30974917
:108DB000086008460168269805F020FD074693489C
:108DC0000168C819914908602220096808708F4815
:108DD0000068401C8D4908607D20096808708B4838
:108DE0000068401C894908600020096808708748AD
:108DF0000068401C854908608BE008F01BF9617928
:108E0000227909021143084604220BA905F026FD28
:108E100004220BA97D480068FDF7C0FD7B4800686F
:108E20000D307A4908607B2009680870774800682F
:108E3000401C764908604AE00E994A1CD2B20846A6
:108E40000E9203F04BFB012D2AD122206F490968B5
:108E500008706E480068401C6C49086026983030E5
:108E60000968087069480068401C68490860222049
:108E70000968087065480068401C00E04AE06349E2
:108E80000860204608300C9A811817A806F026FAC8
:108E900016901698801C0C990818C0B20C900BE024
:108EA000214608310C9A881804F0DAF80D900C99D4
:108EB0000D980818C0B20C902C205449096808700D
:108EC00052480068401C51490860681CC5B230997E
:108ED0000C988842B0D14D480068401E4B4908604C
:108EE0007D200968087049480068401C47490860AF
:108EF0007D200968087045480068401C43490860A7
:108F000000200968087041480068401C3F4908601B
:108F100000BF03E02046309905F0BEFA01269CE32D
:108F20002146083128A806F0D9F90746394628A86D
:108F300003F024FBC0B22E902EAA0021354804F085
:108F4000ABF8022689E361792279090211430846C8
:108F50000022114604F0A0F802267EE3617922790E
:108F60000902114308460022114604F095F8022632
:108F700073E301202D9020460C30049000202790B0
:108F8000099014E0049800782E2809D005A90998C2
:108F900009180498007808700998401CC0B209901C
:108FA0000498401C04902798401CC0B22790279832
:108FB0000828E7DB0622184907A8FDF785FC2DE005
:108FC0004AE323E1380200203C0200206A1000201E
:108FD000D30700002602002020020020BA10002043
:108FE00054030020520200204C03002056020020AF
:108FF0004F020020E50E0020AC030020AD0300204E
:109000004402002032020020CC050020140200207F
:10901000D8020020611B000006640008062205A992
:1090200007A8FDF79BF986B2002E66D030212D915E
:1090300001210A9101230AAA0021952005F01AFFB7
:10904000617922790902114308462DAA002104F012
:1090500023F8FE48FDF7B0F980B20290FB49FC48C6
:10906000029A0BF0E2FAF94802990BF06BFB002030
:10907000039003E055E00398401C0390F5490398E2
:109080008842F8D30020039003E079E20398401C63
:109090000390F04903988842F8D30020039002E03F
:1090A0000398401C0390EB4903988842F8D30020B2
:1090B000039002E00398401C0390E649039888421D
:1090C000F8D30020039002E00398401C0390E1498C
:1090D00003988842F8D300BFBFF34F8FDE48DF49C3
:1090E000C860BFF34F8F00BF00BFFEE724E152E02E
:1090F0005CE080E03AE12EE129E131212D9100216F
:109100000A9101230AAA952005F0B4FE617922791B
:109110000902114308462DAA002103F0BDFF0226D3
:109120009BE22146083119A806F0D8F80746CC4A38
:1091300011460C3920460930FDF7A8F901281DD148
:10914000C8480078012816D1182319AA0021082040
:1091500005F090FE1823C24A0C320121082005F0C8
:1091600089FE0123C04A0021AA2005F083FEBF48E2
:109170000078BD49087030202D9001E031202D90FD
:10918000617922790902114308462DAA002103F0D2
:1091900083FF022661E261792279090211430846C0
:1091A0002DAA002103F078FF022656E2214608315D
:1091B00019A806F093F807460C2F0FD10C2319AA13
:1091C0000021732005F056FE0C23A54A0C3A01211C
:1091D000732005F04FFE30202D9001E031202D90BE
:1091E000617922790902114308462DAA002103F072
:1091F00053FF022631E261792279090211430846C0
:109200002DAA002103F048FF022626E2214608315C
:1092100019A806F063F807460C2F7DD100251AE047
:1092200019A8405D39280FDD19A8405D612805DBCC
:1092300019A8405D573819A948550AE019A8405D9A
:10924000373819A9485504E019A8405D303819A9E4
:109250004855681CC5B20C2DE2DB00201290002599
:109260001AE019A91298085C28A9485528A8405D59
:109270000007000E485528A8415D19AA1298401C05
:10928000105C0007000F014328A84155681CC5B2B7
:109290001298801CC0B2129012980C28E1DB0623B1
:1092A00028AA0021022005F0E5FD062328AA0121B5
:1092B000022005F0DFFD00202790002517E028A9F7
:1092C0002798085CF021084001113031644841556D
:1092D00028A92798085C0107090F303160486A1CEB
:1092E00081542798401CC0B22790A81CC5B227986B
:1092F0000628E4DB00250BE05948405D392805DDF0
:109300005748405DC01DC1B255484155681CC5B2A3
:109310000C2DF1DB302000E001E02D9001E0312048
:109320002D90617922790902114308462DAA002166
:1093300003F0B2FE022690E161792279090211431D
:1093400008462DAA002103F0A7FE022685E120464B
:1093500006F03EFE81E16179227909021143084657
:109360002DAA002103F098FE022676E130202D90F0
:109370002146083119A805F0B1FF07460C2F17D177
:109380000C2319AA0021732005F074FD0C23344A24
:109390000C3A0121732005F06DFD3A4619A93048B9
:1093A0000C38FDF735FA002804D031202D9001E06B
:1093B00031202D902146163119A805F08FFF074660
:1093C0000C2F7DD100251AE019A8405D39280FDD4A
:1093D00019A8405D612805DB19A8405D573819A917
:1093E00048550AE019A8405D373819A9485504E0E6
:1093F00019A8405D303819A94855681CC5B20C2D14
:10940000E2DB0020129000251AE019A91298085CEE
:1094100028A9485528A8405D0007000E485528A8EF
:10942000415D19AA1298401C105C0007000F01430F
:1094300028A84155681CC5B21298801CC0B2129071
:1094400012980C28E1DB062328AA11E0CC050020A5
:109450000044004020A107000400FA0500ED00E0F0
:109460001A0F00204E0200200B0300200A030020E8
:109470000021022005F0FEFC062313AA0121022090
:1094800005F0F8FC062228A913A8FDF7C1F9002869
:1094900001D031202D9000202790002519E028A927
:1094A0002798085CF0210840001130306D4948557C
:1094B00028A92798085C0007000F3030694900E0B0
:1094C0001BE06A1C88542798401CC0B22790A81C37
:1094D000C5B227980628E2DB00250BE06148405D15
:1094E000392805DD5F48405DC01DC1B25D4841556A
:1094F000681CC5B20C2DF1DB01E031202D90214616
:10950000243119A805F0EAFE0746564A11460C39DF
:1095100019A8FCF7BBFF012825D153480078012882
:1095200023D1182319AA0021082005F0A3FC182331
:109530004C4A0C320121082005F09CFC3A4619A93E
:1095400048480C30FDF764F9002801D031202D90F7
:109550000123464A0021AA2005F08CFC44480078EB
:109560004249087001E031202D9061792279090289
:10957000114308462DAA002103F08EFD02266CE05F
:1095800001203C4908704B22214609313A48FDF739
:1095900005FA30212D910123374A0021374805F083
:1095A00069FC0123344A1946344805F063FC1E2344
:1095B000314AD21C00213B20C00105F05BFC1E2378
:1095C0002D4AD21C01213B20C00105F053FC1E2373
:1095D000294A2332002129485B3005F04BFC1E2329
:1095E000254A2332012125485B3005F043FC022146
:1095F0002148433002F0C2FFC1B20191012301AA08
:1096000000211E48793005F035FC012301AA1946D6
:109610001A48793005F02EFC02211748473002F035
:10962000ADFFC1B20191012301AA002113487A3094
:1096300005F020FC012301AA194610487A3005F0F4
:1096400019FC617922790902114308462DAA0021EB
:1096500003F022FD022600E000BF00BF304631B01B
:10966000F0BD00001A0F00204E0200200B03002066
:109670000A03002027020020740A0020431D000076
:10968000F8B5044600200090002523482018FDF777
:10969000BBF90646012080022018FDF7B5F9864285
:1096A00037D06946204605F0EBFC012804D002289B
:1096B00009D0032820D113E0684601881748FFF736
:1096C0004DF8054624E0012080022018FDF79CF9A2
:1096D0000646114821183046FDF7A7F9042517E082
:1096E000042528022018FDF78FF906460A4821189C
:1096F0003046FDF79AF90BE0042528022018FDF703
:1097000083F90646044821183046FDF78EF900BF5C
:1097100000BF2846F8BD000004040000870B0020AD
:109720001CB50121480400F045F90121684601718A
:1097300000218171C171032141711020009069469F
:109740000920C006FEF778FB1CBD1CB501214804AA
:1097500000F030F901216846017100218171C17169
:10976000032141712020009069460920C006FEF7C0
:1097700063FB1CBD1CB50121480400F01BF901214D
:109780006846017100218171C1710321417140203E
:10979000009069460920C006FEF74EFB1CBD1CB5B3
:1097A0000121480400F006F90121684601710021F9
:1097B0008171C171032141718020009069460920A7
:1097C000C006FEF739FB1CBD1CB50121880400F062
:1097D000F1F801216846017100218171C1710321F5
:1097E00041710120009069460148FEF725FB1CBD30
:1097F000000400481CB50121C80400F0DBF800217A
:109800006846017181710121C171032141710021FB
:1098100041710120400300906846C17169460648C5
:10982000FEF70AFB012149030348FEF76FFB0349DA
:109830000870084600781CBD000800485E02002041
:1098400000218278002A27D0184A03231B02D2184D
:1098500003789B109B00D15802789207D30EFF2209
:109860009A400B469343194642789207120E0378AA
:109870009B07DB0E9A4011430C4A03231B02D218AC
:1098800003789B109B00D1500278D306DB0E012297
:109890009A40064B1A6007E00278D306DB0E0122DD
:1098A0009A40024B80331A607047000000E100E0EC
:1098B000BFF34F8F03480449C860BFF34F8F00BF09
:1098C000FEE700000400FA0500ED00E0064B521C24
:1098D0005208C918002A05D00B880380801C891CF7
:1098E000521EF9D17047000000600040002807D0E8
:1098F00007490968FF2201321143054A116006E059
:1099000003490968FF2201329143014A11607047FF
:109910000070004010B502460020154B1868800802
:109920008000034613431846114B1860114B1B6906
:10993000042423430F4C2361012907D130BF234660
:109940001B690424A3430B4C23610FE0022907D1B8
:1099500020BF084B1B690424A343064C236105E088
:10996000044B1B6902242343024C236110BD0000F9
:109970000070004000ED00E0704700000C494968AD
:109980000122920391430A4A51601146496882B20A
:109990001143074A51601146096B92159143044ADD
:1099A00011631146096B020C1143014A11637047A0
:1099B00000100240002905D0054A52690243044BB9
:1099C0005A6104E0024A52698243014B5A6170476E
:1099D00000100240002905D0054AD2690243044B19
:1099E000DA6104E0024AD2698243014BDA617047CE
:1099F00000100240002905D0054A12690243044BB9
:109A00001A6104E0024A12698243014B1A617047ED
:109A100000100240002905D0054A92690243044B18
:109A20009A6104E0024A92698243014B9A6170474D
:109A300000100240002905D0054AD2680243044BB9
:109A4000DA6004E0024AD2688243014BDA60704770
:109A500000100240FEB504460025002600200290BA
:109A6000019000900027864840680C210840054678
:109A7000002D06D0042D07D0082D08D00C2D2CD198
:109A800028E0804820602BE07E48206028E07C4869
:109A900040680F2189040840064679484068032140
:109AA000C90308400290B00C861C0298002803D11C
:109AB0007548374647430BE07148C06A0007000FFE
:109AC000401C01906F480199FCF7B7FF70430746AF
:109AD000276005E06D48206002E06A48206000BF12
:109AE00000BF67484068F021084005462D096848D6
:109AF000405D009020680099C84060606048406800
:109B000007210902084005462D0A6148405D009082
:109B100061680098C140A1605948006BFF21013184
:109B20000840884202D05B48E0600DE0544840683D
:109B3000012189030840884203D0A0684008E06002
:109B400002E0A0688008E0604D48006B40210840BA
:109B5000402802D05048206102E00120C00320616B
:109B60004748006B10210840102802D0454860612A
:109B700001E0206860614248006B8007800F002888
:109B800002D1A068A06119E03D48006B8007800FFA
:109B9000012802D12068A06110E03948006B8007DD
:109BA000800F022802D18003A06107E03448006BD7
:109BB0008007800F032801D13248A0613048006B34
:109BC000032109040840002802D1A068E06120E0D8
:109BD0002B48006B03210904084001210904884235
:109BE00002D12068E06114E02548006B03210904DC
:109BF000084001214904884202D18010E06108E058
:109C00001F48006B032109040840884201D11D4808
:109C1000E0611B48006B032189040840002802D141
:109C2000A068206220E01648006B032189040840E8
:109C300001218904884202D12068206214E0104882
:109C4000006B0321890408400121C904884202D124
:109C50000011206208E00A48006B032189040840D3
:109C6000884201D1074820620548006B80210840E6
:109C7000802802D00548606200E06762FEBD0000F7
:109C80000010024000127A0000093D00006CDC0266
:109C90002B030020809FD5001280000010B50246E3
:109CA0000021002300205111002902D10C4C23680F
:109CB0000BE0012902D10A4C236A06E0022902D1F5
:109CC000074C636A01E0064C636BD106C90E0124A0
:109CD0008C401C40002C01D0012000E0002010BD71
:109CE000001002400549096B10229143034A116399
:109CF0001146096B014311637047000000100240D8
:109D00000849096A49084900064A11621146096A68
:109D100004229143034A11621146096A0143116208
:109D20007047000000100240002807D00749096A68
:109D30000122D2031143054A116206E00349096A70
:109D40000122D2039143014A116270470010024080
:109D50000249096A0143014A11627047001002403A
:109D60000549096B80229143034A11631146096B2F
:109D70000143116370470000001002401CB501212F
:109D80008804FFF717FE01216846017100218171E7
:109D9000C17103214171012080020090694602488F
:109DA000FEF74AF81CBD00000004004838B5024622
:109DB0000024009400230020CA24174D6C62532411
:109DC0006C62002905D02C46A4681443AC600120C5
:109DD0001DE0114CA46894430F4DAC6000BF0E4CC5
:109DE000E468150A2C402346009C641C009401255D
:109DF000AD03009CAC4201D0002BF0D0064CE468CF
:109E0000150A2C40002C01D1002000E00120FF2485
:109E1000014D6C6238BD000000280040014600BFC3
:109E2000F020084000110A23584302460807000F9B
:109E30008018C0B270470146002204E0501CC2B234
:109E400008460A38C1B20A29F8DA1007000E08439A
:109E50007047000010B50021010980220A4392B228
:109E6000D243044BDB68802423401A43014BDA6061
:109E700010BD0000002800401FB501210807FFF7B2
:109E8000A9FD0120FFF732FD0120FFF739FF00BFD8
:109E90002120FFF703FF0028FAD0FF200130FFF751
:109EA00057FF0120FFF740FF00F08AFA7F20029061
:109EB000FF2003900020019001A800F015F9022175
:109EC000684601700021417001218170FFF7B8FCE4
:109ED0001FBD000008B50022009200200021124A98
:109EE000D26840231A40002A1BD1421E0E4BDA6072
:109EF00000BF0D4AD26840231A401146009A521CF6
:109F000000921B02009A9A4201D00029F1D0064A21
:109F1000D26840231A40002A01D0012002E000202C
:109F200000E0012008BD0000002800400348C06890
:109F3000802188430149C860704700000028004024
:109F400070B506460C460025134840681349084082
:109F50000546FF2000042840000CE0701F2000028E
:109F60002840000A6070A806800EA07007204003F9
:109F70002840400B2070002E0DD1E078FFF74EFFF7
:109F8000E0706078FFF74AFF6070A078FFF746FF47
:109F9000A0702078207070BD002800403FFFFF00B7
:109FA00070B501460020002200230F4C24680425D0
:109FB0002C4022460C4C403CA4680C408E0C0D46B4
:109FC000F540ED0B15402C432346074C403CE4681C
:109FD0000D092C402246002B04D094B2002C01D055
:109FE000012000E0002070BD4028004070B506460A
:109FF0000C460025124800681249084005463F20DB
:10A0000000042840000C20707F2000022840000A35
:10A0100060706806400EA070012080052840000C8A
:10A02000E070002E0BD12078FFF7F8FE20706078EA
:10A03000FFF7F4FE6070A078FFF7F0FEA07070BD2F
:10A04000002800407F7F7F0010B501200003FFF74C
:10A05000A7FF002813D000210120000300F012F810
:10A060000021FF200130FFF7A1FE01200449087004
:10A070000003FFF7EFFE01204004FDF76BFE10BD6B
:10A080005D03002010B5CA22164B5A6253225A6251
:10A09000002911D01A46926804240346A3431A43A8
:10A0A000104B9A600F4A40321268042303401A434F
:10A0B0000C4B40331A6010E00A4A926804240346AD
:10A0C000A3439A43074B9A60064A4032126804231E
:10A0D00003409A43034B40331A60FF22014B5A62FC
:10A0E00010BD00000028004030B504460025CA20FD
:10A0F0001249486253204862FFF7ECFE002800D165
:10A1000017E00E488068402188430C498860084663
:10A1100080682168084309498860A068086108468A
:10A120000069A1880904084304490861FFF7FEFE9D
:10A130000125FF2001494862284630BD0028004023
:10A14000F8B5054614460026002D0ED1314880682A
:10A1500040210840002800D002E00020E07000BF4D
:10A16000A068002800D11BE01AE02A48806840213E
:10A170000840002804D02078FFF750FE064602E091
:10A180000020E07000BFA068002804D1207BFFF70A
:10A1900045FE064604E0207BFFF740FE064600BF72
:10A1A000002D12D020780004617809020843A178BC
:10A1B0000843E17809040843217B09060843A168A4
:10A1C000084361680843064619E02078FFF733FE2C
:10A1D00007046078FFF72FFE00020743A078FFF71F
:10A1E0002AFE0743E07800040743207BFFF723FEA5
:10A1F00000060743A0680743606807433E46CA203D
:10A2000004494862532048620846C661FF204862FC
:10A21000F8BD000000280040F8B505460C460026B1
:10A2200000200090002D08D16078102108401028EF
:10A2300003D1607888430A306070002D00D108E0B7
:10A240006078FFF7EBFD0646A078FFF7E7FD0646CE
:10A2500000BF002D0BD0E0780004617809020843AC
:10A26000A1780843217849030843064610E0E078C6
:10A27000FFF7E1FD07046078FFF7DDFD000207430B
:10A28000A078FFF7D8FD07432078400307433E46F8
:10A29000CA201349486253204862FFF71BFE00287A
:10A2A00001D1009016E00F4830400D494860FFF79B
:10A2B0003DFE0B48806820210840002808D100F0AE
:10A2C0007FF8002801D1009004E00120009001E017
:10A2D00001200090FF20024948620098F8BD00006C
:10A2E000002800403FFFFF00F8B505460C46002659
:10A2F00000200090002D0AD12F488068402108409E
:10A30000002800D002E00020E07000BF0EE02A48E4
:10A31000806840210840002804D02078FFF77EFDA7
:10A32000064602E00020E07000BF00BF002D0BD009
:10A3300020780004617809020843A1780843E17895
:10A3400009040843064610E02078FFF774FD07046F
:10A350006078FFF770FD00020743A078FFF76BFD00
:10A360000743E078000407433E46CA20124948628A
:10A3700053204862FFF7AEFD002801D1009016E09F
:10A380000E4830400C490860FFF7D0FD0A4880684D
:10A3900020210840002808D100F012F8002801D13F
:10A3A000009004E00120009001E001200090FF20D7
:10A3B000014948620098F8BD002800407F7F7F0077
:10A3C00008B50022009200200021174A926820233D
:10A3D0001A40002A01D0012025E0CA22124B5A62FD
:10A3E00053225A621A46D268A0239A430E4BDA606F
:10A3F00000BF0D4AD26820231A401146009A521C11
:10A4000000929B02009A9A4201D00029F1D0064A9C
:10A41000D26820231A40002A01D0012000E0002049
:10A42000FF22014B5A6208BD0028004010B5FFF71B
:10A4300023FD07F013FD10BD08B5144A526B0092BE
:10A440006946002005E00A78114B1A54491C421C49
:10A45000D0B20428F7DB0D4AD26A0092694605E0C3
:10A460000A780B4B1A54491C421CD0B20828F7DB5F
:10A47000064A126B0092694605E00A78044B1A54AA
:10A48000491C421CD0B20C28F7DB08BD80F7FF1F27
:10A49000B4050020F0B5224C072800D020702278A7
:10A4A0001F4D0626052104271E48130001F04AFF10
:10A4B00006040D12171F280B6868002801D02170B0
:10A4C000F0BD00F031F82670F0BD00F02DF82770D7
:10A4D000012022E00220607003202070F0BD60782F
:10A4E000401E607060780028F8D12770F0BD0268C7
:10A4F000102392B21A43026021700A206070F0BDEE
:10A500006178491E617061780029F8D101681022D4
:10A5100089B291430160267000206860F0BD0000A0
:10A5200020050020405C004004480168042289B2F4
:10A5300091430160BF21090201607047405C004007
:10A540007047000030B500228B071C0F0F23A3407B
:10A550001A460B4B8C10A4001B599343084C8D10CA
:10A56000AD00635123468C10A4001B598C07250FA6
:10A570000446AC402343024C8D10AD00635130BD06
:10A580000800014001460020044A1068800880004D
:10A5900002460A431046014A10607047000001401D
:10A5A000C0080249C000086170470000405C0040DC
:10A5B0000149086070470000405C004030B54C081D
:10A5C000084964000B69C0009BB21D18064B520875
:10A5D000ED182C800969520089B20818C0188280D1
:10A5E00030BD0000405C004000600040F0B5244BEE
:10A5F000C50000290DD001290AD1186980B241197E
:10A60000204809184A80196989B249190818C28076
:10A61000F0BD1B4800691B4980B24019891C4618CF
:10A620005009411E8C465308591C3E2A09D904463C
:10A63000D70601D16446A4B2A4020127FF033C431C
:10A6400004E01C46D70700D00C46A40234800C4C12
:10A650002469A4B264190B4DAD1D64193E2A08D9B2
:10A66000D10601D1604680B280020121C9030843AE
:10A6700003E0D00700D00B4698022080F0BD000018
:10A68000405C0040006000408100044809180868F0
:10A69000034A1040034A104308607047005C0040C2
:10A6A0008F8F000080810000054A49081269490027
:10A6B00092B2C0001018034A8018818070470000D1
:10A6C000405C0040006000400C4A1269C00092B239
:10A6D00010180B4A82183E2909D94809C90601D128
:10A6E000401E80B280020121C903084304E04808EB
:10A6F000C90700D0401C800210807047405C0040B9
:10A70000066000408200094812181068084B184083
:10A71000CB0402D501231B035840890402D5012133
:10A72000490348400349084310607047005C0040FB
:10A730008FBF000080800000054A49081269490067
:10A7400092B2C0001018034A8018018070470000C0
:10A75000405C004000600040044A1269C00092B2B0
:10A760001018034A8018418070470000405C004088
:10A77000006000408200084812181068074B18401B
:10A78000CB0601D510235840890601D52021484029
:10A790000349084310607047005C0040BF8F000011
:10A7A000808000008200044812181068034B184093
:10A7B0000843106070470000005C00408F89000073
:10A7C0000149486070470000405C00400CB5002023
:10A7D00001900090314800680121090408432F4985
:10A7E000086000BF2D48006801214904084000901E
:10A7F0000198401C01900098002804D1052109030C
:10A8000001988842EED1254800680121490408409A
:10A81000002802D00120009001E000200090009864
:10A82000012839D111201E4908601C4840681B4985
:10A830004860084640684860084640687F21C90370
:10A8400088431649486008464068112109040843B6
:10A8500012494860084600680121090608430F496B
:10A86000086000BF0D480068012149060840002823
:10A87000F8D00A48406880088000084948600846C7
:10A880004068022108430549486000BF034840680A
:10A890000C2108400828F9D10CBD0000001002402E
:10A8A0000020024010B586B0002005901F216846A8
:10A8B0000172012141720021817202A8FEF7C0FFDE
:10A8C00001210807FFF786F83D48FCF7E9FC8121E4
:10A8D0003C480068FCF7CCFF03213A480068FCF7CD
:10A8E000C7FF822137480068FCF7C2FF3648FCF7F3
:10A8F0008BF880473348006801F03DFB0121480494
:10A90000FFF758F82F480068FCF7A8FF2D480068AB
:10A91000FDF784F92B48006801F0E4F80020FFF708
:10A920001FFA00210120C005FFF754F8FF225E3214
:10A93000002124480068FCF708F8072168460172E6
:10A94000002141720121817202A8FEF779FF0D21D9
:10A950000220FFF7F7FD0120400300900021684628
:10A9600001710821417101218171FDF707FA01216F
:10A9700027204004FFF71EF8032168460174417444
:10A980000021C1741148039003A90920C006FDF7F6
:10A9900053FA03A90E48FDF74FFA03A90D48FDF736
:10A9A0004BFA002123204004FFF704F801200A4954
:10A9B000087001210846FEF7ADFF06B010BD00008B
:10A9C00000240140D0030020B8040020FFFF000055
:10A9D0000004004800140048CC030020054801682A
:10A9E000082289B2114301600168042289B211432F
:10A9F00001607047405C00407047000010B51B4884
:10AA00000068012108431949086008464068184950
:10AA1000084016494860084600681649084013492E
:10AA20000860084600680121890488430F490860CE
:10AA3000084640683F21090488430C49486008469D
:10AA4000C06A00090001C8620846006BFF2154314A
:10AA50008843064908630846406B40084000486345
:10AA600000208860FFF7B2FE10BD00000010024019
:10AA70000CB8FF08FFFFF6FE10B50121414800F0B9
:10AA8000A5FD00287CD040480078401E3E49087053
:10AA900001203E4908803E49088001F089FF3D4879
:10AAA000007801283FD13C48007900283BD13B4841
:10AAB0000078002860D03A48007846285CDC3648A8
:10AAC000407800281DD1012001F056FF324800785F
:10AAD000401E3149087008460078002816D101F060
:10AAE0004BFF2E48007840002E49085C2A49087028
:10AAF0002A4800784000401C2A49085C26494870D2
:10AB000004E025484078401E2349487024480078D6
:10AB1000401C234908700846007846282CDD002098
:10AB200001F02AFF28E01C480079012824D11948A7
:10AB30000078012820D11849C87889780002084394
:10AB4000401C81B214488170090AC1700146C8785E
:10AB50008978000208430F4AD1799279090211439A
:10AB6000884209DB01200B49087000200A4908715E
:10AB7000002109488170C1700121024800F092FC57
:10AB800010BD000000200040AB0300208003002027
:10AB900082030020EE000020F6000020FD000020CF
:10ABA00084030020FF00002010B500240121E448A8
:10ABB00000F00CFD00287DD0E2480078401CE149FF
:10ABC0000870084600780A2804DB0020087001207D
:10ABD000DD490870DD480078401CDC4908700846F3
:10ABE0000078032804DB002008700120D849087091
:10ABF000D8480078002816D0D7480078401CD6499D
:10AC000008700846007863280DDB002001F0B4FED0
:10AC10001021D248FDF784F90020D1494870CE496F
:10AC20000870CC490870CF480078002818D0CE486A
:10AC30000088401CCC49088008460088FF21F43178
:10AC400088420DDB80210920C006FDF769F901214A
:10AC5000C248FDF765F90020C3490880C149087062
:10AC6000C2480078401CC149087008460078322864
:10AC700005D10120BE4908700020BC490870BD48BC
:10AC8000007801281BD1BC480078401CBA490870E4
:10AC9000084600780A2812D10020B6490870B74942
:10ACA000086001218902B648FDF730F9002806D175
:10ACB000012000E03EE1B3490870B3490870B14893
:10ACC0000078012840D18102AD48FDF71FF9002826
:10ACD00011D1AA480068401CA849086008460068CD
:10ACE000642831D1A8480078401CA749087000208A
:10ACF000A249086028E0A4480078012800DB01246C
:10AD0000A1480078042800DB022400209D49087037
:10AD10009D490870012C02D0022C14D109E09B48F7
:10AD20000088042108439949088001209849088037
:10AD300009E09648008810210843944908800120C2
:10AD40009349088000BF00BF92480078012818D1BD
:10AD500091480078401C90490870084600780A28FD
:10AD60000FD100208B4908708C49086004217B4872
:10AD7000FDF7CCF8002804D10120894908708949E1
:10AD800008708748007801287AD104217348FDF7BC
:10AD9000BDF800282DD181480068401C7F4908601B
:10ADA0000846006864286BD17E480078401C7D49C5
:10ADB000087008460078062809D101206549087006
:10ADC00010216648FDF7AEF80120654948707548C6
:10ADD00000780A2809D101205E49087010215F48D7
:10ADE000FDF7A0F801205E49487000206B4908601B
:10ADF00046E06C480078012800DB012469480078AF
:10AE0000032804DB67480078052800DC0224654835
:10AE10000078052804DD634800780A2800DA042455
:10AE2000604800780A2800DB032400205C49087091
:10AE30005C490870012C06D0022C0ED0032C16D0D1
:10AE4000042C1CD117E051480088022108434F49C7
:10AE5000088001204E49088011E04C4800880821F4
:10AE600008434A49088001204949088007E0012039
:10AE70004D49087003E001204C49087000BF00BF35
:10AE80004B480078012817D14A480078401C4949AE
:10AE90000870084600780A280ED10020444908703E
:10AEA000FF2101313648FDF731F8002804D1012097
:10AEB00041490870414908703F480078012825D170
:10AEC000002401022E48FDF721F8002811D13C484A
:10AED0000068401C3A49086008460068642815D19B
:10AEE00036480078401C3549087000203449086015
:10AEF0000CE032480078012808DB3048007803284D
:10AF000004DA00202C4908702C4908702D4800787C
:10AF100001280FD12C4801780078401C2A4A107073
:10AF20000A2907DB00201146087026490870012015
:10AF3000264908700121024800F0B4FA10BD000053
:10AF400000440140A60300205F020020B00300205F
:10AF500078030020FB000020850300200004004847
:10AF6000EE0000206302002064020020AE030020F7
:10AF7000AF030020E6000020E7000020B40300201B
:10AF8000000800489E0300209F0300204A02002082
:10AF90007E030020E2000020E3000020B803002030
:10AFA0009C0300209D030020A7030020A90300208C
:10AFB000EA000020EB000020A0030020A1030020F5
:10AFC000BC030020CA030020C90300203402002073
:10AFD00010B50121044800F0F9FA002803D001213E
:10AFE000014800F05FFA10BD0048014010B5022191
:10AFF000044800F0EBFA002803D00221014800F0D9
:10B0000051FA10BD002C014010B50121BC4800F0E0
:10B01000DDFA00287ED0BB480088401CB949088072
:10B02000B9490020FEF7E2FFB8490020FEF788FF8B
:10B030000120B7490870B448807800286BD10120FE
:10B04000B4490870B44801880088401CB24A108096
:10B050002D204001814205DB00201146088001209F
:10B06000AE490870AE480078012827D1AD48008865
:10B07000401EAC4908800846008800281ED1AA4816
:10B08000007801281AD10020A54908700821A74896
:10B09000FCF73CFFA64908700846007800280AD053
:10B0A000A4480088FF2101310843A24908800120FB
:10B0B000A149088002E00120A0490860A04800786A
:10B0C00001281ED19F48FBF79FFC0078002818D16B
:10B0D00095484078012814D19B480088401E9A4921
:10B0E00008800846008800280BD1954908709148CF
:10B0F00000880121490208438E49088001208E49B9
:10B1000008808E48006800281CD090480068401CC9
:10B110008E4901E0F3E0B5E00860084600680A28BF
:10B1200010D38848FBF770FC007801280AD17C49CD
:10B1300008707D48407A7B49088000207F4908607C
:10B1400082490860824800788006800F002815D167
:10B150007F4801F09FFD002810DD7D4800783021F8
:10B16000884310307A4908707248008820210843CB
:10B170007049088001207049088035E074480078E3
:10B180008006800F002815D0714801F083FD022849
:10B1900010D16F4800783021884320306C49087006
:10B1A00064480088202108436249088001206249E0
:10B1B000088019E0664800788006800F002813D0C8
:10B1C000634801F067FD00280ED161480078302106
:10B1D00088435F4908705748008820210843554933
:10B1E00008800120544908805A4800788006800F62
:10B1F000002815D1574801F04DFD002810D05548C2
:10B20000007830218843103052490870494800883E
:10B21000402108434749088001204749088019E038
:10B220004C4800788006800F002813D0494801F070
:10B2300031FD00280ED14748007830218843454928
:10B2400008703C480088402108433A4908800120A2
:10B25000394908803E4800788006800F002811DDBB
:10B260003D48007801280DD13C4801780078401C09
:10B270003A4A10703C2905DB002011460870022074
:10B28000354908701F4800880F2834D100201D4917
:10B29000088001203249088008212448FCF736FE46
:10B2A0002349087008460078002821D12D480078ED
:10B2B000401CC0B22B49087002281CDB2148FBF758
:10B2C000A3FB007800280FD12748FBF79DFB80786F
:10B2D000022809DC174800880121C90208431549E2
:10B2E000088001201449088000201E49087002E0EF
:10B2F00000201C4908700121014800F0D3F810BD5E
:10B30000000400407A030020540300204C03002076
:10B31000A2030020A303002048020020A503002070
:10B3200009010020D6000020440500200004004848
:10B33000AA0300204A0200207E030020940300207C
:10B340000A010020BA100020D80000209803002035
:10B35000E50E0020EF0E0020AC030020AD0300201E
:10B360007C030020C00300207C100020F7B584B0CF
:10B370000C461546454946480068FBF75EFB074604
:10B38000FBF700FD064631467F20C005FBF706FCB3
:10B3900006462846FBF7F6FC31460290FBF7FEFB1B
:10B3A0000746FBF7ABFC0390002C1BD1374938480C
:10B3B0000068FBF742FB0746FBF7E4FC064635490D
:10B3C000304609F015FD029031480068FBF7DAFCC1
:10B3D00001900299FBF7E2FB0746FBF78FFC2E4931
:10B3E00008603BE0012C1BD1284929480068FBF785
:10B3F00024FB0746FBF7C6FC06462849304609F001
:10B40000F7FC029022480068FBF7BCFC019002990F
:10B41000FBF7C4FB0746FBF771FC1F4908601DE002
:10B42000022C1BD119491A480068FBF706FB074696
:10B43000FBF7A8FC06467F21C905304609F0D8FC79
:10B44000029013480068FBF79DFC01900299FBF7FE
:10B45000A5FB0746FBF752FC0F490860049800F073
:10B4600033F80398401E0E4948600B480088401E80
:10B470000880002008814880049800F0C5F8012267
:10B480001146049800F0B5F807B0F0BD40420F0037
:10B49000C0000020002474496C03002000007A449E
:10B4A000C4100020CA43028270470000002904D063
:10B4B000028801231A43028003E00288014B1A40EC
:10B4C00002807047FEFF000010B5044637488442F2
:10B4D00008D10121C014FEF7ADFA0021E014FEF7F7
:10B4E000A9FA62E001208007844208D101210846C0
:10B4F000FEF780FA00210120FEF77CFA55E02C4887
:10B50000844208D101210220FEF774FA00210220B2
:10B51000FEF770FA49E02748844208D10121102043
:10B52000FEF768FA00211020FEF764FA3DE0224899
:10B53000844208D101212020FEF75CFA002120205E
:10B54000FEF758FA31E01D48844208D101218015E8
:10B55000FEF750FA0021A015FEF74CFA25E0184836
:10B56000844209D101210804FEF764FA0021012078
:10B570000004FEF75FFA18E01248844209D1012165
:10B580004804FEF757FA002101204004FEF752FA62
:10B590000BE00D48844208D101218804FEF74AFAE5
:10B5A000002101208004FEF745FA10BD002C014067
:10B5B0000004004000100040001400400020004043
:10B5C00000400140004401400048014030B50246BF
:10B5D000002000230024158A0D402B4695890D403C
:10B5E0002C46002B03D0002C01D0012000E00020CD
:10B5F00030BD002A03D083890B43838102E0838915
:10B600008B4383817047000000220288154B9842CB
:10B6100006D001239B07984202D0134B984203D1D6
:10B62000124B1A404B881A43114B984203D0114BCE
:10B630001A400B891A4302804B68C3620B8803854A
:10B64000084B984208D00C4B984205D00B4B9842BF
:10B6500002D00B4B984201D18B7A0386012383825F
:10B6600070470000002C0140000400408FFF0000E4
:10B6700000100040FFFC0000004001400044014079
:10B68000004801408100044809180868034A104036
:10B69000034A104308607047005C00408F8F000031
:10B6A00080C000008100044809180868034A10405F
:10B6B000034A104308607047005C00408F8F000011
:10B6C000C080000070B5064C064D2146284600F0AB
:10B6D0005EF8002803D02146284600F039F870BDF6
:10B6E000050105000038014010B51149114800F06E
:10B6F0004EF800281BD00F4800F010F90E490968D9
:10B7000008700D480068401C0B490860884201D34E
:10B710000A4808600A480078012804D109490870DD
:10B720000020094908700249024800F011F810BDD4
:10B730000501050000440040E4140020E41000204E
:10B74000CB030020CA030020C90300200162704718
:10B7500010B5002300220B0C01249C4022460262FB
:10B7600010BD002904D0026801231A43026003E0DF
:10B770000268520852000260704702460020D369F6
:10B780000B40002B01D0012000E00020704770B575
:10B7900002460B4600240021002500201E04350E21
:10B7A000D9B201268E403146012D02D116683140B2
:10B7B00006E0022D02D15668314001E09668314022
:10B7C0001C0C0126A6403446D6693440002903D01B
:10B7D000002C01D0012000E0002070BDF8B5034628
:10B7E0000024002600960025002018460E04340E82
:10B7F000CEB200960127009EB7403D46022C01D1F3
:10B80000001D02E0032C00D10830002A03D0066896
:10B810002E43066002E00668AE430660F8BD0000F5
:10B82000F0B58BB004460E46002700200A90002594
:10B83000206840084000206065680321090328460D
:10B8400088430546B0680543656025682E48054075
:10B85000F168706808433169084305432560A568AD
:10B8600003210902284688430546706905430120E3
:10B8700000030543A5606846FEF7ECF823488442C0
:10B8800002D106980A900DE02148844202D107981F
:10B890000A9007E01F48844202D108980A9001E00C
:10B8A00002980A9020680121C903084000280CD0A2
:10B8B00031680A9A5000FBF7C0F8074631680A9AC7
:10B8C0005000FBF7BAF80D4609E031680A98FBF71B
:10B8D000B4F8074631680A98FBF7AFF80D463068B0
:10B8E0004008A84200D87F1C20680121C9030840F5
:10B8F000002806D03807450F384607490840284336
:10B900000746A7810BB0F0BDF3E9FFFF0038014007
:10B910000044004000480040F0FF00000146888CD1
:10B92000C005C00D7047CA05D20D0285704710B51D
:10B93000FF225932125852689047002010BD10B5AE
:10B94000134600240A462146FCF775F8204610BD30
:10B9500010B5134600240A462146FCF7E7F82046B6
:10B9600010BD10B50021FCF7AFF810BD10B50346AF
:10B9700080339A655A6503234370134600240A46B0
:10B980002146FCF758F8204610BD10B500240521CB
:10B990004170234622462146FCF74DF8204610BD53
:10B9A00010B58263022342634370134600240A46A3
:10B9B0002146FCF7BBF8204610BD10B50024042139
:10B9C0004170234622462146FCF7B0F8204610BDC0
:10B9D000F8B5C71DF9370446002907D0B86D42698C
:10B9E000002A46D0A078032841D042E0254660785E
:10B9F0001835022802D004282ED03AE0E968E86918
:10BA00000091884207D9401AE86182B2204629692C
:10BA1000FFF79EFF2DE0286A0646FBF70EF8002987
:10BA20000DD1009886420AD3686A864207D2002266
:10BA300011462046FFF78CFF0020686219E0B86DC0
:10BA4000C168002904D0A078032801D12046884786
:10BA50002046FFF79AFF0CE0074D2868002808D021
:10BA6000C1B22046FCF712F80020286001E0204611
:10BA700090470020F8BD00002C05002010B5C21D25
:10BA8000F9320446002907D0906D8269002A27D038
:10BA9000A078032822D023E020466178B83003291B
:10BAA0001ED1C369C1688B420BD9591AC161C268E2
:10BAB000914200D311468AB201692046FFF73FFF49
:10BAC0000EE0906D0169002904D0A078032801D10F
:10BAD000204688472046FFF770FF01E02046904748
:10BAE000002010BD00207047F8B5044648880E4677
:10BAF000010AE51DF9350B0000F024FC044B03108E
:10BB0000184B296E207B0A68694690470146F088E9
:10BB100040282DD108206A46108032E0A96D207B94
:10BB20000A6A694690470146686621E0C0B2030090
:10BB300000F008FC0604080C1014182F296E207B56
:10BB40004A6812E0296E207B8A680EE0296E207B0D
:10BB5000CA680AE0296E207B0A6906E0296E207B0C
:10BB60004A6902E0296E207B8A696946904701464E
:10BB70006846008800280BD0F288002A08D082424C
:10BB800001D968460288684602802046FFF708FF10
:10BB9000F8BD20460021FBF797FFF8BD70B50023E4
:10BBA00000281CD00446002502E06D1CEDB2641C88
:10BBB0002678002EF9D16C00A41C1480CC540322EA
:10BBC0005B1CCA5400245B1C06E0CA545B1CDAB23E
:10BBD0008C54521CD3B2401C0278002AF5D170BD9F
:10BBE000F8B51E4615460F46044600F04BFA2946A6
:10BBF000E51DF9352A465832C2C2FCF7DDF9204668
:10BC0000FBF7D6FFE86D00688047204600F030FA69
:10BC10002046FBF719FEF8BD027C0A70427C4A7090
:10BC2000C37C827C1B02D2184A80437D027D1B02AA
:10BC3000D2188A80C37D827D1B02D21892B2CA803C
:10BC40000121C2634170704710B5002204464023B1
:10BC50001146FBF7C9FF8023002219462046FBF757
:10BC6000C3FF0023402219462046FBF764FE002351
:10BC7000402280212046FBF75EFE0120A070207B41
:10BC8000FF340134E16D49688847002010BD10B5CC
:10BC90000446FF300130C06D00698047E078A07035
:10BCA000002010BD10B5FF2159310958C96900297C
:10BCB00000D08847002010BD10B5C21DF9321446CF
:10BCC000926D12689047E06D80688047002010BD3B
:10BCD00070B58978164D04462970012904D920468B
:10BCE0000021FBF7F1FE70BDA078022813D00328D5
:10BCF000F5D1002915D02078884208D00146204689
:10BD0000FFF715FE297821702046FFF7D5FF204662
:10BD1000FFF753FE70BD0029F9D021700320A070F9
:10BD2000F2E70220A07021702046FFF700FEEEE748
:10BD3000280500201CB504466946FFF76DFF6846DC
:10BD40000178C806C00E0AD001280DD0022810D0F4
:10BD5000C909C9012046FBF7B7FE00201CBD694692
:10BD6000204600F00BF8F8E76946204600F0E5F8B9
:10BD7000F3E76946204600F07BF8EEE7FEB50022C7
:10BD800000924F781646C21D01240225F9323B006D
:10BD900000F0D8FA0A3656474B470906472724478A
:10BDA000FFF7A2FE5FE006468888002814D1C88805
:10BDB000002811D188784706B0787F0E03280BD071
:10BDC0002A48377147603046FFF7F7FD002F01D052
:10BDD000B57048E0B47046E0304622E0FFF778FFE7
:10BDE00041E00196C98801291BD18178022902D03E
:10BDF000032916D101E001220FE0012201460DE0E6
:10BE000001968178022901D003290AD10194816821
:10BE1000002901D003210191022201A9FFF7C0FDF1
:10BE200021E00021FBF750FE1DE00546488801286F
:10BE300019D1AC60906D826828469047284610E082
:10BE400004468078022803D0032801D02046E8E782
:10BE50004888012807D1A660906D826820469047E7
:10BE60002046FFF7AAFD0098FEBD0000280500202F
:10BE7000F8B5044600200D46074600906878097919
:10BE8000002835D0E61DF936012819D0032852D1F3
:10BE9000A07802283BD003280DD101E020460CE019
:10BEA000688800281BD1002919D0802917D0204686
:10BEB000FBF70AFE13E020460021FBF705FE3AE0FF
:10BEC000A078022823D00328F5D16888002806D15D
:10BED000002904D0802902D02046FBF708FDB06D70
:10BEE00029468268204690472046FFF766FD22E0FB
:10BEF000A07802280BD00328DDD1CA090120002A2E
:10BF00000AD04906490E2822514309190AE000299E
:10BF100011D08029C2D10EE00A0607D4282251434D
:10BF20000919A031897E002900D0009002226946BB
:10BF30002046FFF735FD3846F8BD70B504468078D9
:10BF400000250E46032810D1307901280DD8FF2096
:10BF500059300059826820469047F18805462943A8
:10BF600007D12046FFF729FD03E020460021FBF71B
:10BF7000ABFD284670BD10B58178C1700421817079
:10BF8000FF300130C06DC0688047002010BD000048
:10BF900010B50A46024903A0FFF700FE004810BD95
:10BFA000E01B002056435020436F6E666967000017
:10BFB0007047000012200880004870474F4F01086A
:10BFC000704770477047704710B50A46024903A092
:10BFD000FFF7E4FD004810BDE01B00205643502051
:10BFE000496E746572666163650000000420088014
:10BFF000004870474B4F010810B50A46024903A09C
:10C00000FFF7CCFD004810BDE01B002053544D69E4
:10C0100063726F656C656374726F6E696373000041
:10C0200010B50A46024903A0FFF7B8FD004810BD4D
:10C03000E01B002053544D333220566972747561F1
:10C040006C20436F6D506F727420696E20465320D0
:10C050004D6F6465000000001A200880004870479A
:10C06000040500204320088000487047084F01085D
:10C0700008B51F2168460170012141708170FDF7EC
:10C08000DFFB08BD1CB50121C805FDF7A3FC80201E
:10C09000FDF766FE01214804FDF78CFC0320C00279
:10C0A00000900320694648710220087100208871C1
:10C0B000C8710920C006FBF7BFFE1CBD10B500F01B
:10C0C00001F810BDF8B50021684601802B4D696864
:10C0D000018000882A4C21680840C00B01D0FBF782
:10C0E00049FA684600882188264E0840400509D54F
:10C0F0002548686030680169244888470021234842
:10C10000FBF7C4FC6846018820680140890401D51A
:10C110001F496960694609880140C80408D51D485F
:10C12000686030688169194888470020FEF7B2F9D5
:10C130006846008821880840000507D516486860D1
:10C140003068416911488847FEF748FC6846008816
:10C1500021880840800505D5104868603068C168AE
:10C160000A4888476846008821880840C00504D5E9
:10C170000B4868600720FEF78DF9F8BD405C004071
:10C1800050040020E4040020FFFB0000E015002024
:10C19000FFDF0000FFEF0000FFF70000FFFD0000E1
:10C1A000FFFE0000084B521C10B55208C918002AA7
:10C1B00008D0437804781B0223430B80801C891C21
:10C1C000521EF6D110BD00000060004030B50324BF
:10C1D00064020C2300222049002808D01F4805795A
:10C1E000002D0CD0012D0CD0022D22D10CE0E1202D
:10C1F000400205C10A604C608B60CA602AE08A6018
:10C2000005E003252D0301E001256D038D604579CF
:10C21000002D04D0012D04D0022D0AD103E0CA6004
:10C2200002E00124A402CC608479072C0DD0082CF4
:10C2300004D00020FFF7CAFF022030BDCC68002CDC
:10C2400003D0012424034C6000E04A6000680B61C5
:10C250004A610860002030BDC81B0020AC040020EB
:10C2600070B50C46042829DD154D202802D0212860
:10C2700024D112E00846FAF7C7FBE1780002000A71
:10C280000906084328602079287160796871A079CF
:10C29000A8710120FFF79AFF10E028782070288805
:10C2A000000A60702868000CA0702868000EE0701A
:10C2B0002879207168796071A8798871002070BD33
:10C2C000AC04002070B500230B4A0C4C0AE0156842
:10C2D000954200D114601668C55C357015686D1CF8
:10C2E0005B1C15608B42F2D305490120087005499B
:10C2F0000020087070BD0000E4140020E41000204D
:10C30000CA030020C9030020F0B500230127094A11
:10C31000BF02094D0AE01468BC4201D10024146038
:10C3200006782E55641C401C5B1C14608B42F2D3B3
:10C330000020F0BD60040020881700200020704716
:10C340000020704730B47446641E2578641CAB42EC
:10C3500000D21D46635D5B00E31830BC1847000047
:10C3600010B504461048046000F0F0FD0722214695
:10C370000E48FAF77BFF21460C48FAF769FF0122C5
:10C3800004210A48FAF7E7FF01210848FAF77CFF81
:10C3900000BF07490548FAF7B5FF0028F9D0034860
:10C3A000FAF7FAFF10BD0000B0020020002401409F
:10C3B0000100000170B505460C46012D3BD13C48FB
:10C3C000FAF722FB0078A04201D1002070BD384866
:10C3D000FAF71AFB0078012813D181023548FBF7E0
:10C3E0009FFD002034490870344908803048FAF72E
:10C3F0000BFB0021017000203149086031490860C1
:10C400004DE0012189022B48FBF78CFD01202A49D0
:10C4100008702D48407A294908802548FAF7F4FA2F
:10C4200001210170012029498870002024490860F9
:10C430002449086033E01E48001DFAF7E5FA007849
:10C44000A04201D10020C1E71948001DFAF7DCFA2B
:10C45000007801280FD104211648FBF761FD002068
:10C460001B4908701B4908801148001DFAF7CCFAD7
:10C470000021017013E004210E48FBF753FD012059
:10C48000134908701048807A124908800848001D36
:10C49000FAF7BAFA0121017001200C4948710E48DF
:10C4A0004078002801D100F05DFA01208EE70000FD
:10C4B000BA1000200004004809010020D600002026
:10C4C000940300209803002044050020030F00205F
:10C4D0000A010020D8000020EE00002010B504461C
:10C4E000222012490968087010480068401C0F4952
:10C4F0000860022208460168204602F0AFF90B48A6
:10C500000068801C094908602220096808700748F3
:10C510000068401C054908603A2009680870034813
:10C520000068401C0149086010BD00001402002092
:10C5300010B52223104C246823700F4B1B685B1C22
:10C540000D4C236000220BE003780B4C2468237011
:10C55000401C094B1B685B1C074C2360531CDAB260
:10C560008A42F1DB2223044C24682370024B1B68AF
:10C570005B1C014C236010BD1402002030B5024644
:10C580000020002307E01478521C303C0A25454364
:10C5900060195C1CE3B28B42F5DB30BD1CB5012198
:10C5A0008804FDF707FA012168460171C171002175
:10C5B0004171C020009069460548FBF73DFC4021D1
:10C5C0000348FBF7AFFC80210148FBF7ABFC1CBD27
:10C5D00000040048F0B58DB005460F463126012312
:10C5E0001F4A1946184602F045FC1D4800784E289F
:10C5F00001D1322631E01A480078332801D13326A0
:10C600002BE0002426E02146392251430846C83059
:10C6100013466A46012102F02DFC68460078312855
:10C6200016D1102200A9013128460930FAF7F0F896
:10C6300000280DD130260B4806700078302806D12E
:10C64000042200A901310748401CFAF73DF903E034
:10C65000601CC4B2032CD6DB00BF30460DB0F0BD69
:10C660000D0F0020A905002010B5002045490880C5
:10C670004549087045480078012810D14448FAF728
:10C68000C3F9007801280AD142480078002806D171
:10C690000120404908703D48407A3F4908803B48A6
:10C6A0008078012801D1384908703848C0780128BD
:10C6B00013D13748801E40783449C97A88420CDC4F
:10C6C00036484078002808DD2E48008810210843AD
:10C6D0002C49088001202C4908702C480079012839
:10C6E0001BD12E484078002817DD2949891E49783A
:10C6F000274A921E12788818C10F0918C9050C0E16
:10C700002248007BA04208DB1E4800882021084305
:10C710001C49088001201C4908701C4840790128E8
:10C720001AD11B48801E40781849497B884213DB88
:10C730001748801E01781548807B81420CDA174823
:10C740004078002808DD0F480088402108430D4943
:10C75000088001200C4908700C48C07901280ED1CE
:10C760000B48801E0078642809D106480088FF2104
:10C77000013108430349088001200349087001483A
:10C78000007810BDD4000020DA000020440500200D
:10C79000BA10002009010020D6000020F402002079
:10C7A000F0B585B005460024002728460830011959
:10C7B00001A802F093FD0646B01C2018C4B2314611
:10C7C00001A8FFF7DBFEC0B200902846083001192F
:10C7D00001A802F083FD0646B01C2018C4B2314601
:10C7E00001A8FFF7CBFEC0B204902846083001191B
:10C7F00001A802F073FD0646B01C2018C4B23146F1
:10C8000001A8FFF7BBFEC1B20498401E3D4A115477
:10C81000009802286ED128460830011901A802F0BC
:10C820005DFD0646B01C2018C4B204980300FFF753
:10C8300089FD0860050C13141B412260314601A8D4
:10C84000FFF79CFE2F49487253E0314601A8FFF7DD
:10C8500095FE2C4988724CE04BE0314601A8FFF769
:10C860008DFE2849C87244E0314601A8FFF786FED4
:10C87000244908733DE0314601A8FFF77FFE2149B6
:10C88000C873012713E028460830011901A802F0F7
:10C8900025FD0646B01C2018C4B2314601A8FFF79A
:10C8A0006DFEC1B217480F30C155781CC7B2042FB6
:10C8B000E9DB1EE0314601A8FFF760FE114948732D
:10C8C000012713E028460830011901A802F006FDEF
:10C8D0000646B01C2018C4B2314601A8FFF74EFE30
:10C8E000C1B208480D30C155781CC7B2022FE9DB30
:10C8F00000BF00BF1423034A0021034802F0BAFA24
:10C9000005B0F0BD44050020AE02000070B5002562
:10C91000FFF7AAFE01281ED110480088092803DC71
:10C920000E480088C01D85B2002409E0E01D0121E9
:10C9300081400B480068884309490860601C84B244
:10C94000092CF3DB05480178012088400449096877
:10C95000084303490860E8B270BD0000D40000201D
:10C960003802002010B501200249087000F004F8D8
:10C9700010BD0000FB00002010B504460A480078F6
:10C98000012810D1002C07D010210848FBF7CAFA63
:10C9900001200549487006E010210448FBF7C0FA61
:10C9A00000200149487010BDEE000020000400483E
:10C9B00010B500242948007801284DD12848007876
:10C9C00028490978884203DC01202749087001249E
:10C9D00026480078002803D102202349087001244A
:10C9E0002348807A0A2807DA22484078002803DDA5
:10C9F00004201D49087001241D48807A002807D1B1
:10CA00001C484078002803DD0320174908700124E2
:10CA1000002C02D1002014490870134800781649F0
:10CA20000978884218D00020144908700E48007810
:10CA300040001349085C134908700B480078400017
:10CA4000401C0F49085C0F494870074800780A49A4
:10CA500008700020FFF790FF10BD0000EE000020DE
:10CA6000DC02002005030020FD000020B81000209B
:10CA70009E100020F4020020FE000020840300200D
:10CA8000FF000020F6000020F0B587B0002400254C
:10CA90000020069039A207CA03AB07C3002600276F
:10CAA00000200290019038480488E017800F001998
:10CAB000801080000094201A05D164212046F9F7E7
:10CAC000C6FF002906D1FF2191312046F9F7BFFFAB
:10CAD000002902D10120069001E0002006907D206F
:10CAE0000001844202DD201A84B20026601E84B256
:10CAF0002046E117890F091889050F0EE01B84B243
:10CB00007806070EE019C6B220480078029000208F
:10CB1000019008E003A90198085C401985B20198CA
:10CB2000401CC0B201900298401E01998842F1DC7D
:10CB300016480078022806DD15490978069840183D
:10CB4000401985B203E012480078281885B2072101
:10CB50002846F9F77CFF8DB27019C6B2072E04DDA6
:10CB600007213046F9F773FFCEB20A480670007805
:10CB7000401C0849087007B0F0BD00001F1C1F1EB4
:10CB80001F1E1F1F1E1F1E1F5E03002059030020B3
:10CB9000580300205A0300200A48407800280BDD83
:10CBA00009494978084A12788818C10F0918C90537
:10CBB000090E064A117003E0034800780349087023
:10CBC00070470000F4020020B8100020DC020020B2
:10CBD000F8B504460020009020461230F9F714FF03
:10CBE000002123300171417120461230F9F70CFF0A
:10CBF000057849E020461230F9F706FF23304178E6
:10CC0000027808021043691E0841C007C00F0028BF
:10CC100038D0681EC6B233E020461230F9F7F4FE71
:10CC200023304178027808021043711E0841C00782
:10CC3000C00F002822D120461230F9F7E5FE23303C
:10CC40004179027908021043711E01228A40104383
:10CC500087B220461230F9F7D7FE23300771390A20
:10CC6000417120461230F9F7CFFE23304179027925
:10CC7000080210430649086001200090701EC6B2E9
:10CC8000002EC9DC681EC5B2002DB3DC0098F8BDCB
:10CC9000F002002010B5014600204B7A0C7A1A02EF
:10CCA00022435205520D224B1B889A421CDDCB7940
:10CCB0008C791A0222435205520D1D4B1B889A4251
:10CCC00012D14A789206520F1A4B1B789A4201D120
:10CCD000012200E00022012A06D10022164B1A7020
:10CCE000164B1A70012022E04B7A0C7A1A0222436A
:10CCF0005205520D0E4B1B889A4217DDCB798C7969
:10CD00001A0222435205520D094B1B889A420DDA32
:10CD10004A789206520F074B1B789A4201D10122A2
:10CD200000E00022012A01D1022000E0002010BD15
:10CD3000480200204C030020AC030020AD0300207B
:10CD400030B502460B460020012A33DB192A31DCBC
:10CD5000294C2488002C00D14DE0032127E0264CEB
:10CD600024880C41E407E40F002C1ED04C1E234DF8
:10CD70002C5DA407A40F9C4205D14C1E2C5DA4077A
:10CD8000A40F022C03D11E4C2478012C0CD0012BB3
:10CD900006D04C1E194D2C5DA407A40F022C04D103
:10CDA000174C2478022C00D108464C1CE1B209290A
:10CDB000D5DB20E01A2A1EDB322A1CDC0E4C24882C
:10CDC000002C01D1002016E00B4C2488A405E40FB0
:10CDD000002C10D0094C247A2407A40F9C4205D1C2
:10CDE000064C247A2407A40F022C04D1044C247886
:10CDF000012C00D1092030BDD400002058050020AE
:10CE0000DA00002002461078222806D15018203877
:10CE1000C07F222801D1012070470020FCE70000DC
:10CE200010B50146002001291CD12E4AD3799479EE
:10CE30001A0222435205520D2B4B1B889A4250DC9A
:10CE4000284A537A147A1A0222435205520D264B6D
:10CE50001B889A4245DB234A52780A40002A40D078
:10CE600001203EE01A291DD1204AD37994791A0273
:10CE700022435205520D1C4B1B889A4231DC1B4A3F
:10CE8000537A147A1A0222435205520D164B1B880C
:10CE90009A4226DB154A5278D207D20F002A20D0B8
:10CEA00001201EE033291CD1114AD37994791A024A
:10CEB00022435205520D0C4B1B889A4211DC0C4A3E
:10CEC000537A147A1A0222435205520D064B1B88DC
:10CED0009A4206DB064A5278D207D20F002A00D1C6
:10CEE000012010BDE50E002048020020EF0E0020BA
:10CEF000F90E002030B504460A460023012C11D15A
:10CF0000002107E01578202D01D15D1CEBB2521CE9
:10CF10004D1CE9B20C29F5DB062B01DD332014E0B2
:10CF2000302012E0022C10D1002107E01578202DCE
:10CF300001D15D1CEBB2521C4D1CE9B20C29F5DB92
:10CF4000062B01DD342000E0302030BD00200149F7
:10CF500088627047002401403EB500200090019097
:10CF6000029000900190029000240CE021460C22D7
:10CF700051430B4A891888B20C236A46002101F0FC
:10CF800079FF601CC4B21E2CF0DBFF20054908703D
:10CF900001230A460021B320800001F06BFF3EBD53
:10CFA000CD0200002803002038B5FF2000900024A7
:10CFB00011E000250BE0214639225143C8314819C0
:10CFC00001236A46002101F055FF681CC5B2392DC6
:10CFD000F1DB601CC4B2032CEBDB38BDF8B50546B1
:10CFE0000C46274628780107090F204606F09BFBD0
:10CFF0000021C94329720A0A6A72490DA971090AF6
:10D00000E9713C4600261FE0F0003018205C8006E5
:10D01000400F11490978884214D1F00030180019E6
:10D02000017AC279080210434005400D0B49098876
:10D03000884207DDF000301801190922681CF9F751
:10D0400043FC06E0701CC6B228780007000FB0420F
:10D05000DADC00BFF8BD00004C03002048020020CD
:10D0600010B501460020002210E00B78094C24681E
:10D070002370084B1B685B1C064C23600B78222B2B
:10D0800001D1531CDAB2491C431CD8B2022AECD19C
:10D0900010BD000014020020F7B584B0144601252D
:10D0A00003F0C8FF042203A9049801F0D7FB04226F
:10D0B00003A9F8480068F9F771FCF64800680D30DC
:10D0C000F4490860F44A0498811A904272D043DC13
:10D0D000F24A811A90426ED028DCF14A811A9042BD
:10D0E0006AD016DCEF4A811A904266D00CDC012827
:10D0F00064D0ED494018002861D0EC494018002860
:10D1000001D001F0ADF9EFE3012959D00229F8D19E
:10D1100096E1202955D004DC012953D00B29F0D108
:10D12000FEE35E294FD05F29EBD186E1081F0E2870
:10D13000E7D243007B449B885B009F448E016B08D1
:10D140006B086B0859007301700174018901930128
:10D150006F0675067A067F06FF222332881A9142EF
:10D160007ED023DCD24A881A91427AD010DC34294E
:10D1700078D006DC012976D0072975D00A29C0D1DC
:10D18000F0E0352901D100F0BFFF3629B9D1A4E084
:10D190000728B6D243007B449B885B009F443A0833
:10D1A00098013A08A501A601A905E602801E0F28EC
:10D1B000A7D209E0E9E3BAE047E1E7E32AE18FE13A
:10D1C000FEE3FEE3FEE333E143007B449B885B0028
:10D1D0009F440D0421084D01200820084E015101F3
:10D1E0005C018A0178058805200820080C04A9063E
:10D1F0002078012804D10C21AE48FFF799F96BE0A3
:10D200002078312805D02078322802D020783328A1
:10D2100004D101212046FFF78BF95DE0207830280A
:10D220005AD17B209B49096808709A480068401CC5
:10D230009849086028466A1CD5B2FFF74FF92220AA
:10D2400094490968087093480068401C9149086037
:10D250002078096808708F480068401C8D4904E0F8
:10D2600083E22DE1FEE3FEE3FEE30860222009688D
:10D27000087088480068401C864908602C200968AE
:10D28000087084480068401C8249086028466A1C6F
:10D29000D5B2FFF723F922207E49096808707D483E
:10D2A0000068401C7B49086020780968087079484C
:10D2B0000068401C7749086022200968087075489A
:10D2C0000068401C734908607D2009680870714837
:10D2D0000068401C6F49086013E722206D49096807
:10D2E00008706C480068401C6A4908600020029081
:10D2F00010E0714A0299505C03226649096801F006
:10D30000ADFA64480068C01C624908600298401C7D
:10D31000C0B2029002980C28EBDB22205D4909681C
:10D3200008705C480068401C5A490860E9E6222001
:10D3300058490968087057480068401C55490860FA
:10D340005E4800780968087052480068401C5149DE
:10D3500008602220096808704E480068401C4D494A
:10D360000860CEE67B204B49096808704948006890
:10D37000401C4849086028466A1CD5B2FFF7AEF841
:10D38000222044490968087042480068401C41490D
:10D3900008604A480078096808703E480068401CE8
:10D3A0003C4908602220096808703A480068401C1F
:10D3B000384908602C200968087036480068401C0D
:10D3C0003449086028466A1CD5B2FFF787F8222046
:10D3D0003049096808702F480068401C2D490860D2
:10D3E00036484078096808702A480068401C294976
:10D3F000086022200968087026480068401C2549FA
:10D4000008607D200968087022480068401C214996
:10D41000086076E601212046FFF78AF871E601F000
:10D42000D1FF6EE66DE601212046FFF781F868E640
:10D4300001212046FFF77CF863E604F0B5FB60E6C7
:10D4400001212046FFF774F85BE602F0B1FC58E6D4
:10D4500001212046FFF76CF853E601212046FFF733
:10D4600067F84EE601212046FFF762F849E600BF63
:10D4700002F056FA45E6641C2078012801D1641CAC
:10D4800003E02078022800D1641C3AE6204602F02E
:10D490004BF836E6140200201A2000000820000095
:10D4A000481F0000431F00002DF8FFFF72ECFFFF34
:10D4B0001B0100001A0F0020B405002029030020E2
:10D4C0000598F9F7A1FA0078019004F033FE18E608
:10D4D000FE48F9F799FA0078019004F02BFE10E667
:10D4E000059802F085FE0CE60BE600BF7B20F849AC
:10D4F00009680870F6480068401CF549086028462D
:10D500006A1CD5B2FEF7EAFF2220F14909680870CB
:10D51000EF480068401CEE4908600598F9F774FA76
:10D5200000780190EA480168019801F067F9074620
:10D53000E7480068C019E6490860222009680870B9
:10D54000E3480068401CE24908602C200968087024
:10D55000DF480068401CDE49086028466A1CD5B2D6
:10D56000FEF7BCFF2220DA4909680870D848006835
:10D57000401CD7490860D7490878D549096801F0A7
:10D580003DF90746D2480068C019D14908602220F9
:10D5900009680870CE480068401CCD4908602C20FE
:10D5A00009680870CA480068401CC94908602846D4
:10D5B0006A1CD5B2FEF792FF2220C549096808709F
:10D5C000C3480068401CC24908600598F9F71CFA76
:10D5D000007819280ADCBF4909788900BE4A5058EA
:10D5E000BB49096801F00AF9074609E0B949097819
:10D5F0008900BA4A5058B649096801F0FFF8074651
:10D60000B3480068C019B249086022200968087050
:10D61000AF480068401CAE4908607D20096808706A
:10D62000AB480068401CAA490860AD484078002813
:10D630007EDD01257D2009680870A5480068401C32
:10D64000A34908602C22A749A1480068F9F73CF9D2
:10D650009F4800682C309E4908607B20096808704C
:10D660009B480068401C9A49086028466D1CFEF7DC
:10D6700035FF222096490968087095480068401CCB
:10D6800093490860084601681A2001F0B7F8074678
:10D690008F480068C0198E49086022200968087008
:10D6A0008B480068401C8A4908602C200968087073
:10D6B00087480068401C8649086028466D1CFEF7B4
:10D6C0000DFF222082490968087081480068401CCB
:10D6D0007F4908607F4908787D49096801F08EF824
:10D6E00007467B480068C01979490860222009680C
:10D6F000087077480068401C754908602C2009684C
:10D70000087073480068401C7149086028466D1C09
:10D71000FEF7E4FE22206E49096808706C48006834
:10D72000401C6B4908606B49097889006B4A00E02E
:10D730001AE050586649096801F060F807466448E5
:10D740000068C019624908602220096808706048B2
:10D750000068401C5E4908607D20096808705C48CC
:10D760000068401C5A490860CBE400BF7B20584940
:10D770000968087056480068401C554908602846EA
:10D780006A1CD5B2FEF7AAFE22205149096808702A
:10D790004F480068401C4E4908600598F9F734F975
:10D7A000007801904A480168019801F027F807467F
:10D7B00047480068C0194649086022200968087077
:10D7C00043480068401C424908602C2009680870E2
:10D7D0003F480068401C3E49086028466A1CD5B294
:10D7E000FEF77CFE22203A49096808703848006834
:10D7F000401C37490860374908783549096800F006
:10D80000FDFF074632480068C019314908602220F0
:10D81000096808702E480068401C2D4908602C20BB
:10D82000096808702A480068401C29490860284691
:10D830006A1CD5B2FEF752FE2220254909680870FD
:10D8400023480068401C224908600599887A2049CD
:10D85000096800F0D3FF07461D480068C0191C493D
:10D86000086022200968087019480068401C18499F
:10D8700008607D200968087015480068401C14493C
:10D8800008601748407800287EDD01257D20096862
:10D8900008700F480068401C0D4908602C2211498F
:10D8A0000B480068F9F710F8094800682C3008495F
:10D8B00008607B200968087005480068401C04491E
:10D8C000086028466D1CFEF709FE0EE06A10002075
:10D8D0001402002054030020B4090020140A002080
:10D8E000F4020020CC050020FFE12220F74909685E
:10D8F0000870F6480068401CF44908600846016852
:10D900001A2000F07BFF0746F0480068C019EF4975
:10D910000860222009680870EC480068401C00E09C
:10D92000EEE3EA4908602C2009680870E7480068BF
:10D93000401CE649086028466D1CFEF7CFFD2220FA
:10D94000E24909680870E1480068401CDF49086046
:10D95000DF490878DD49096800F050FF0746DB48D9
:10D960000068C019D9490860222009680870D748A2
:10D970000068401CD54908602C2009680870D3480D
:10D980000068401CD14902E02FE05DE217E2086028
:10D9900028466D1CFEF7A2FD2220CC4909680870BC
:10D9A000CA480068401CC9490860CA49887AC74902
:10D9B000096800F023FF0746C4480068C01902E068
:10D9C00098E1CBE100E2C1490860222009680870B3
:10D9D000BE480068401CBD4908607D200968087089
:10D9E000BA480068401CB949086075E474E4002036
:10D9F000B9490870B9480021016041608160012285
:10DA0000B5480078411CB44B01901970B3490A54D1
:10DA10007B20AE4909680870AC480068401CAB49DF
:10DA2000086028466A1CD5B2FEF758FD2220A74997
:10DA300009680870A5480068401CA449086022785D
:10DA4000A5480078411CA44B01901970A3490A54C1
:10DA50002078641C9D49096800F0D0FE07469B4869
:10DA6000006802E0DBE1F4E1F9E1C01997490860E0
:10DA700022200968087095480068401C9349086096
:10DA80002C200968087091480068401C8F49086084
:10DA900028466A1CD5B2FEF721FD22208B49096871
:10DAA00008708A480068401C8849086022788A48C3
:10DAB0000078411C884B0190197088490A542078DD
:10DAC0008249096800F09AFE074680480068C0193C
:10DAD0007E4908602220096808707C480068401C64
:10DAE0007A4908602C200968087078480068401C52
:10DAF0007649086028466A1CD5B2FEF7EFFC222062
:10DB000072490968087071480068401C6F490860D4
:10DB10002078012802D0112863D139E0002002903A
:10DB200029E06F4801680298C140C807C00F00286B
:10DB30001DD0029E711CC9B20E4608466349096891
:10DB400000F05CFE074664490878411C624A117087
:10DB500062490E545D480068C0195C4908602D2078
:10DB60000968087059480068401C584908600298C4
:10DB7000401CC0B2029002982028D2DB53480068B3
:10DB8000401E5249086008340620534908703EE0A0
:10DB900031204E49096808704C480068401C4B49C8
:10DBA000086034200968087048480068401C4749EC
:10DBB0000860012248480078411C474B01901970C9
:10DBC00046490A54042218460078411C01901970F5
:10DBD00042490A5418460078401C19460870083417
:10DBE00015E0641C3020394909680870374800681E
:10DBF000401C3649086000203849374A127888545A
:10DC000035480078C01C34490870E41D00BF00BFCF
:10DC100022202E49096808702C480068401C2B49B6
:10DC200008602C200968087028480068401C2749B3
:10DC3000086028466A1CD5B2FEF750FC2220234912
:10DC40000968087021480068401C204908600026C7
:10DC50001EE0227820480078411C1F4B019019706B
:10DC60001E490A542078641C02221849096800F0F1
:10DC7000F5FD16480068801C144908602D200968CD
:10DC8000087012480068401C10490860701CC6B239
:10DC9000062EDEDB0D480068401E0C49086022207D
:10DCA0000968087009480068401C084908607D2020
:10DCB0000968087005480068401C0449086004F0C1
:10DCC0008FFECDE302F06CFCCAE3000014020020DA
:10DCD000540300209E1000200C020020C0050020EC
:10DCE000F002002000F038FCBAE3207802F09EFE3B
:10DCF000B6E3B5E32220FE4909680870FC480068D5
:10DD0000401CFB490860002618E07000801DF9499E
:10DD10004018F749096802780A7040784870F4485A
:10DD20000068801CF24908602E2009680870F048DD
:10DD30000068401CEE490860701CC6B2032EE4DB8C
:10DD4000EB480068401EEA49086022200968087014
:10DD5000E7480068401CE649086081E32220E44966
:10DD600009680870E2480068401CE1490860002624
:10DD700015E0E149885DDE49096800F03FFD07468E
:10DD8000DB480168C819DA4908602E200968087064
:10DD9000D7480068401CD6490860701CC6B2032EE4
:10DDA000E7DBD3480068401ED1490860222009689B
:10DDB0000870CF480068401CCD49086050E301213D
:10DDC0002046FEF7B5FB4BE32220C94909680870DD
:10DDD000C7480068401CC649086000260EE0C448D9
:10DDE0000068C01CC24908602E2009680870C0483D
:10DDF0000068401CBE490860701CC6B2042EEEDBF1
:10DE0000BB480068401EBA490860222009680870B3
:10DE1000B7480068401CB649086021E300BF0121F3
:10DE20002046FEF785FB1BE31821B448FEF780FB74
:10DE300016E301212046FEF77BFB11E30C21AF48DE
:10DE40001838FEF775FB0BE301212046FEF770FB47
:10DE500006E30C21A9480C38FEF76AFB00E32078A2
:10DE6000312859D17B20A24909680870A048006870
:10DE7000401C9F49086028466A1CD5B2FEF72EFB5D
:10DE800022209B490968087099480068401C9849FD
:10DE9000086030200968087095480068401C944963
:10DEA000086022200968087091480068401C904969
:10DEB00008602C20096808708D480068401C8C4957
:10DEC000086028466A1CD5B2FEF708FB2220884964
:10DED0000968087086480068401C854908600A2265
:10DEE0008649183982480068F8F758FD804800686C
:10DEF0000A307F4908602220096808707C48006861
:10DF0000401C7B4908607D200968087078480068DB
:10DF1000401C7749086005E031202070012120462F
:10DF2000FEF706FB9CE27B20714909680870704887
:10DF30000068401C6E49086028466A1CD5B2FEF78E
:10DF4000CDFA22206A490968087069480068401CB7
:10DF5000674908606078096800F050FC074664482B
:10DF60000068C0196249086022200968087060488A
:10DF70000068401C5E4908602C20096808705C48F5
:10DF80000068401C5A49086028466A1CD5B2FEF752
:10DF9000A5FA222056490968087055480068401CB7
:10DFA000534908602078096800F028FC074650486B
:10DFB0000068C0194E4908602220096808704C4862
:10DFC0000068401C4A4908602C20096808704848CD
:10DFD0000068401C4649086028466A1CD5B2FEF716
:10DFE0007DFA222042490968087041480068401CB7
:10DFF0003F490860A078096800F000FC07463C48EB
:10E000000068C0193A490860222009680870384839
:10E010000068401C364908602C20096808703448A4
:10E020000068401C3249086028466A1CD5B2FEF7D9
:10E0300055FA22202E49096808702D480068401CB6
:10E040002B490860E078096800F0D8FB07462848AB
:10E050000068C01926490860222009680870244811
:10E060000068401C224908602C200968087020487C
:10E070000068401C1E49086028466A1CD5B2FEF79D
:10E080002DFA22201A490968087019480068401CB6
:10E0900017490860002615E0311D605C0222144912
:10E0A000096800F0DBFB12480068801C104908601A
:10E0B0002D20096808700E480068401C0C49086053
:10E0C000701CC6B2062EE7DB09480068401E0849EE
:10E0D000086022200968087005480068401C04494F
:10E0E00008607D200968087001480068401C08E04D
:10E0F0001402002000640008A7020020260F002060
:10E10000A9E1E1490860ABE17B20DF4909680870BB
:10E11000DD480068401CDC49086028466A1CD5B20E
:10E12000FEF7DCF92220D84909680870D648006853
:10E13000401CD54908600C22D449D3480068F8F740
:10E140002DFCD14800680C30CF49086022200968B6
:10E150000870CD480068401CCB4908602C20096835
:10E160000870C9480068401CC749086028466A1CF6
:10E17000D5B2FEF7B3F92220C34909680870C24836
:10E180000068401CC04908600C22C0490C31BE48E0
:10E190000068F8F703FCBC4800680C30BA49086016
:10E1A000222009680870B8480068401CB649086019
:10E1B0002C2009680870B4480068401CB249086007
:10E1C00028466A1CD5B2FEF789F92220AE490968B3
:10E1D0000870AD480068401CAB4908601822AB4984
:10E1E0001831A9480068F8F7D9FBA748006818302B
:10E1F000A5490860222009680870A3480068401CEF
:10E20000A14908607D20096808709F480068401C8B
:10E210009D49086024E1641C9D499E48F8F7BAFBBB
:10E220007B2099490968087097480068401C964906
:10E23000086028466A1CD5B2FEF750F922209249A0
:10E240000968087090480068401C8F490860207871
:10E25000641C096800F0D2FA07468B480068C019B0
:10E260008949086022200968087087480068401CB6
:10E27000854908602C200968087083480068401CA4
:10E280008149086028466A1CD5B2FEF727F922208A
:10E290007D49096808707C480068401C7A4908601C
:10E2A0002078096800F0AAFA074677480068C01984
:10E2B0007549086022200968087073480068401C8E
:10E2C000714908602C20096808706F480068401C7C
:10E2D0006D49086028466A1CD5B2FEF7FFF8222077
:10E2E00069490968087068480068401C6649086008
:10E2F00000262178641C012906D0112930D0182964
:10E3000041D019294CD13FE00020029023E0701C3D
:10E31000C6B22078641C5C49096800F06FFA0746B1
:10E3200059480068C01958490860207800280AD068
:10E33000032E08D02D200968087053480068401C3F
:10E340005149086003E00320801B241806E002986E
:10E35000401CC0B2029002980328D8DB00BF2AE01C
:10E36000312049490968087047480068401C4649FF
:10E37000086034200968087043480068401C42491E
:10E380000860E41C17E000BF20783F49096800F0EE
:10E3900035FA3D480068401C3B490860E41C0AE02F
:10E3A000302039490968087037480068401C3649F0
:10E3B0000860E41C00BF00BF2220334909680870D0
:10E3C00031480068401C304908602C2009680870FA
:10E3D0002D480068401C2C49086028466A1CD5B2AC
:10E3E000FEF77CF822202849096808702648006852
:10E3F000401C25490860002615E02078641C022294
:10E400002149096800F02AFA1F480068801C1E494B
:10E4100008602D20096808701B480068401C1A49D4
:10E420000860701CC6B2062EE7DB17480068401E65
:10E430001549086022200968087013480068401CCC
:10E44000114908607D20096808700F480068401C69
:10E450000D49086004E001212046FEF769F800BF7D
:10E4600000BF7D2008490968087007480068401C03
:10E470000549086000200968087003480068401CCE
:10E480000149086007B0F0BD140200200E0F002003
:10E49000BB030000F9050020FEB504460F4601202D
:10E4A0000190002602F0C6FD61792279090211432C
:10E4B00008460422694600F0D1F90422694625483D
:10E4C0000068F8F76BFA234800680D3021490860AE
:10E4D0007B20096808701F480068401C1D490860BF
:10E4E00017E001994A1CD2B208460192FDF7F6FFE7
:10E4F000214608318819FEF7B3FD05462C20154941
:10E500000968087013480068401C124908607019B7
:10E51000C6B2BE42E5D10F480068401E0D490860F2
:10E520007D20096808700B480068401C0949086094
:10E530007D200968087007480068401C054908608C
:10E5400000200968087003480068401C0149086001
:10E55000FEBD000014020020F8B5012400257B2038
:10E5600094490968087093480068401C9149086004
:10E5700085E01A206843904947181A2068438F495C
:10E58000411800912046621CD4B2FDF7A7FF22205B
:10E5900088490968087087480068401C85490860F8
:10E5A0003878096800F02AF9064682480068801920
:10E5B000804908602220096808707E480068401C75
:10E5C0007C4908602C20096808707A480068401C63
:10E5D000784908602046621CD4B2FDF77FFF2220F4
:10E5E00074490968087073480068401C71490860E4
:10E5F0000099887A03226F49096800F02FF96D4865
:10E600000068C01C6B4908602220096808706948CE
:10E610000068401C674908602C200968087065483C
:10E620000068401C634908602046621CD4B2FDF7B4
:10E6300055FF22205F49096808705E480068401C49
:10E640005C490860032208460168002000F006F9D2
:10E6500058480068C01C57490860222009680870A3
:10E6600054480068401C534908602C200968087011
:10E6700050480068401C4F490860681CC5B25048AB
:10E680000078A84200DD74E700257FE04D4F4E483A
:10E6900000902046621CD4B2FDF720FF222045499D
:10E6A0000968087043480068401C4249086038788F
:10E6B000096800F0A3F806463E48006880193D4905
:10E6C00008602220096808703A480068401C3949EF
:10E6D00008602C200968087036480068401C3549DD
:10E6E00008602046621CD4B2FDF7F8FE22203149B2
:10E6F000096808702F480068401C2E49086000997E
:10E70000887A03222B49096800F0A8F82948006894
:10E71000C01C284908602220096808702548006844
:10E72000401C244908602C200968087021480068B2
:10E73000401C204908602046621CD4B2FDF7CEFE82
:10E7400022201C49096808701A480068401C1949B1
:10E750000860032208460168002000F07FF8154891
:10E760000068C01C1349086022200968087011481D
:10E770000068401C0F4908602C20096808700D488B
:10E780000068401C0B490860681CC5B20C48407802
:10E79000A84200DD7AE707480068401E0549086086
:10E7A0007D200968087003480068401C0149086022
:10E7B000F8BD0000140200200A1000206A1000209A
:10E7C000F40200203E1000209E10002010B50446E8
:10E7D000224602490248FEF75FFC10BD6A10002085
:10E7E0003E21000010B5002202490348FEF754FC08
:10E7F00010BD00006A100020D3070000F0B5B3B0D0
:10E8000006460C4600253296329E002E1FD00EE0A2
:10E810000A213046F8F711F93031A8006A46115044
:10E820000A213046F8F709F9064632966D1C3298EF
:10E830000028EDD1002707E0E81B401E8000694654
:10E84000085C2070641C7F1CAF42F5D303E03020CD
:10E850002070641C0125E8B233B0F0BD70B50646E7
:10E860000D4614460EE00A213046F8F7E6F830313E
:10E8700028192038C1770A213046F8F7DEF8064615
:10E88000601EC4B2002CEEDC70BD002100E0491C0B
:10E890008142FCD370470000F0B5CDB0064600279A
:10E8A000002001904122314608311BA8F8F70CF8EE
:10E8B000707A31282BD0322870D1312018A90873F2
:10E8C00001231BAA0021C82000F0D4FA10231CAA9F
:10E8D0000021C92000F0CEFA1E2320AA0232002116
:10E8E000D92000F0C7FA0A2328AA02320021F72013
:10E8F00000F0C0FA59205049087001230A4600214F
:10E90000184600F0B7FA781CC7B230258DE0002415
:10E9100011E02146392251430846C830134602AA65
:10E92000012100F0A7FA6846007A312801D1781C4D
:10E93000C7B2601CC4B2414800788442E9DB3F485A
:10E940000078874201D131256DE000241CE021468A
:10E95000392251430846C830134602AA012100F06B
:10E9600089FA6846007A31280CD10B2206A90131B8
:10E9700020A80230F7F74CFF002803D132250120F0
:10E98000019005E0601CC4B22C4800788442DEDBB4
:10E9900000BF0198002846D100243FE044E0214612
:10E9A000392251430846C830134602AA012100F01B
:10E9B00061FA6846007A31282ED0312018A90873F0
:10E9C0002146392251430846C83001231BAA0021A1
:10E9D00000F050FA2146392251430846C93010232D
:10E9E0001CAA002100F046FA21463922514308466C
:10E9F000D9301E2320AA0232002100F03BFA214622
:10EA0000392251430846F7300A2328AA023200214E
:10EA100000F030FA302505E0601CC4B207480078E9
:10EA20008442BCDB00BF00E000BF00BF04480570AB
:10EA300028464DB0F0BD00000D0F00200B03002054
:10EA40002903002010B566480068664909684840F7
:10EA500000283DD06248006862490860604800684C
:10EA6000002805D110210920C006F9F759FA2FE036
:10EA70005B480068012805D110210920C006F9F77C
:10EA800051FA25E001205849087058480078584943
:10EA90000870002057490880574908805349487832
:10EAA0000A21F7F7D4FFCCB2012C04D0022C08D0F5
:10EAB000322C0CD100BF10210920C006F9F730FA22
:10EAC00005E010210920C006F9F72CFA00BF00BFAD
:10EAD00044480068012875D947480088002845D176
:10EAE0004249414A1278885C0A21F7F7B0FF42494F
:10EAF0000880084600880A2148433F4908800846A4
:10EB000000881E2821D004DC0A280ED014282CD11D
:10EB100013E0282821D0322827D132213748008815
:10EB2000F7F795FF344908801FE032213448008808
:10EB3000F7F78DFF3049088017E03221314800880F
:10EB4000F7F785FF2C4908800FE032212E48008816
:10EB5000F7F77DFF2849088007E032212B4800881D
:10EB6000F7F775FF2449088000BF00BF21480088DF
:10EB7000401C80B21F4908801F49098888422EDB4B
:10EB800019480078401CC0B2174908701849097824
:10EB9000884202DD0120144908701449124A127893
:10EBA000885C0A21F7F753FFCCB2012C04D0022C69
:10EBB00009D0322C0DD100BF10210920C006F9F771
:10EBC000AFF906E00BE010210920C006F9F7AAF919
:10EBD00000BF00BF0020074908800749088010BD1A
:10EBE000140100200402002000020020E0010020A7
:10EBF00001020020080200200A020020EC0100208F
:10EC0000EA010020E8010020E6010020EE010020DA
:10EC100070B58B480078002808D0894908780A2107
:10EC2000F7F715FF401E8749087002E0002085496C
:10EC300008708348801CF7F7E7FE0078002804D1AD
:10EC4000804800780A307F4908707E4800787E4905
:10EC500009784840002817D07A4800787A49087027
:10EC600001207A490870774800780A21484378499A
:10EC7000085C784908700020774908807749088047
:10EC80000021012004F0DEFD7448008800285CD1DA
:10EC90006C48007809280EDD6A4800780A2855DBA0
:10ECA000684800780A21484369494018674909784B
:10ECB000405C29284AD0634909780A225143644AB2
:10ECC0008918624A1278885C0A21F7F7C0FE634906
:10ECD0000880084600880A214843604908800846A1
:10ECE00000881E2821D004DC0A280ED014282CD13C
:10ECF00013E0282821D0322827D132215848008813
:10ED0000F7F7A5FE554908801FE0322155480088D5
:10ED1000F7F79DFE5149088017E0322152480088DC
:10ED2000F7F795FE4D4908800FE032214F480088E3
:10ED3000F7F78DFE4949088007E032214C480088EA
:10ED4000F7F785FE4549088000BF56E000250124FD
:10ED500038E03C4909780A2251433D4A89183B4A28
:10ED60001278885C0A21F7F772FE06460A20704383
:10ED700086B20A2E06D0142E0BD01E2E10D0282EAE
:10ED80001CD114E0322137480088F7F760FE86B2C4
:10ED900014E0322134480088F7F759FE86B20DE0BE
:10EDA000322132480088F7F752FE86B206E032215F
:10EDB0002F480088F7F74BFE86B200BF00BF3546EC
:10EDC000601CC4B2234800788442C2DB322068430E
:10EDD000264909888900884203DB00201F490880F2
:10EDE0000BE02249098888003221F7F730FE1B49E1
:10EDF000088008460088401B088017480088401C8F
:10EE000080B21549088015490988884216DB0F48E9
:10EE10000078401CC0B20D4908700E49097888423C
:10EE200002DD01200949087000210848007804F03B
:10EE300009FD0020084908800849088070BD0000CD
:10EE4000B810002010010020F0010020F101002086
:10EE500018010020F2010020F4010020F60100203A
:10EE6000EC010020EA010020E8010020E60100207A
:10EE7000EE010020FFB583B004460E461F46002079
:10EE80000290002501900090029030E02046E117AA
:10EE9000C90E0918C902090C01910198401C80B2E1
:10EEA000019001984001001B80B200900298381A2E
:10EEB00085B20098854200DD009D002E06D12B46CC
:10EEC0002146AE20059A00F06DF807E0002E05D02F
:10EED0002B462146AE20059A00F00EF80298401904
:10EEE00080B20290601984B205984019059002988A
:10EEF000B842CBDB07B0F0BD7FB582B00446154603
:10EF00001E4600BF0121C9031E48F9F7B1F90028C8
:10EF1000F8D11D48047003A81C4908601C4805600E
:10EF20001C490E7001201C4908701C490870002102
:10EF30001448F9F7EBF90120400300230222009066
:10EF4000114801780F48F9F701FA022014490870B6
:10EF500000BF12480078032803D011480078002829
:10EF6000F7D100BF0121C9030648F9F781F900284C
:10EF7000F8D120210348F9F75DF90020074908700E
:10EF800006B070BD005400403E0300204003002046
:10EF900044030020480300203D0300203C030020E0
:10EFA000AB0300207FB582B0054616461C4600BF65
:10EFB0000121C9032848F9F75BF90028F8D120217D
:10EFC0002648F8F7ADFF2648057003A825490860D4
:10EFD0002548066025490C7000202549087001204D
:10EFE0002449087000211C48F9F790F901204003DA
:10EFF0000090A01CC2B20023194801781648F9F706
:10F00000A5F902201C49087000BF1A48007803289F
:10F0100003D0194800780028F7D100BF0121C903A7
:10F020000D48F9F725F90028F8D120210A48F9F709
:10F0300001F90020019002E00198401C01900F4965
:10F0400001988842F8D320210448F8F76BFF00208C
:10F050000849087006B070BD005400400004004824
:10F060003E0300204003002044030020480300200A
:10F070003D0300203C030020AB030020400D0300B3
:10F08000F0B591B006460F460020109000250024F0
:10F09000029001900AE13046012189024118496835
:10F0A000012292028218914203D101218902411862
:10F0B000486000BF012080023018416801208002B2
:10F0C00030184068401C01229202B2185060087843
:10F0D0000F900F982C2811D03A280BD07B2802D003
:10F0E0007D287DD189E00CA803900298401CC0B215
:10F0F0000290DAE004A803900024D6E0002D14D199
:10F10000A01EC1B204A80130FDF738FA81B26B48E5
:10F110004170090A81708178427808021043684979
:10F12000884260D0022010905DE0012D08D1A01E21
:10F13000C1B204A80130FDF721FA6049C87052E05D
:10F14000022D0BD1A01EC1B204A80130FDF716FAA2
:10F1500081B25A480171090A417144E0052259A15E
:10F160000CA8F7F755FB002808D1A01EC1B204A8CF
:10F170000130FDF703FA5149887134E0052253A1AB
:10F180000CA8F7F745FB002808D1A01EC1B204A8BF
:10F190000130FDF7F3F94949887124E005224DA1BA
:10F1A0000CA8F7F735FB002808D1A01EC1B204A8AF
:10F1B0000130FDF7E3F94149C87114E0214604A884
:10F1C000FDF720FE00280CD03A883C490831501841
:10F1D000224604A9F7F778FB38880019388002E046
:10F1E0004DE002201090052D02DA681CC5B200E047
:10F1F00004250CA80390002457E0032D1CDB019884
:10F20000002819D1002C17D0214604A8FDF7FAFDDB
:10F2100000280ED03A88294908315018224604A9FE
:10F22000F7F752FB388800193880681CC5B20024F3
:10F230000FE0022010900CE0022D0AD1A01EC1B2F6
:10F2400004A80130FDF79AF981B21C480171090A3E
:10F2500041710298401EC0B202900298002805D168
:10F260000198002802D10120109007E002980028A0
:10F2700004D10198012801D10320109015E000BFAE
:10F280000298002802D1022010900BE003990F98F9
:10F2900008700398401C0390601CC4B23C2C01DD34
:10F2A0000220109000BF00BF00BF00BF10980028D0
:10F2B00000D1F0E6109811B0F0BD0000870B0020DF
:10F2C0002823000022496478220000002269647823
:10F2D00022000000226C6D74220000000246002013
:10F2E000491C05E00B781370491C521C431CD8B212
:10F2F0000B78222BF6D1704737B58CB004460D46FB
:10F30000142106A8F7F748FB142101A8F7F744FBDE
:10F3100003212046FDF732F9C1B208A80173032189
:10F32000201DFDF72BF9C1B208A841730321204627
:10F330000830FDF723F9C1B208A8817303212046E4
:10F340000C30FDF71BF9C1B208A8C173027B1CA1E8
:10F3500006A8F6F771FF06A901A8F7F7A9FA0EA902
:10F3600001A8F7F7A5FA08A8427B15A106A8F6F7A9
:10F3700063FF06A901A8F7F79BFA0EA901A8F7F702
:10F3800097FA08A8827B0EA106A8F6F755FF06A9F2
:10F3900001A8F7F78DFA0EA901A8F7F789FA08A8CE
:10F3A000C27B07A106A8F6F747FF06A901A8F7F751
:10F3B0007FFA01A92846F7F705FA0FB030BD000023
:10F3C00025640000F0B59BB00126002001900025C7
:10F3D00013E02946392251430846C830134602AA91
:10F3E0000121FFF747FD6846007A312803D10198D3
:10F3F000401CC0B20190681CC5B2494800788542E3
:10F40000E7DB7B2047490968087046480068401CD4
:10F4100044490860002470E02146392251430846DF
:10F42000C830134602AA0121FFF724FD6846007A7E
:10F43000312860D13046721CD6B2FDF74FF8222039
:10F4400038490968087037480068401C3549086029
:10F4500002A80130F6F7B0FFC7B2002F08DD302058
:10F460003049096808702F480068401C2D49086021
:10F4700022202C49096808702A480068401C294944
:10F4800008602C200968087026480068401C25493F
:10F4900008603046721CD6B2FDF720F822202149C0
:10F4A000096808701F480068401C1E49086006A8CB
:10F4B0000130F6F781FFC7B2002F0BDD1E2206A92F
:10F4C000013118480068F7F769FA164800681E30DD
:10F4D000144908602220134909680870114800681F
:10F4E000401C104908602C20096808700D4800680D
:10F4F000401C0C490860601CC4B209480078844272
:10F500008ADB08480068401E064908607D200968BB
:10F51000087004480068401C024908601BB0F0BD38
:10F520000B03002014020020F1B586B00024012650
:10F5300002A80699FFF7D2FE05900598801C2018B6
:10F54000C4B202A80599FDF719F8C0B2019001985C
:10F55000012823D12220F04909680870EE4800688C
:10F56000401CED49086000240CE0EC48005D3030A0
:10F57000E94909680870E8480068401CE6490860E5
:10F58000601CC4B2072CF0DB2220E3490968087034
:10F59000E1480068401CE0490860AAE106980119AA
:10F5A00002A8FFF79BFE05900598801C2018C4B2A6
:10F5B00002A80599FCF7E2FFC5B27B20D64909688D
:10F5C0000870D5480068401CD34908603046721C5A
:10F5D000D6B2FCF783FF2220CF4909680870CE48D5
:10F5E0000068401CCC490860681ECC49085C30307B
:10F5F000C94909680870C8480068401CC6490860C5
:10F60000222009680870C4480068401CC24908608C
:10F61000032D7DD02C2009680870BF480068401C6D
:10F62000BD4908603046721CD6B2FCF757FF2B006C
:10F63000FCF788FE082A052B2A5179FE9F2A2220F2
:10F64000B54909680870B4480068401CB2490860B0
:10F65000B249487AB0490968FFF7D0F80446AE4885
:10F6600000680019AC490860222009680870AA489F
:10F670000068401CA84908607D2009680870A648F9
:10F680000068401CA449086029E12220A2490968B9
:10F690000870A1480068401C9F4908609F49887A0B
:10F6A0009D490968FFF7AAF804469B4800680019BD
:10F6B0009949086022200968087097480068401C32
:10F6C000954908607D200968087093480068401CCF
:10F6D0009149086003E122208F49096808708E482B
:10F6E0000068401C8C4908608C49C87A8A490968BE
:10F6F000FFF784F8044688480068001986490860C6
:10F7000022200968087084480068401C824900E093
:10F71000E6E008607D20096808707F480068401CAA
:10F720007D490860DBE022207B49096808707A483F
:10F730000068401C784908607849087B7649096868
:10F74000FFF75CF8044674480068001972490860C5
:10F7500022200968087070480068401C6E490860E3
:10F760007D20096808706C480068401C6A49086080
:10F77000B5E0222068490968087067480068401CA5
:10F78000654908606549C87B63490968FFF736F831
:10F7900004466148006800195F4908602220096832
:10F7A00008705D480068401C5B4908602C200968AF
:10F7B000087059480068401C5749086001272CE030
:10F7C0003046721CD6B2FCF789FE222052490968E5
:10F7D000087051480068401C4F4908604F490F317C
:10F7E000C85D4D490968FFF709F804464A480068B2
:10F7F00000194949086022200968087046480068D5
:10F80000401C454908602C2009680870424800687F
:10F81000401C41490860781CC7B2042FD0DB3E4829
:10F820000068401E3C4908607D200968087000E0BF
:10F8300005E039480068401C374908604FE0222045
:10F8400035490968087034480068401C324908602E
:10F850003249487B30490968FEF7D0FF04462E48FC
:10F86000006800192C4908602220096808702A489D
:10F870000068401C284908602C2009680870264848
:10F880000068401C244908603046721CD6B2FCF760
:10F8900025FE22202049096808701F480068401C86
:10F8A0001D4908601D49887B1B490968FEF7A6FFB2
:10F8B00004461948006800191749086022200968A1
:10F8C000087015480068401C134908607D200968CD
:10F8D000087011480068401C0F49086000BF08E02C
:10F8E0007D200D49096808700B480068401C0A49D2
:10F8F00008607D2008490968087007480068401CB6
:10F900000549086000200968087003480068401C29
:10F910000149086007B0F0BD140200204405002032
:10F9200070B501245248007801280DD17B2051493F
:10F93000096808704F480068401C4E49086020461E
:10F94000621CD4B2FCF7CAFD22204A49096808703B
:10F9500048480068401C474908600A461168126818
:10F96000521C444E3260424A10780122FEF776FF64
:10F97000222031460968087030460068401C314634
:10F9800008603B48007801285CD12C200968087089
:10F9900030460068401C314608602046621CD4B2E4
:10F9A000FCF79CFD2220314609680870304600684B
:10F9B000401C314608602E4AD179927909021143E0
:10F9C00008463C21F7F743F806462A4801683046C6
:10F9D000FEF714FF054627480068401925490860CE
:10F9E00022200968087023480068401C21490860EB
:10F9F0002C20096808701F480068401C1D490860D9
:10FA00002046621CD4B2FCF769FD2220194909681E
:10FA1000087018480068401C1649086008460168CC
:10FA200015480078FEF7EAFE0546124800684019BE
:10FA3000104908602220096808700E480068401CC0
:10FA40000C4908600A480078012808D17D2009493E
:10FA50000968087007480068401C064908600448A7
:10FA60000078022802D101200149087070BD000011
:10FA7000EE0000201402002005030020F0B585B040
:10FA8000044600BF00260020039000BF204612302D
:10FA9000F6F7BAFF2330417800780F02074320467B
:10FAA0001230F6F7B1FF21300771390A4171204653
:10FAB0001230F6F7A9FF0021233001704170204673
:10FAC0001230F6F7A1FFC078401E8E490968C14088
:10FAD00088B200902046F6F797FF0078401C02900D
:10FAE000002531E000982841C007C00F002815D13B
:10FAF00020461230F6F788FF23304178027808025A
:10FB000010430121A940084387B220461230F6F77E
:10FB10007BFF23300770390A417013E02046123012
:10FB2000F6F772FF2330417800780F020743012077
:10FB3000A840874320461230F6F766FF233007704F
:10FB4000390A4170681CC5B220461230F6F75CFFD6
:10FB50000078A842C6DC20461230F6F755FF233065
:10FB600041780278080210430190002509E00198CD
:10FB70002841C007C00F002801D0681CC6B2681C0D
:10FB8000C5B220461230F6F73FFF0078A842EEDCFF
:10FB900020461230F6F738FF867020461230F6F70E
:10FBA00033FF2330417900790F020743204612309A
:10FBB000F6F72AFF21300772390A41722046FDF715
:10FBC00007F8012836D1029988404F49096808434F
:10FBD0004D4908602046F6F717FF007801280FDB33
:10FBE0002046F6F711FF00781A2809DA0120474964
:10FBF000487047480068022108434549086014E0FE
:10FC00002046F6F701FF00781A280EDB2046F6F7AB
:10FC1000FBFE0078322808DA01203C4908713D4893
:10FC20000068022108433B4908600121039808430A
:10FC3000039007E001200299884033490968814315
:10FC40003148016020461230F6F7DEFE4078002889
:10FC500019D120461230F6F7D7FEC07C7043A0724F
:10FC600020461230F6F7D0FE0078B04202D1A07ADA
:10FC7000207334E020461230F6F7C6FEC07C711CBB
:10FC8000484320732BE000202073A07200250AE077
:10FC900020461230F6F7B8FE1330405DA17A4018C6
:10FCA000A072681CC5B2B542F2DB20461230F6F7EE
:10FCB000ABFE0078B04202D1A07A20730FE000259D
:10FCC0000AE020461230F6F79FFE1330405D217B9C
:10FCD00040182073681CC5B2701C8542F1DDA07A03
:10FCE000E17A884206D00121C907039808430390AE
:10FCF000A07AE072A07A5A2801DD6420A0720398ED
:10FD000005B0F0BDE802002014010020030F002020
:10FD10003C02002040020020F7B59CB00546144686
:10FD2000342222490FA8F6F71FFA34221F49343132
:10FD300002A8F6F719FA00200190E017800F0019C9
:10FD4000801080000094201A05D164212046F6F727
:10FD50007EFE002906D1FF2191312046F6F777FE7D
:10FD6000002901D10FAE00E002AE1D980C2819DC6D
:10FD7000002D17DD1D98401E80003058A84211DB71
:10FD8000002707E0B800315A0198081880B20190A6
:10FD9000781CC7B21D98401EB842F3DC0198401988
:10FDA00080B2019001981FB0F0BD0000A04E010884
:10FDB00070B501257B208449096808708248006875
:10FDC000401C8149086028466D1CFCF787FB2220F7
:10FDD0007D49096808707C480068401C7A490860C1
:10FDE0000A4611681268521C774E3260774A907C3E
:10FDF0000122FEF733FD22203146096808703046A3
:10FE00000068401C314608602C20096808703046A4
:10FE10000068401C3146086028466D1CFCF75EFBFC
:10FE2000222031460968087030460068401C31467F
:10FE3000086000240EE064480068C01C6249086045
:10FE40002E200968087060480068401C5E49086000
:10FE5000601CC4B2042CEEDB5B480068401E5A49AB
:10FE6000086022200968087057480068401C5649FD
:10FE700008602C200968087053480068401C5249EB
:10FE8000086028466A1CD5B2FCF728FB22204E49A0
:10FE9000096808704C480068401C4B490860002401
:10FEA0000EE049480068C01C474908602E200968D8
:10FEB000087045480068401C43490860601CC4B293
:10FEC000042CEEDB40480068401E3F4908602220B9
:10FED000096808703C480068401C3B4908602C20B9
:10FEE0000968087038480068401C3749086028468F
:10FEF0006A1CD5B2FCF7F2FA22203349096808706F
:10FF000031480068401C3049086000240EE02E484B
:10FF10000068C01C2C4908602E20096808702A4817
:10FF20000068401C28490860601CC4B2042CEEDB49
:10FF300025480068401E244908602220096808708E
:10FF400021480068401C204908602C20096808707E
:10FF50001D480068401C1C49086028466A1CD5B230
:10FF6000FCF7BCFA22201849096808701648006896
:10FF7000401C1549086000240EE013480068C01CAE
:10FF8000114908602E20096808700F480068401C5D
:10FF90000D490860601CC4B2042CEEDB0A480068FE
:10FFA000401E094908602220096808700648006858
:10FFB000401C054908607D200968087002480068F7
:10FFC000401C0149086070BD140200202D0F002064
:10FFD000F0B5E5B0064600BF00200290FF2369336C
:10FFE00003AA01217E48FEF745FF002501205D9010
:10FFF0000EE0314608315D9A88180221FCF7BEFAFE
:020000040801F1
:1000000063A94855681CC5B25D98801CC0B25D905C
:10001000062DEEDB60AB187B5F901A7B597B987BDB
:10002000FFF77AFE87B260ABD87B3C214843484358
:10003000197C3C2251434018597C4018619000259E
:10004000C8E00C20684303A9085C01286FD128464A
:100050000C214843801D03A9085C5E9028460C23B0
:100060005843801D03AB1A5C28460C235843C01D1F
:1000700003AB195C28460C235843083003AB185CCB
:100080000190FFF749FE80B2629028460C21484358
:10009000093003A9085C3C214843414328460C220F
:1000A00050430A3003AA105C3C22504309182846EA
:1000B0000C2250430B3003AA105C081860905F9923
:1000C0005E98884209DC6298B84206DC6298B842C1
:1000D0007ED16199609888427AD90C21694303AB3B
:1000E000CA18717933790902194308460021FCF7CF
:1000F000D3FF3C48F6F760F980B2029039493A489C
:10010000029A04F092FA002400E0641C374884420A
:10011000FBD3002400E0641C34488442FBD3002459
:1001200000E0641C31488442FBD3002401E04FE02E
:10013000641C2E488442FBD3002400E0641C2B483E
:100140008442FBD3002400E0641C28488442FBD393
:10015000002400E0641C25488442FBD3002400E016
:10016000641C22488442FBD3002400E0641C1F4826
:100170008442FBD3002400E0641C1C488442FBD36F
:10018000002400E0641C19488442FBD3002400E0F2
:10019000641C16488442FBD31248029904F0D2FA38
:1001A000002400E0641C11488442FBD3002400E0DA
:1001B000641C0E488442FBD3002400E0641C0B48FE
:1001C0008442FBD3002400E0641C08488442FBD333
:1001D000681CC5B21E2D00DA33E765B0F0BD000023
:1001E000CD020000CC0500200044004020A1070003
:1001F000F1B582B00125D1480078002812D0D0484E
:100200000078D0490870D048C0784870CE4840780F
:100210008870CD488078C870CC4800780871CB4889
:1002200040784871CA48F6F7EFFB401C0522C549E3
:10023000491C0190F6F748FBC548001DF6F7E4FBA2
:10024000401C0522C3490190F6F73EFB0723BD4A37
:1002500000218620FEF70EFE0723BE4A521E002113
:100260008D20FEF707FE7B20BB4909680870BA485D
:100270000068401CB84908600620B8490870B848B2
:1002800000210160416081600120B5490870284665
:100290006A1CD5B2FCF722F92220AF490968087020
:1002A000AD480068401CAC4908600298F6F7ACFB0A
:1002B0000078AB4948700298F6F7A6FB00780190E9
:1002C000A54801680198FEF799FA0646A248006819
:1002D0008019A14908602220096808709E480068BA
:1002E000401C9D4908602C20096808709A480068E5
:1002F000401C9949086028466A1CD5B2FCF7EEF804
:10030000222095490968087093480068401C92496A
:1003100008600298F6F778FB0078012822DB029843
:10032000F6F772FB007819281CDC8948F6F76CFB9D
:100330000078002803D018208949887002E019202D
:10034000874988708248F6F75FFB00780190824801
:1003500001680068401C804B012218600198FEF77C
:100360007DFA1CE07A48F6F74FFB0078002803D0AE
:1003700018207B49887002E01920794988707448F8
:10038000001DF6F741FB0078019073480168006892
:10039000401C714B012218600198FEF75FFA222081
:1003A0006D49096808706C480068401C6A4908601B
:1003B0002C200968087068480068401C664908607D
:1003C00028466A1CD5B2FCF789F8222062490968E0
:1003D000087061480068401C5F4908605C48F6F797
:1003E00013FB5A498978817100244EE00298F6F790
:1003F0000BFB007801281FDB0298F6F705FB00785D
:10040000192819DC5248F6F7FFFA401C025D5348E0
:100410000078411C514B0190197051490A544C48C5
:10042000F6F7F2FA401C005D022201904A4801688A
:100430000198FEF713FA19E04548F6F7E5FA401C73
:10044000025D46480078411C444B019019704449B4
:100450000A543F48001DF6F7D7FA401C005D0222FF
:1004600001903D4801680198FEF7F8F93A480068A4
:10047000801C394908602D200968087036480068DA
:10048000401C35490860601CC4B2062CAEDB324803
:100490000068401E304908602220096808702E4814
:1004A0000068401C2C4908602C20096808702A4804
:1004B0000068401C2849086028466A1CD5B2FCF731
:1004C0000DF8222024490968087023480068401C60
:1004D0002149086000240AE0224800782041C00732
:1004E000C00F002801D0274603E0601CC4B2202CB6
:1004F000F2DB00BF1A48C770002019490871487123
:10050000154801683846FEF779F906461248006832
:100510008019114908602220096808700E48006897
:10052000401C0D4908607D20096808700A48006871
:10053000401C0949086002F053FAFEBD4F0200203A
:100540005A020020F702002056020020520200202A
:10055000BA100020FF020020140200200C0200202C
:10056000C0050020320200207CB50546002411E0C1
:10057000E1000A4A881808236A460121FEF77AFC3E
:10058000684600788007800FA84201D101207CBD19
:10059000601CC4B2032CEBDB0020F8E75B1C0000FE
:1005A000F8B50124FA480078002812D0F9480078FC
:1005B000F9490870F948C0784870F8484078887060
:1005C000F6488078C870F64800780871F44840789A
:1005D0004871F448F6F718FA471C0522EE49491C01
:1005E0003846F6F771F9EF48001DF6F70DFA471C8B
:1005F0000522ED493846F6F767F90723E64A002158
:100600008620FEF737FC0723E74A521E00218D2083
:10061000FEF730FC7B20E54909680870E348006874
:10062000401CE24908602046621CD4B2FBF756FF2A
:100630002220DE4909680870DC480068401CDB495C
:100640000860DB48F6F7E0F90778D84801683846D3
:10065000FEF7D4F80646D54800688019D3490860EB
:10066000222009680870D1480068401CCF49086002
:100670002C2009680870CD480068401CCB490860F0
:100680002046621CD4B2FBF729FF2220C749096823
:100690000870C6480068401CC4490860C149891EEA
:1006A00008780322C1490968FEF7D8F8BF480068F6
:1006B000C01CBE490860222009680870BB48006859
:1006C000401CBA4908602C2009680870B7480068C7
:1006D000401CB64908602046621CD4B2FBF7FEFEFF
:1006E0002220B24909680870B0480068401CAF4930
:1006F00008600322084601680020FEF7AFF8AB4807
:100700000068C01CA9490860222009680870A74831
:100710000068401CA54908602C2009680870A3489F
:100720000068401CA14908602046621CD4B2FBF757
:10073000D5FE22209D49096808709C480068401C2D
:100740009A4908609748F6F75FF907789748016873
:100750000068401C954B012218603846FEF77EF871
:10076000222092490968087090480068401C8F490F
:1007700008602C20096808708C480068401C8B4970
:1007800008602046621CD4B2FBF7A8FE22208749ED
:100790000968087085480068401C84490860002585
:1007A00019E08048F6F730F9401C475D02227F4887
:1007B00001683846FEF752F87C480068801C7B4987
:1007C00008602D200968087078480068401C774947
:1007D0000860681CC5B2062DE3DB74480068401E43
:1007E0007249086022200968087070480068401C3F
:1007F0006E4908606F48407800287DDD2C2009682C
:1008000008706A480068401C684908602046621CFD
:10081000D4B2FBF763FE222064490968087063487C
:100820000068401C614908606348F6F7EDF80778F6
:100830005E4801683846FDF7E1FF06465B48006800
:1008400080195A49086022200968087057480068D2
:10085000401C564908602C200968087053480068FD
:10086000401C524908602046621CD4B2FBF736FE99
:1008700022204E49096808704C480068401C4B49CA
:1008800008604D49887A032248490968FDF7E6FF68
:1008900046480068C01C4549086022200968087065
:1008A00042480068401C414908602C2009680870D3
:1008B0003E480068401C3D4908602046621CD4B296
:1008C000FBF70CFE22203949096808703748006898
:1008D000401C364908603849487B0322334909687F
:1008E000FDF7BCFF31480068C01C30490860222079
:1008F000096808702D4800E089E00068401C2B4919
:1009000008602C200968087028480068401C2749A6
:1009100008602046621CD4B2FBF7E0FD2220234988
:100920000968087021480068401C204908601D487B
:10093000001DF6F769F807781C4801680068401C3C
:100940001A4B012218603846FDF788FF222017490C
:100950000968087015480068401C144908602C207C
:100960000968087011480068401C1049086020465A
:10097000621CD4B2FBF7B2FD22200C490968087052
:100980000A480068401C09490860002530E0000062
:100990004F0200205A020020F702002056020020D9
:1009A00052020020BA100020FF0200201402002092
:1009B0006A100020F40200209E1000201948F6F76B
:1009C00023F8401C475D0222174801683846FDF7AE
:1009D00045FF15480068801C134908602D200968F0
:1009E000087011480068401C0F490860681CC5B2B7
:1009F000062DE3DB0C480068401E0B4908602220EE
:100A00000968087008480068401C074908607D2094
:100A100005490968087004480068401C02490860DC
:100A2000F8BD0000BE10002014020020F0B595B003
:100A30000646002014900125129011900027B2E183
:100A4000012E0DDB192E0BDCF800F24940180823AB
:100A500002AA01210190FEF70DFA012013901EE079
:100A60001A2E0EDB322E0CDCF800EA491831401841
:100A7000082302AA01210190FEF7FCF91A20139025
:100A80000DE0332E0BD1F800E24930314018082335
:100A900002AA01210190FEF7EDF933201390684678
:100AA000007A8007800F03287ED01298002818D182
:100AB0002C22D94904A8F5F707FF7B20D6490870F6
:100AC0002C2204A9D448401CF5F7FEFE0120129008
:100AD0003A20D24909680870D0480068401CCF49C4
:100AE000086001251498012824D17D20CB4909688C
:100AF0000870CA480068401CC84908602C20096872
:100B00000870C6480068401CC44908602C22C249CD
:100B1000491CC2480068F5F7D7FEC04800682C3071
:100B2000BE4908603A2009680870BC480068401C4B
:100B3000BA4908607B20B94909680870B74800685D
:100B4000401CB649086028466A1CD5B2FBF7C6FCB3
:100B50002220B24909680870B0480068401CAF49BB
:100B60000860084601681398FDF748FE0446AB4844
:100B700000680019A9490860222009680870A74880
:100B80000068401CA54908602C2009680870A3482B
:100B90000068401CA149086028466A1CD5B2FBF7D2
:100BA0009DFC22209D4900E0FBE0096808709B48FD
:100BB0000068401C9949086008460168781CFDF7E8
:100BC0001DFE0446954800680019944908602220DB
:100BD0000968087091480068401C904908602C2002
:100BE000096808708D480068401C8C4908602846D8
:100BF0006A1CD5B2FBF772FC22208849096808708C
:100C000086480068401C854908606946097A88075B
:100C1000800F82490968FDF7F1FD04467F480068AE
:100C200000197E4908602220096808707B48006826
:100C3000401C7A4908602C200968087077480068D1
:100C4000401C7649086028466A1CD5B2FBF746FC72
:100C5000222072490968087070480068401C6F497A
:100C600008606946097A4907C80F6C490968FDF7A9
:100C7000C5FD0446694800680019684908602220DB
:100C80000968087065480068401C644908602C20A9
:100C90000968087061480068401C6049086028467F
:100CA0006A1CD5B2FBF71AFC22205C49096808705F
:100CB0005A480068401C59490860694609898904F6
:100CC000480D56490968FDF799FD044653480068E8
:100CD0000019524908602220096808704F480068CE
:100CE000401C4E4908602C20096808704B48006879
:100CF000401C4A49086028466A1CD5B2FBF7EEFB47
:100D0000222046490968087044480068401C43494D
:100D10000860694649894805400D40490968FDF762
:100D20006DFD04463D48006800193C4908602220DA
:100D30000968087039480068401C384908602C2050
:100D40000968087035480068401C34490860284626
:100D50006A1CD5B2FBF7C2FB222030490968087033
:100D60002E480068401C2D49086003980968FDF76B
:100D700045FD0446294800680019284908602220DA
:100D80000968087025480068401C244908607D20D7
:100D90000968087021480068401C2049086001204B
:100DA0001490781CC7B2032F00DA49E61298012884
:100DB00008D17D2019490968087018480068401C4E
:100DC000164908601498002821D113481349086077
:100DD0001F221348016811480068F5F7DFFD0F482E
:100DE00000681F300D490860084601681220FDF7B1
:100DF00005FD0446094800680019084908602220DA
:100E00000968087005480068401C0449086015B06E
:100E1000F0BD00005B1C0000CC0500201402002087
:100E2000D802002070B50446264635460FE00A2158
:100E30003046F5F702FE0D4607480078A84201D17A
:100E4000E8B270BD0A213046F5F7F7FD0646002EE0
:100E5000EDD1E8B2F5E700004C03002000B58BB0FF
:100E600001218804F8F7A6FD01214805F8F7B2FD35
:100E70000020F8F737FF012208211D48F7F724F872
:100E8000012209211A48F7F71FF8032000020990F0
:100E9000002108A84172022101720021C1720121C2
:100EA000817209A91248F6F7C7FF00200390049049
:100EB0000690059007900F4802900020089002A924
:100EC0000D48F7F7EDF901210B48F7F7B7F90122C3
:100ED00046210948F7F7DAF9172168460171002120
:100EE00041710121817101A8F8F7AAFC0BB000BD86
:100EF00000040048141242B00054004000B585B010
:100F000001214804F8F756FD01218804F8F752FD45
:100F10000121C804F8F74EFD002168460174817470
:100F20000121C1740321417483200002039003A9AD
:100F30000920C006F6F780FF1648039003A916485B
:100F4000F6F77AFF002168464174012040030390C0
:100F50006846C17403A91148F6F76EFF0D210220FF
:100F6000F9F7F0FA01204003009000216846017172
:100F70000821417101218171F6F700FF07216846C0
:100F80000172002141720121817202A8F8F758FC18
:100F900005B000BD0AF80000000400480008004841
:100FA00010B5002417E01A226243184BD2181146DC
:100FB00012312B226243164BD018F5F736FD1A2258
:100FC0006243124BD1181A226243124BD018F5F724
:100FD0002CFD601CC4B2022CE5DB0F490F48F5F76D
:100FE00024FD0D49091D0E48F5F71FFD0A49123968
:100FF0000C48F5F71AFD0C490C48F5F716FD0A499F
:10100000091D0B48F5F711FD10BD00006A10002006
:10101000530F00200A100020B0100020A90F00205C
:10102000EF0F00203E100020BA10002058100020C2
:101030006110002010B505480549086005480168A1
:1010400002482038F5F7BEFB10BD0000EC0500207B
:10105000140200202802002010B5F8F776FBF8F7FC
:1010600089FBF8F79CFBF8F7AFFBF8F759FBF6F7AD
:10107000B1F901210448F6F753FF40210920C006C9
:10108000F6F74EFF10BD00000004004830B5A7B0D1
:1010900005460C46022C05D11F2229460EA8013018
:1010A000F5F712FC04223BA13C48F5F777FC022C33
:1010B00009D108A8407E39490871012301AA1946BF
:1010C0003748FDF7D7FE322134484030C171312016
:1010D0003249487188712C22C91D32A0FEF70CF9E3
:1010E0002C222E49173133A0FEF706F92C222B496A
:1010F000273134A0FEF700F92C222849373131A0DE
:10110000FEF7FAF82E222549483132A0FEF7F4F80E
:10111000042220A121485830F5F740FC022C26D1AA
:101120001E48007931280CD12E4801681B48A33095
:10113000F5F748FB2B4841681848C630F5F742FBE5
:101140000AE016480079312806D01E2301AA0121A1
:101150003B20C001FDF78EFE10480079312806D0F3
:101160001E2301AA01210E485B30FDF783FE0B48C8
:101170000079312804D139210848E030417203E078
:1011800039210648A0308170022C00D100BF27B061
:1011900030BD00003830383000000000F614002068
:1011A000431D00003139322E3136382E3031312E88
:1011B000323534003235352E3235352E3235352E36
:1011C000303030003139322E3136382E3031312E38
:1011D000303031003139322E3136382E3030302E29
:1011E000303031003C040020F0B58FB0044634218B
:1011F00002A8F5F7D1FBFEA102A8F5F759FB0122E1
:10120000211D02A8F5F798F802A802F013FA207938
:10121000322810D1342102A8F5F7BEFBF6A102A8AE
:10122000F5F746FB01222146473102A8F5F784F87D
:1012300002A802F0FFF9342102A8F5F7ADFBF0A1F6
:1012400002A8F5F735FB0122A11D02A8F5F774F8F5
:1012500002A802F0EFF9342102A8F5F79DFB2079EE
:1012600031280FD1E9A102A8F5F722FB2046A330CF
:10127000F5F7A2F8C5B22A462146A33102A8F5F730
:101280005BF80EE0E4A102A8F5F712FB20465C3003
:10129000F5F792F8C5B22A4621465C3102A8F5F767
:1012A0004BF802A802F0C6F90A2D04DA28463030BD
:1012B0006946087012E00A2D10DB642D0EDA0A214F
:1012C0002846F5F7C4FB3030C1B2684601700A21E8
:1012D0002846F5F7BCFB303168464170342102A83E
:1012E000F5F75AFB2079312804D1CEA102A8F5F7F1
:1012F000DFFA03E0CEA102A8F5F7DAFA0A2D05DA43
:101300000122694602A8F5F717F808E00A2D06DB66
:10131000642D04DA0222694602A8F5F70DF802A846
:1013200002F088F9342102A8F5F736FB207931283C
:101330000AD1C2A102A8F5F7BBFA01222146E93180
:1013400002A8F4F7F9FF09E0BEA102A8F5F7B0FA88
:1013500001222146A23102A8F4F7EEFF02A802F012
:1013600069F9342102A8F5F717FB207931280FD14C
:10137000B6A102A8F5F79CFA2046C630F5F71CF88E
:10138000C6B232462146C63102A8F4F7D5FF0EE0B8
:10139000B0A102A8F5F78CFA20467F30F5F70CF8DB
:1013A000C6B2324621467F3102A8F4F7C5FF02A833
:1013B00002F040F90A2E04DA3046303069460870EF
:1013C00012E00A2E10DB642E0EDA0A213046F5F701
:1013D0003EFB3030C1B2684601700A213046F5F755
:1013E00036FB303168464170342102A8F5F7D4FA53
:1013F0002079312804D199A102A8F5F759FA03E020
:1014000099A102A8F5F754FA0A2E05DA01226946D5
:1014100002A8F4F791FF04E00222694602A8F4F75B
:101420008BFF02A802F006F9A079302802D02079BB
:10143000312846D1342102A8F5F7AEFA20793128B7
:1014400004D18CA102A8F5F733FA03E08BA102A81E
:10145000F5F72EFA8B4902A8F5F72AFA02A802F04E
:10146000E9F8342102A8F5F797FA87A102A8F5F761
:101470001FFA8449103102A8F5F71AFA02A802F0FF
:10148000D9F8342102A8F5F787FA82A102A8F5F766
:101490000FFA7C49203102A8F5F70AFA02A802F0F7
:1014A000C9F8342102A8F5F777FA7CA102A8F5F76C
:1014B000FFF97449303102A8F5F7FAF902A802F0F1
:1014C000B9F8342102A8F5F767FA76A102A8F5F772
:1014D000EFF90122611D02A8F4F72EFF02A802F025
:1014E000A9F8342102A8F5F757FA71A102A8F5F777
:1014F000DFF96449413102A8F5F7DAF902A802F0F0
:1015000099F8342102A8F5F747FA6BA102A8F5F77C
:10151000CFF90422214602A8F4F70EFF02A802F038
:1015200089F8342102A8F5F737FA66A102A8F5F781
:10153000BFF904222146583102A8F4F7FDFE02A8A3
:1015400002F078F862A002F075F863A002F072F879
:1015500063A002F06FF864A002F06CF8002734E09A
:10156000342102A8F5F718FA61A102A8F5F7A0F94D
:101570000122611D02A8F4F7DFFE012201A902A8E1
:10158000F4F7DAFE3F49413102A8F5F791F92C2131
:101590000191012201A902A8F4F7CEFE04222146FE
:1015A000583102A8F4F7C8FE2C210191012201A9AB
:1015B00002A8F4F7C1FE0422214602A8F4F7BCFEFB
:1015C00002A802F037F8781CC7B2042FC8DB2079D4
:1015D00032280AD148A002F02DF8072048490870A7
:1015E00000BF474800780028FBD146A08EE00000ED
:1015F00061742B57413D000061742B574D3D000035
:1016000061742B646863703D0000000061742B41BD
:10161000737369643D00000061742B5373736964D4
:101620003D00000061742B41737369646C3D0000E0
:1016300061742B53737369646C3D000061742B41BA
:10164000616D3D0061742B53616D3D0061742B41F0
:1016500070773D0061742B5370773D0061742B41AE
:1016600070776C3D0000000061742B5370776C3D07
:101670000000000061742B4169703D0061742B69AA
:10168000703D0000FD14002061742B6D61736B3D93
:101690000000000061742B67773D000061742B64CB
:1016A0006E733D0061742B55547970653D000000E8
:1016B00061742B5549703D0061742B554C506F720D
:1016C000743D000061742B5552506F72743D0000E0
:1016D00061742B53433D300061742B53433D310003
:1016E00061742B53433D320061742B53433D3300EF
:1016F00061742B534F3D000061742B57433D310003
:10170000AB03002061742B52623D310001F092FF67
:101710000FB0F0BDF8B500F011FAF8F76BF800283B
:1017200003D1F9F7BFF8F8F7C3F8F6F725FE03F091
:101730001FF954E1AA48007801282BD10020A849BC
:10174000087001214903A748F6F7E0FBA649087095
:101750000846007800281AD1A4480078002807D14C
:10176000F6F768FAF6F77DFAA1480068F6F756FA38
:101770009E480078401C9D49087008460078002863
:1017800008DD00200870F9F78DF8F8F791F80020CF
:101790009649087097480078002806D0FDF738FA77
:1017A000FDF750F900209349087002F0DBFD02F0CC
:1017B000B7FB9148007800287ED07FE000200090A1
:1017C00002E00098401C00908C4900988842F8D3B1
:1017D0000020009002E00098401C0090874900988B
:1017E0008842F8D30020009002E00098401C00904E
:1017F000824900988842F8D30020009002E00098C7
:10180000401C00907D4900988842F8D30020009049
:1018100002E00098401C0090784900988842F8D374
:101820000020009002E00098401C0090734900984E
:101830008842F8D37248F7F723FF85B2012D02D012
:10184000022D38D100E000BF6E48F4F7B5FD84B238
:101850006C496D4802F0F8FE0D216B4802F0CEFE97
:101860002146684802F06EFF0020009002E00098D8
:10187000401C0090614900988842F8D300200090F5
:1018800002E00098401C00905C4900988842F8D320
:101890005E4948790979000208435D49884209D1C7
:1018A00003205C49087000BF5A4800780028FBD12B
:1018B000F7F7FEFF00BF00E00EE000BF5648F5F767
:1018C000A3F806465448001FF5F79EF8864200D05C
:1018D00074E700204849087050480088002809D063
:1018E00001F0C0FC01204E49086001F07FFE00209D
:1018F0004A4908804B480078002870D000204949A8
:10190000087031204849087101230A1D0021474809
:10191000FDF7B0FA03203F49087080214448F6F7EC
:10192000FFFA00BF3B480078002803D0F7F762FFBA
:101930000128F7D0F7F75EFF002800D1F8BD80211D
:101940003B48F6F7EFFA05203249087000BF3148EE
:101950000078002803D0F7F74DFF0128F7D0F7F7FC
:1019600049FF002800D1E9E704202A4908704021F6
:101970002F48F6F7D5FA00BF26480078002803D094
:10198000F7F738FF0128F7D0F7F734FF002800D128
:10199000D4E740212648F6F7C5FA03201D49087010
:1019A00000BF1C480078002803D0F7F723FF012868
:1019B000F7D0F7F71FFF002800D1BFE701211D482E
:1019C000FFF764FB1848FFF70FFC0320114908706C
:1019D00000BF104800780028FBD1F7F769FFA9E69F
:1019E0005F020020000800485E020020660200201E
:1019F000D0030020780300203402002020A107003B
:101A0000E4100020CC05002000440040870B00209B
:101A1000531F0000AB030020E814002082030020C5
:101A2000B0020020A7030020F6140020431D000090
:101A300000040048740A002070B5FFB0FFB082B007
:101A400038490020F8F7D2FA37490020F8F778FA39
:101A50000121F8A8017300218173C17301744174DD
:101A60008174C17401753048C178F8A841752E4859
:101A70004178F8A881752C488178F8A8C175294863
:101A80000178F8A8017627484178F8A841762548DA
:101A90008178F8A8817600240CE0052C08D0234832
:101AA0000068E040C007C00F002801D0F8A84473C8
:101AB000601CC4B2202CF0DB00240AE01B48006844
:101AC000E040C007C00F002801D0F8A88473601C54
:101AD000C4B2202CF2DB002014490860FBA8FCF7FC
:101AE00075FE1348F4F768FC85B27D21C90001A892
:101AF000F4F752FF2A460E4901A8F4F74FFF2A4691
:101B00000B490C4802F091FD294601A802F01AFE8B
:101B1000002600E0761C08488642FBD37FB07FB0E9
:101B200002B070BD540300204C0300203C02002092
:101B3000CC0500200044004020A1070008B500208B
:101B400000900BE00098800014494018006800994C
:101B50008900134A50500098401C0090009830288B
:101B6000F0D301210846F7F755FF0320F8F70AFDE7
:101B70000020009002E00098401C00900949009865
:101B80008842F8D30020009002E00098401C0090AA
:101B9000044900988842F8D308BD0000006000089E
:101BA000000000203F420F0030B58BB001254E49A8
:101BB0000020F8F71BFA4D490020F8F7C1F91E2361
:101BC0006A4601214A48FDF755F94848817808A836
:101BD00001704648417808A841704448C17808A877
:101BE00081704148017808A8C1703F48417808A831
:101BF00001713D48817808A841717B203D49096801
:101C000008703C480068401C3A49086028466D1C32
:101C1000FAF764FC222037490968087035480068E3
:101C2000401C34490860002415E008A9085D022220
:101C300030490968FCF712FE2E480068801C2D49C7
:101C400008602D20096808702A480068401C29494E
:101C50000860601CC4B2052CE7DB08A948790222A1
:101C600024490968FCF7FAFD22480068801C2149D4
:101C700008602220096808701E480068401C1D4941
:101C800008602C20096808701A480068401C19492F
:101C9000086028466A1CD5B2FAF720FC22201549B4
:101CA0000968087013480068401C124908601E2229
:101CB000694610480068F4F771FE0E4800681E304F
:101CC0000C4908602220096808700A480068401C16
:101CD000084908607D200968087006480068401CB3
:101CE000044908600BB030BD540300204C030020B1
:101CF000241D00001402002070B5002400250121DD
:101D0000C9025348F6F702F90546002D02D001201A
:101D1000044301E064086400012109034C48F6F71C
:101D2000F5F80546002D02D00220044303E002210D
:101D3000204688430446012149034548F6F7E6F862
:101D40000546002D02D00420044303E00421204670
:101D500088430446012189033D48F6F7D7F8054634
:101D6000002D02D00820044303E0082120468843C8
:101D700004460121C9033648F6F7C8F80546002D88
:101D800002D01020044303E010212046884304467B
:101D9000FF2101310920C006F6F7B8F80546002DED
:101DA00002D02020044303E020212046884304463B
:101DB000012149020920C006F6F7A8F80546002DC2
:101DC00002D04020044303E04021204688430446DB
:101DD0000121C9030920C006F6F798F80546002D31
:101DE00002D08020044303E080212046884304463B
:101DF00008211748F6F78AF80546002D03D0FF2082
:101E00000130044304E0FF210131204688430446A9
:101E100002210F48F6F77AF80546002D03D001207D
:101E20004002044304E0012149022046884304465D
:101E3000254608480560006807490968884205D0BA
:101E40000448006804490860012070BD0020FCE7D8
:101E500000040048E8020020EC02002010B504490C
:101E60000120F8F7C3F803490120F8F769F810BD1D
:101E70005403002050030020F0B585B00746012F21
:101E80000CDB192F0ADC40480190404D4048007897
:101E9000302188433E4908700E460CE0332F0AD1AA
:101EA0003948303001903B4D3B4800783021884321
:101EB000394908700E46307800090001307000245E
:101EC00051E0E100019809180091009988B20823B7
:101ED00002AA0121FCF7CEFF694608898004400D63
:101EE000E100611849194871000A8871E000201862
:101EF000285C062188436946097A49000622114078
:101F00000843E10061186854684640894005400D67
:101F1000E10061184919C871000A0872E000201830
:101F2000285C410849006846007A4007C00F014319
:101F3000E00020182954E200A2185219511C0398FD
:101F4000F4F773FD6846007A8007800F012808D1F6
:101F50003078000900013178491C0907090F08434E
:101F60003070601CC4B2032CABDB012F03DB192FD4
:101F700001DC064D02E0332F00D1064D29463046E4
:101F8000FBF72CF805B0F0BD5B1C0000AF0E002085
:101F9000E50E0020CA0E0020F90E0020FEB5002636
:101FA00000BF41E02B207043394945181A20704387
:101FB0003849401800901A207043374947182321A8
:101FC0007143364A88181A230121009AFCF752FF00
:101FD00023217143314A1A32881802233A1D012104
:101FE000FCF748FF232171432C4A1C328818032335
:101FF00001AA0121FCF73EFF684641790079081AE1
:10200000401C2870684680796870002407E06846A4
:1020100000790019C1B2E81C0155601CC4B22878CF
:10202000A042F4DC701CC6B2022EBBDB1C4D1D4866
:1020300000901D4F1A23012118484630009AFCF7E2
:1020400019FF02233A1D012114486030FCF712FFEA
:10205000032301AA012111486230FCF70BFF6846F7
:1020600041790079081A401C2870684680796870A8
:10207000002407E0684600790019C1B2E81C015548
:10208000601CC4B22878A042F4DC01F06BFCFEBDF9
:10209000530F00200A1000206A100020931D00003A
:1020A000A90F00203E1000209E100020F0B591B036
:1020B00005463126002700200190002426E0214615
:1020C000392251430846C830134602AA0121FCF7C1
:1020D000D1FE6846007A312816D11E2206A90131A8
:1020E00028460930F4F794FB00280DD130266946C4
:1020F00008722146392251430846C830012302AAFA
:102100000021FCF7B7FE05E0601CC4B2034800786C
:102110008442D4DB00BF304611B0F0BD0B03002079
:1021200000200349887048714870087170470000AA
:10213000030F0020F1B586B0002500210491012491
:10214000012304AA1946AB20FCF794FE6846007CE4
:1021500001287DD17B20F74909680870F54800689F
:10216000401CF44908600698012813DB06981928DA
:1021700010DC2B206843F049401803901A20684374
:10218000EE4947181A206843ED4940180290ED487F
:10219000007805909DE10698012813DB0698192820
:1021A00010DC2B206843E449401803901A20684350
:1021B000E24947181A206843E14940180290E14873
:1021C000007805902046621CD4B2FAF787F92220E5
:1021D000D84909680870D7480068401CD54908608C
:1021E000387802220968FCF739FBD2480068801C65
:1021F000D0490860222009680870CE480068401C59
:10220000CC4908602C2009680870CA480068401C46
:10221000C84908602046621CD4B2FAF75FF9222050
:10222000C44909680870C3480068401CC149086077
:10223000084601680068401CBE4B1860787801228F
:102240000190FCF70BFB2220BA490968087000E0F6
:1022500051E1B8480068401CB64908602C20096864
:102260000870B4480068401CB24908602046621CEF
:10227000D4B2FAF733F9B81CF4F79EF8C6B22220AC
:10228000AC4909680870AB480068401CA94908605F
:102290003246B91CA7480068F4F716FBA548006849
:1022A0008019A4490860222009680870A1480068C4
:1022B000401CA04908602C20096808709D480068EF
:1022C000401C9C4908602046621CD4B2FAF706F90B
:1022D000222098490968087096480068401C954972
:1022E000086038461630F4F78FFB0190914801687A
:1022F0000198FCF783FA06468E48006880198D49DC
:1023000008602220096808708A480068401C8949D2
:1023100008602C200968087086480068401C8549C0
:1023200008602046621CD4B2FAF7D8F8222081490E
:10233000096808707F480068401C7E49086002995F
:1023400008797C490968FCF759FA0646794800681B
:10235000801978490860222009680870754800686B
:10236000401C744908602C20096808707148006896
:10237000401C704908602046621CD4B2FAF7AEF8DF
:1023800022206C49096808706A480068401C694945
:1023900008600299487967490968FCF72FFA0646F0
:1023A0006448006880196349086022200968087041
:1023B00060480068401C5F4908602C20096808706C
:1023C0005C480068401C5B4908602046621CD4B22F
:1023D000FAF784F8222057490968087055480068C0
:1023E000401C544908600399C87852490968FCF7B1
:1023F00005FA06464F48006880194E4908602220B9
:10240000096808704B480068401C4A4908602C2045
:102410000968087047480068401C46490860204623
:10242000621CD4B2FAF75AF82220424909680870AF
:1024300040480068401C3F49086003990A78521ED2
:10244000C91C885C3B490968FCF7D8F9064639483D
:1024500000688019374908602220096808703548EB
:102460000068401C334908602C2009680870314816
:102470000068401C2F4908602046621CD4B2FAF75D
:102480002DF822202B49096808702A480068401C52
:1024900028490860084601680068401C254B186000
:1024A0000398407801220190FCF7D8F922202149B5
:1024B000096808701F480068401C1E4908602C20ED
:1024C000096808701B480068401C1A490860681CAD
:1024D000C5B20598854200DA5DE616480068401EE0
:1024E000144908607D200968087012480068401C83
:1024F000104908601BE022200E49096808700D4849
:102500000068401C0B49086001220846016810461B
:10251000FCF7A4F907480068401C0649086022201F
:102520000968087003480068401C0249086007B049
:10253000F0BD000014020020530F00200A100020FC
:102540006A100020F402002070B500240123924A92
:1025500019461846FCF78EFC0623904A01210220FA
:10256000FCF788FC002613E08C48805DF0210840D1
:102570000011303088490D3108558848805D0007CA
:10258000000F3030621C8854701CC6B2A01CC4B24C
:10259000062EE9DB00240EE07F480D30005D39286F
:1025A00007DD7D480D30005DC01DC1B27A480D3099
:1025B0000155601CC4B20C2CEEDB0123784A19468D
:1025C000AA20FCF757FC1823734A1932012108206E
:1025D000FCF750FC0C23704A521C01217320FCF7BD
:1025E00049FC01236C4A323219465C20FCF742FC5C
:1025F00069482030807C002818D11023664A333285
:1026000001215D20FCF736FC00250DE062483330E7
:10261000291D445C091D425C291D4254091D445476
:10262000681CC5B2601CC4B2042DEFDB5A4A0D32DF
:1026300011460C3908461830F3F728FF594800783E
:10264000574908700322584953484330F4F73CF97E
:10265000FFF7A4FC1423554A01215548FCF70AFC56
:1026600001205249C8710872524880788008800061
:10267000801C50498870084680780C2188430830B7
:102680004C4988700846C07880088000C8700846A9
:10269000C0780C21884308304649C8700846007944
:1026A000800880000871084600790C2188430830B2
:1026B000404908710846407980088000401C4871F4
:1026C000084640790C21884308303A494871084649
:1026D000807980088000401C8871084680790C2130
:1026E00088430830334988710846C07980088000E3
:1026F000C8710846C0790C21884308302D49C8713B
:102700000846007A80088000801C08720846007A1B
:102710000C218843274908720123274A1946822041
:10272000FCF7A8FB0123244A921D19468320FCF7DD
:10273000A1FB2149C8798979000208433C2148431B
:1027400081B21D488171090AC17101231B4A1946D2
:102750008420FCF78FFB0723194A01218620FCF710
:1027600089FB0723174A01218D20FCF783FB0123F6
:10277000154A1946B3208000FCF77CFB124800780C
:10278000FF2802D101201049087001230F4A194681
:102790000F48FCF76FFB70BD0D0F00200C030020ED
:1027A0000B0300200A0300200664000844050020F3
:1027B000AE02000058050020EE00002005030020B6
:1027C000F7020020FE020020280300206202002001
:1027D000BE1D0000FEB504460E46607A30382F4913
:1027E00008700846007801281DD121460B31684643
:1027F000FCF774FD054629466846F9F7BFFE80B22E
:1028000026498871000AC871681D2246083281185D
:102810006846FCF763FD054629466846F9F7AEFEB3
:102820001F49087019E01D48007802280ED11B4886
:102830004078012806D110211A48F5F771FB0020D5
:1028400016494870012018490871FEBD102115482D
:10285000F5F766FB00201149487001230F4A00215B
:102860008220FCF707FB01230C4A921D00218320E4
:10287000FCF700FB0949C8798979000208433C212B
:10288000484381B205488171090AC1710123044A94
:1028900000218420FCF7EEFA00BFD6E7EE0000200E
:1028A0000503002000040048F60000201CB569461E
:1028B000087880088000C01C087000241BE0E1003C
:1028C0000E4A881808236A460021FCF7D3FAE10073
:1028D0000A4A1832881808236A460021FCF7CAFA07
:1028E000E100064A3032881808236A460021FCF7C6
:1028F000C1FA601CC4B2032CE1DB1CBD5B1C0000F0
:102900001CB500242FE0E100184A881808236A4605
:102910000121FCF7AFFA684600788007800F012894
:102920000DD16946087880088000801C0870E1009D
:102930000E4A881808236A460021FCF79BFAE1003A
:102940000A4A1832881808236A460021FCF792FACE
:10295000E100064A3032881808236A460021FCF755
:1029600089FA601CC4B2032CCDDB1CBD5B1C0000CB
:102970001CB500242FE0E100184A881808236A4695
:102980000121FCF777FA684600788007800F02285B
:102990000DD16946087880088000401C0870E1006D
:1029A0000E4A881808236A460021FCF763FAE10002
:1029B0000A4A1832881808236A460021FCF75AFA96
:1029C000E100064A3032881808236A460021FCF7E5
:1029D00051FA601CC4B2032CCDDB1CBD5B1C000093
:1029E00000B5DBB026490978491E0C225143254A1F
:1029F000891888B20C23244A0021FCF73BFA2049AD
:102A00000978491E0C2251431E4A891888B20C23AA
:102A100001AA0121FCF72EFA19480078401C184938
:102A20000870084600781E2820DD1E200870FF234D
:102A3000693301AA01211348FCF71CFAFF225D3219
:102A400004A901A8F3F790FB0020589059905A90E0
:102A5000FF23693301AA00210A48FCF70BFAFF2380
:102A6000693301AA01210748FCF704FA0123044A4B
:102A70000021B3208000FCF7FDF95BB000BD000031
:102A800028030020CD020000C0050020F1B58EB063
:102A900000210D910025062007900E98083041195D
:102AA00008A8FCF71BFC0C900C98801C2818C5B2D9
:102AB00008A80C99F9F762FDC6B20E9808304119C2
:102AC00008A8FCF70BFC0C900C98801C2818C5B2C9
:102AD00008A80C99F9F752FDC1B20D910E98083073
:102AE000411908A8FCF7FAFB0C900C98801C2818D8
:102AF000C5B208A80C99F9F741FDC7B2012F73D1EF
:102B00006846007C81088900B807800F0143684649
:102B100001740E980830411908A8FCF7DFFB0C90EF
:102B20000C98801C2818C5B208A80C99F9F726FD46
:102B300080000421084000906846007C884300998A
:102B40000143684601740E980830411908A8FCF743
:102B5000C5FB0C900C98801C2818C5B208A80C99CD
:102B6000F9F70CFD80B206906846008AE6490840F5
:102B70000699C900E44AD2431140014368460182E4
:102B80000E980830411908A8FCF7A8FB0C900C9887
:102B9000801C2818C5B208A80C99F9F7EFFC80B280
:102BA00006906946069848820E980830411908A890
:102BB000FCF794FB0C900C98801C2818C5B208A850
:102BC0000C99F9F7DBFC0590012E52DB192E50DC35
:102BD00008A8007D00282CD1CC4800780007000F01
:102BE000032826DA002421E0F2E0E000C84940187A
:102BF0000190019880B2082302AA01210090FCF7FD
:102C000039F96846007A8007800F03280CD1E0006C
:102C1000BF494018082304AA00210090FCF72AF9B4
:102C2000601CC0B2079003E0601CC4B2032CDCDB64
:102C300019E008A8007D002815D0B44800780007E6
:102C4000000F03280FDC08A8007D401EC000B0491B
:102C5000401880B2082304AA00210090FCF70AF96A
:102C600008A8007D07900798032801DD132007902E
:102C700040E11A2E54DB322E52DC08A8007D0028D9
:102C80002DD1A44800780007000F032827DA00247C
:102C900022E0E0009E49183140180190019880B26E
:102CA000082302AA01210090FCF7E4F86846007AA4
:102CB0008007800F03280DD1E00095491831401896
:102CC000082304AA00210090FCF7D4F8601CC0B2CD
:102CD000079003E0601CC4B2032CDADB1AE008A8FA
:102CE000007D002816D08B4800780007000F0328CD
:102CF00010DC08A8007D401EC0008549183140182E
:102D000080B2082304AA00210090FCF7B3F808A8B9
:102D1000007D079007980628AAD113200790E9E0C4
:102D2000332E52D108A8007D00282DD17A48007892
:102D30000007000F032827DA002422E0E00074498E
:102D4000303140180190019880B2082302AA012175
:102D50000090FCF78FF86846007A8007800F032800
:102D60000DD1E0006A4930314018082304AA00213F
:102D70000090FCF77FF8601CC0B2079003E0601C75
:102D8000C4B2032CDADB1AE008A8007D002816D0B4
:102D9000614800780007000F032810DC08A8007DB8
:102DA000401EC0005A493031401880B2082304AA9E
:102DB00000210090FCF75EF808A8007D07900798B6
:102DC0000628ACD11320079094E01320079091E0DF
:102DD000022F01D0032F2DD108A8007D032829DC64
:102DE000012E28DB192E26DC08A8007D401EC1B26A
:102DF0000D9108A8007DC00045494018082304AA89
:102E000001210090FCF736F86846007C81088900B3
:102E1000B807800F01436846017408A8007DC00010
:102E20003B494018082304AA00210090FCF722F82F
:102E3000002007905EE01A2E2ADB322E28DC08A83C
:102E4000007D401EC1B20D9108A8007DC000304930
:102E500018314018082304AA01210090FCF70AF851
:102E60006846007C81088900B807800F01436846E6
:102E7000017408A8007DC0002549183140180823B6
:102E800004AA00210090FBF7F5FF0020079031E035
:102E9000332E26D108A8007D401EC1B20D9108A88E
:102EA000007DC0001A4930314018082304AA0121CE
:102EB0000090FBF7DFFF6846007C80088000B907C0
:102EC000890F01436846017408A8007DC0001049BD
:102ED00030314018082304AA00210090FBF7CAFFF4
:102EE00008E0022F02D11420079003E0032F01D144
:102EF000152007900948F3F787FD00780090FEF74A
:102F0000BBFF07980FB0F0BD07C0FFFFE50E002024
:102F10005B1C0000EF0E0020F90E00206A1000205C
:102F2000F3B58FB000240020079006900025089488
:102F30000CE01A2208995143C14A8818F3F764FD3E
:102F4000002141700898401CC0B20890BD4801782B
:102F500008988142EDDCC7E00F980830411909A8B4
:102F6000FCF7BCF90746B81C281885B2394609A8F1
:102F7000F9F704FBC6B2012E11DB192E0FDC2B2052
:102F80006043B149401805901A206043AF4940188A
:102F900004901A206043AA494018039009E01A2EB1
:102FA00007DB322E05DCAA480590AA480490AA48FF
:102FB0000390049806700F980830411909A8FCF78F
:102FC0008DF90746B81C281885B2394609A8F9F7C3
:102FD000D5FAC1B2049841700F980830411909A878
:102FE000FCF77CF90746B81C281885B23A4609A9AF
:102FF0000498801CF3F768FC00210498801CC155DC
:103000000F980830411909A8FCF768F90746B81C61
:10301000281885B2394609A8F9F7B0FA0190049941
:103020001631F3F702FD0F980830411909A8FCF793
:1030300055F90746B81C281885B2394609A8F9F78A
:103040009DFAC1B2039801710F980830411909A87F
:10305000FCF744F90746B81C281885B2394609A878
:10306000F9F78CFAC1B2039841710020069015E07F
:103070000F980830411909A8FCF730F90746B81C29
:10308000281885B2394609A8F9F778FAC1B20EAA0C
:10309000069811540698401C80B2069006980328A2
:1030A000E6DB08A8417E007E081A401CC1B20598E4
:1030B000017008A8817E05984170002006900CE000
:1030C00008A8017E06980818C2B20598C01C069987
:1030D00042540698401C80B20690059801780698E4
:1030E0008142EDDC601CC4B21098854200DA33E7FF
:1030F000012E47DB192E45DC002440E02B206043E5
:103100005149401802901A206043504940180490D9
:103110001A2060434A4942180392232060434F49D2
:1031200040181A2301900021049AFBF7A3FE2320E4
:1031300060434A491A31401802230190039A121D34
:103140000021FBF797FE0298C17808A80176029843
:103150000178491EC01C415C08A84176029841785C
:1031600008A88176232060433C491C314018032382
:103170000EAA00210190FBF77DFE601CC4B2022C58
:10318000BCDB2EE01A2E2CDB322E2ADC30480290DB
:1031900030480490304803901A2300212F484630CD
:1031A000049AFBF767FE0223039A121D00212B48A5
:1031B0006030FBF75FFE0298C17808A8017602989C
:1031C0000178491EC01C415C08A8417602984178EC
:1031D00008A8817603230EAA002120486230FBF75D
:1031E00049FE00F0BFFB002410E01A216143144A9D
:1031F0008818FCF743FC1A20604311494018817A73
:1032000007980818C0B20790601CC4B20D48007837
:10321000A042EADC0B4801780798F3F718FC104944
:10322000087008484078002806DD0B48FCF726FCAB
:103230000948807A0A494870F9F7AEFC11B0F0BD30
:103240006A100020F4020020530F00200A10002012
:10325000A90F00203E1000209E100020931D0000AA
:10326000B810002070B58B4800788007C00F002888
:103270000AD0FEF7E1FB87480068022188438549B0
:10328000086000208449086084480078002869D0DC
:103290000123834A19468348FBF7ECFD80480078F8
:1032A000002803D07E480078FF282ED10120FDF7AA
:1032B0005BF9012800D100E00020041E4FD0FFF789
:1032C0001FFB7948F3F7A0FB007801280CD1774861
:1032D0000078082808D176480088022108437449FC
:1032E000088001207349088001206D49087001237E
:1032F0000A4600216B48FBF7BDFD6F48F3F784FBDE
:1033000005782846FEF7B8FD29E00220FDF72CF9E4
:10331000012800D100E00020041E20D0FFF728FB88
:1033200000205F49087001230A4600215D48FBF731
:10333000A1FD6148F3F768FB05782846FEF79CFD80
:1033400001205E49087000205D4908808021092025
:10335000C006F4F7E5FD01215A48F4F7E3FD00202B
:103360004E49087058480088002876D0002489E02B
:10337000564800882041C007C00F00286ED0601C4E
:10338000012802D002287AD14DE051480078002867
:1033900001DD052000E004204E4908704C4800780B
:1033A00000280CDD3B4800682021084339490860AB
:1033B00008460068102188433649086032E0012041
:1033C0004549087033480068202188433149086026
:1033D00008460068102108432E4908603248F3F778
:1033E00013FB007801281DD10021F8F7E3FF3B48CB
:1033F00000788006800F002805DD0120384908701C
:10340000002038490870042237493848F3F75CFA3D
:10341000042237493748F3F757FA01203649087034
:10342000FEF70AFB2BE035480078002801DD052077
:1034300000E00420274908703048007800280EDD9D
:103440002F480068202108432D490860084600687D
:10345000102188432A49086010E016E010E001209E
:1034600028490870264800682021884324490860BC
:1034700008460068102108432149086000BF00BFCA
:10348000601CC4B2042C00DA72E700200E490880E8
:1034900070BD00003C0200206C020020A903002047
:1034A00062020020BE1D0000BA100020320200207F
:1034B0004A0200207E0300206A10002063020020E0
:1034C0006402002000040048800300204C02002019
:1034D00030020020500200205C020020E50E002097
:1034E000AC030020AD030020540300205202002052
:1034F0004C030020560200204F0200203102002021
:10350000400200205D02002070B505460026012D16
:1035100045DB192D43DC31480088002800D100BF6D
:10352000012439E02D4800882041C007C00F002841
:1035300030D02B48F3F768FA0178601E294A105CF6
:103540008007800F81420CD0601E1146085C800706
:10355000800F022805D024480078012801D10126D7
:1035600018E01F48F3F750FA0178601E1D4A105CFE
:103570008007800F81420DD1601E1146085C8007D4
:10358000800F022806D018480078022802D1072CA4
:1035900000D10126601CC4B2092CC3DB1BE01A2D2C
:1035A00019DB322D17DC0D480088002801D10026D8
:1035B00011E00A4800888005C00F00280BD0084899
:1035C000001DF3F721FA00780649097A0907890FE7
:1035D000884200D00126304670BD0000D400002093
:1035E000BA10002058050020DA00002010B50E485F
:1035F0000068012809D1F8F7B3FE00BF0B48007836
:103600000028FBD0002009490870074800680228FC
:1036100009D1F8F7A5FE00BF054800780028FBD0C7
:1036200000200349087010BDB0020020A402002051
:10363000A602002070B5044600252146194801F075
:1036400003F80D21174800F0D9FF1748FBF71DF9C3
:1036500021E01648406800786F2811D1134840686F
:1036600040786B280CD111484068401C0F494860D5
:1036700008464068884201D30D48486001250AE0A9
:103680000A484068401C094948600846406888422A
:1036900001D30748486005484068044909688842E2
:1036A000D7D170BD0044004080841E00E414002087
:1036B000E41000207FB5044600BF00BF3C21204637
:1036C000F3F7C5F9C5B23C212046F3F7C0F93C2118
:1036D0004843201AC6B201210802F6F767FB684684
:1036E00005704670022181700C2D03DA00206946B6
:1036F000C87002E040206946C870312069460873EE
:10370000002002900120C00701906A46C10D0020F0
:10371000F6F716FD01210803F6F7B4FC01210802B3
:10372000F6F744FB7FBDF0B585B004460F46002593
:1037300000262AE0002521E0E8002818205C400748
:10374000800F012818D0E80028180119092202A8C2
:10375000F3F7BAF86A1CD300D2181119EA00AA18B4
:1037600010190922F3F7B0F8691CCA008918081962
:10377000092202A9F3F7A8F8681CC5B20320801B30
:10378000401EA842D8DC701CC6B2032ED2DB002635
:1037900017E0F10071180919481CF3F735F900908A
:1037A000FDF740FBC000382108400190F0003018C0
:1037B000205C884301990843F10071186054701C23
:1037C000C6B2BE42E5DB002637E000252FE0E80068
:1037D00028180019017AC279080210434105490DE1
:1037E000681CC20080180019027AC37910021843BD
:1037F0004005400D814218DDE80028180119092212
:1038000002A8F3F761F86A1CD300D2181119EA0074
:10381000AA1810190922F3F757F8691CCA00891869
:103820000819092202A9F3F74FF8681CC5B2B81BA2
:10383000401EA842CBDC701CC6B2BE42C5DB05B040
:10384000F0BD000070B505460C46002C0BD1414977
:1038500009780A225143404A8918485D0A21F3F742
:10386000F6F8CEB20AE03D4909780A2251433A4AB5
:103870008918485D0A21F3F7EAF8CEB2032E38D052
:1038800004DC012E07D0022E61D11BE0042E47D0AC
:10389000322E5CD100BF002C0AD140210920C00685
:1038A000F4F73EFB20210920C006F4F739FB08E0BD
:1038B00080210920C006F4F733FB01212848F4F7E2
:1038C0002FFB44E0002C0AD140210920C006F4F768
:1038D00027FB20210920C006F4F724FB08E0802103
:1038E0000920C006F4F71EFB01211D48F4F718FB60
:1038F0002DE0002C0AD140210920C006F4F712FB6C
:1039000020210920C006F4F70BFB08E080210920E4
:10391000C006F4F705FB01211148F4F703FB16E09C
:10392000002C0AD140210920C006F4F7FBFA20211F
:103930000920C006F4F7F6FA08E080210920C00645
:10394000F4F7F0FA01210648F4F7ECFA00BF00BFE3
:1039500070BD00001001002018010020110100209E
:1039600000040048F8B5002500200090E5494870A3
:103970000870002407E11A216143E34A8818F3F72D
:1039800043F84078012875D11A216143DE4A89182D
:1039900008461230F3F738F8407800286CD100253B
:1039A00027E01A216143D84A891808461230F3F7F4
:1039B0002BF8067831466420F3F749F8C6B21A218D
:1039C0006143D14A891808461230F3F71DF81330C5
:1039D00046551A216143CC4A891808461230F3F73C
:1039E00013F81330415D00980818C0B20090681CAD
:1039F000C5B21A216143C44A891808461230F3F748
:103A000003F80078A842CCDC64210098081AC0B200
:103A10000090009800282CDD1A216143BA4A8918C9
:103A200008461230F2F7F0FF064613361A216143BA
:103A3000B54A891808461230F2F7E6FF0078401EB2
:103A4000315C00980818C7B21A216143AE4A891840
:103A500008461230F2F7D8FF064613361A216143A2
:103A6000A94A891808461230F2F7CEFF0078401EA6
:103A7000375481E085E0FFE71A216143A24A8918A3
:103A800008461230F2F7C0FF4078012874D11A219D
:103A900061439D4A891808461230F2F7B5FF0021AC
:103AA000C174012528E01A216143974A8918084604
:103AB0001230F2F7A9FF0078461E31466420F2F773
:103AC000C6FFC6B21A2161438F4A891808461230D0
:103AD000F2F79AFF133046551A2161438A4A891832
:103AE00008461230F2F790FF1330415D0098081835
:103AF000C0B20090681CC5B21A216143824A89187D
:103B000008461230F2F780FF0078A842CBDC64212F
:103B10000098081AC0B20090009800282CDD1A21E5
:103B20006143794A891808461230F2F76DFF06465C
:103B300013361A216143744A891808461230F2F785
:103B400063FF0078401E315C00980818C7B21A2144
:103B500061436D4A891808461230F2F755FF064650
:103B600013361A216143684A891808461230F2F761
:103B70004BFF0078401E375462480078401C614972
:103B80000870601CC4B2022C00DAF4E60020009039
:103B90005E48F2F739FF407801287DD15B4812304A
:103BA000F2F732FF407800284AD100251BE0574841
:103BB0001230F2F729FF067831466420F2F747FF0A
:103BC000C6B252481230F2F71FFF133046554F4825
:103BD0001230F2F719FF1330415D00980818C0B297
:103BE0000090681CC5B249481230F2F70DFF00780A
:103BF000A842DCDC64210098081AC0B2009000984A
:103C0000002877DD41481230F2F7FEFE06461336F3
:103C10003E481230F2F7F8FE0078401E315C009802
:103C20000818C6B239481230F2F7EEFE07461337CD
:103C300036481230F2F7E8FE0078401E3E5459E054
:103C400032481230F2F7E0FE4078012852D12F4876
:103C50001230F2F7D9FE0021C17401251EE02B4875
:103C60001230F2F7D1FE0078461E31466420F2F79A
:103C7000EEFEC6B225481230F2F7C6FE13304655A6
:103C800022481230F2F7C0FE1330415D0098081848
:103C9000C0B20090681C00E032E0C5B21B48123090
:103CA000F2F7B2FE0078A842D9DC64210098081A25
:103CB000C0B20090009800281CDD14481230F2F7C2
:103CC000A3FE0646133611481230F2F79DFE007827
:103CD000401E315C00980818C6B20C481230F2F74A
:103CE00093FE0746133709481230F2F78DFE00782D
:103CF000401E3E54012003494870044800798870F2
:103D0000F8BD0000F40200206A1000209E10002080
:103D100070B504460D461646204600F007F83246B8
:103D200029462046F7F722FB70BD000038B504464F
:103D30002348844209D10121C014F5F76BFE0E21FE
:103D4000684601700121417032E01E48844209D169
:103D500001210220F5F73EFE102168460170002186
:103D6000417025E01848844209D101218015F5F7FA
:103D700031FE1321684601700121417018E013489B
:103D8000844209D101214804F5F744FE1521684613
:103D90000170012141700BE00D48844208D10121DE
:103DA0008804F5F737FE162168460170022141703C
:103DB0000120694688706846F5F742FD38BD00006D
:103DC000002C01400004004000200040004401405D
:103DD0000048014070B504460025012C05DB192C74
:103DE00003DC012000F00AF806E0192C04DD322C77
:103DF00002DA022000F002F870BD000010B504469F
:103E0000012C3FD13848F2F7FFFD007801281FD17F
:103E100081023648F4F784F80020354908703549A6
:103E200008803148F2F7F0FD00210170002032498E
:103E3000086032490860324800788006800F002808
:103E40004BDD01202F49087000202F49087044E005
:103E5000012189022548F4F765F8012024490870FA
:103E60002A48407A234908801F48F2F7CDFD0121F6
:103E7000017001202649887000201F4908601F49F1
:103E800008602AE01848001DF2F7BEFD00780128FE
:103E90000FD104211548F4F743F800201D4908709C
:103EA0001D4908801048001DF2F7AEFD0021017089
:103EB00013E004210D48F4F735F801201549087086
:103EC0001248807A144908800748001DF2F79CFDCB
:103ED0000121017001200E494871104840780028E6
:103EE00001D1F8F73FFD10BDBA10002000040048D2
:103EF00009010020D6000020940300209803002030
:103F0000E50E0020AC030020AD0300204405002096
:103F1000030F00200A010020D8000020EE0000203E
:103F2000F0B585B00020049003900026F748008883
:103F300000287DD0F648F2F767FD00780290F4483B
:103F4000001DF2F761FD007801900024B6E1F14810
:103F500000882041C007C00F00286AD0052C69D016
:103F600004DC012C07D0032C7ED105E0082C04D002
:103F70000B2CF9D102E000BF00BF00BFE64800787B
:103F80008006C00F002870D0E448F2F73DFD0778A6
:103F90003846F8F745FF002826D10B2C03D0082C13
:103FA00001D0032C2BD1DD48F2F72EFD07783846DF
:103FB000FFF710FF0422DA49DA48F2F785FC042201
:103FC000D949DA48F2F780FC0120D9490870D9496B
:103FD0004872D948006802210843D7490860082C74
:103FE00003D11020D54908705BE0032C03D10220D7
:103FF000D249087055E02020D049087051E0C448EB
:10400000F2F702FD0078002801D1012000E0002035
:104010000090C248F2F7F8FC077838460099F8F7A4
:104020008FFEC0B2061E21D10120FFF7D3FE02E0B1
:1040300069E141E136E00422B949BA48F2F744FCAB
:104040000422B949B948F2F73FFC0120B849087089
:10405000B8494872B848006802210843B649086068
:104060000220B64908701CE025E112E0F11D012094
:104070008840B34909680843B1490860F11D01202F
:104080008840A54909680843A3490860FDF7D4FCA6
:1040900007E0A1480068402108439F490860FDF7F8
:1040A000CBFC08E1A74800788006800F00287DDD62
:1040B000A5480078002803D0A3480078022875D1CD
:1040C000A048C1798279080210434005400D9F49FC
:1040D000098888426BDC9B48417A027A08021043C7
:1040E0004005400D99490988884260DB9548407831
:1040F000C007C00F002876D18548F2F785FC00780C
:10410000002854D1844800788006C00F002863D06E
:104110008248F2F779FC077801213846F8F710FE5B
:10412000C0B2061E47D1874800788006800F02285B
:1041300020D18548007800280BD178481230F2F75A
:1041400063FC8078012819DC01210846F8F732F970
:1041500014E07D480078022810D16D48801E007858
:10416000642803DA01210846F8F724F9002076498B
:10417000087003E001210846F8F71CF90422684999
:104180006848F2F7A1FB042267496848F2F79CFBF4
:1041900001206749087068480068022108436649A1
:1041A0000860082065490870012001E03AE011E04C
:1041B000604948727EE0634800788006800F0128DD
:1041C00078D15548006801214904084352490860E4
:1041D000FDF732FC6EE006E04F48006840210843DE
:1041E0004D49086066E04A48F2F70EFC0078012865
:1041F00060D10021F8F7DEF8042249494948F2F776
:1042000063FB042248494948F2F75EFB0120484914
:10421000087000204C4908704D4908700820474933
:10422000087047E03A48F2F7EFFB007801283DD1EB
:1042300045480078002839D1374800788006C00FFB
:1042400000282DD03548F2F7DFFB077800213846EB
:10425000F8F776FDC0B2061E28D100210120F8F73C
:10426000A9F804222E492F48F2F72EFB04222E49EA
:104270002E48F2F729FB01202D4908700020324911
:104280000870334908702C480068022108432A4905
:10429000086008202949087001202649487205E075
:1042A0001D480068402108431B49086029492548EA
:1042B000F8F794FE00BF00BF601CC4B2102C00DAF7
:1042C00045E61348F2F7A0FB01780298814215D029
:1042D000FAF788FA2048F2F76FF885B22A461E49A5
:1042E0001E4800F0A2F929461B4800F02BFA0027CF
:1042F00000E07F1C1A488742FBD300BF002005491D
:1043000008800249088005B0F0BD00007E0300204F
:10431000BA1000204A0200203C0200206A1000204F
:1043200054030020520200204C03002056020020BB
:104330004F020020030F0020440200203202002020
:1043400038020020E50E0020AC03002048020020C7
:10435000AD030020AF0E0020CC050020004400403B
:1043600020A10700FEB500270020019002900090D8
:1043700000254E48008800287ED0FDF7BDFC0028AF
:1043800006D001204A49087000204A49087089E097
:10439000474800780128FAD14648007800287CD1A7
:1043A0000025002410E01A216143434A8818FBF7D6
:1043B00065FBA10001AA50501A2060433E494018F5
:1043C000807A4519601CC4B23C480078A042EADCFF
:1043D0003A4801782846F2F730FB394908703748E7
:1043E0004078002807DD3748FBF748FB0090354848
:1043F000807A33494870F8F7CFFBF8F787FA2E48F0
:10440000F2F702FB06783046FFF77EF8002809D065
:104410002D4800880121C90208432B49088001204A
:104420002A49088025488078012812D12548F2F7CA
:10443000EBFA06783046FFF767F8002809D02248E3
:1044400000880121090308431F49088001201F49F2
:10445000088019481230F2F7D7FA8078012814DC66
:1044600015482C30F2F7D0FA807800280DD1184882
:1044700000788006800F01E017E00EE0002804DDE0
:1044800000201449087014490870FDF749FE002007
:10449000074908700749087004E0064800780F30A3
:1044A00004490870002001490880FEBD7C030020FB
:1044B00067020020680200206A100020F402002039
:1044C000B81000209E1000204A0200207E03002029
:1044D000E50E0020AC030020AD03002030B589B00C
:1044E00004460D464048844224D101214804F5F792
:1044F00061FA01218803F5F78DFA0320400201904B
:10450000032168464172022101720021817201215A
:10451000C17201220921C806F3F7D6FC01220A2143
:104520000920C006F3F7D0FC01A90920C006F3F763
:1045300083FC26E02D48844223D101214804F5F76D
:1045400039FA01214804F5F745FA0C2001900321BE
:104550006846417202210172002181720121C172FB
:10456000012203210920C006F3F7AEFC012202213B
:104570000920C006F3F7A8FC01A90920C006F3F73B
:104580005BFC0395002004900590069008900C2099
:10459000079003A92046F7F743F91348844208D14E
:1045A0001B21684601700021417001218170F5F7DF
:1045B00047F90E48844208D11C2168460170002149
:1045C000417001218170F5F73BF901212046F7F791
:1045D000C8F8012206492046F7F700F905480649C0
:1045E0000860486009B030BD003801400044004018
:1045F00005010500E4100020E414002070B5044615
:104600000D4629462046F7F78EF900BF4021204687
:10461000F7F7B3F80028F9D040212046F7F796F8CD
:1046200080212046F7F792F870BD70B506460C461B
:10463000154604E02178641C3046FFF7DFFF28466A
:104640006D1E0028F6D170BD70B505460C4604E01D
:104650002178641C2846FFF7D1FF20780028F7D185
:1046600070BD0000FEB50446022120460930F7F770
:1046700085FFC1B26846C170022120460C30F7F7B1
:104680007DFFC1B268460171022120460F30F7F765
:1046900075FF7D210901401885B2022120461230A4
:1046A000F7F76CFFC1B268468170022120461530D1
:1046B000F7F764FFC1B26846417002212046183006
:1046C000F7F75CFFC1B268460170294600F068F94F
:1046D000164800783C214843144949784018144949
:1046E0000880144BDA7859789878FBF715FB124953
:1046F00008803C210E480088F2F7A9F9401C3C21B3
:1047000048430646B0B2FEF7D5FF1E2322461C32B0
:1047100000210A48FAF7AEFB0948F2F775F9077865
:104720003846FDF7A9FB3020FEBD000054030020F1
:10473000480200204C030020CC020020241D000071
:104740006A10002010B5F7F7DFFD10BD70B51449F1
:104750000022CA610B78012B20D14E69002E0CD0AB
:104760000B468C691D69402C10D9403E40354023D2
:104770004E61403C0D618C610CE08B68012B01D0D7
:104780000A700BE08A6000231A4604E0A3B22C19D9
:104790000C614A61034A8121F3F7C8F9002070BD1A
:1047A00054040020881B002010B5044628204143F3
:1047B00008198030006D81B20548026905489047AC
:1047C0004023044A03212046F3F735F9002010BDA9
:1047D000B40400204817002010B504468121F3F7E7
:1047E00047F803212046F3F743F882212046F3F7E8
:1047F0003FF8024840688047002010BDB404002004
:1048000010B5074C206AFF2807D00649626A8B68FA
:1048100021462C319847FF202062002010BD000067
:1048200054040020B404002010B50446C023002224
:104830008121F3F7D9F9FF23013300228221204699
:10484000F3F7D2F9FF231133002203212046F3F7B7
:10485000CBF90223402281212046F3F76CF8022392
:10486000402203212046F3F766F803230822822121
:104870002046F3F760F80548016888474023044A5A
:1048800003212046F3F7D7F8002010BDB404002020
:104890004817002010B506498A6A521C8A62062A07
:1048A00003D100228A62F3F79DFB002010BD0000B7
:1048B0005404002070B50C46267805466020334627
:1048C00003403A2227492848002B24D0202B05D02A
:1048D00021462846F7F745F8022070BD2349E288B3
:1048E0008B68002A12D0310607D51F4960782C3119
:1048F00098471D49E2882C311FE0617842620162CD
:10490000194928462C31F7F731F826E00022607863
:104910001146984721E06378062B04D00A2B10D06B
:104920000B2B1AD111E06088000A212805D10D490E
:10493000E28809313A2A00D93A222846F7F730F8B6
:104940000BE009490122091DF7E761880A06120EEA
:1049500005D021462846F7F704F8002070BDC9B2FB
:104960004160FAE7114F010854040020B40400200C
:1049700010B5054B054A06490648F7F731F90749CE
:1049800005480860486010BD3005002088040020FC
:10499000E8040020E0150020E4100020E4140020CA
:1049A00070B504460D4620782649887060784870B6
:1049B000A07808700020F5F797FCE078224908708D
:1049C00020792249087022480580F8F75DF81F48D1
:1049D0000078204948701C48007888701C4800788E
:1049E0007D210901401A1B49C8701B48007803004B
:1049F000F7F7A8FC082105090D1115191D2107203D
:104A00001449087018E001201249087014E00220CF
:104A10001049087010E003200E4908700CE00420D3
:104A20000C49087008E005200A49087004E00620D7
:104A30000849087000E000BF00BF06490020F5F7F4
:104A4000EBFB70BD540300205803002059030020E5
:104A50005E0300204C0300205A030020FEB5002412
:104A6000554D564E564F012030707070062255A19C
:104A7000B01CF1F729FF314616316420F1F7D5FF5C
:104A80000120387101216846017104214171002122
:104A900081711A2332464D48FAF7ECF902233A1D88
:104AA00000214A481A30FAF7E5F9032301AA002148
:104AB00046481C30FAF7DEF901244CE02B21614313
:104AC0003D4A88182B21F1F765FF1A2161433B4AC3
:104AD00088181A21F1F75EFF1A216143384A8818B5
:104AE0001A21F1F757FF2B206043334945181A204C
:104AF0006043324946181A20604331494718002064
:104B0000707023216143314A88181A2332460021EC
:104B1000FAF7B0F9232161432C4A1A32881802238C
:104B20003A1D0021FAF7A6F9E9786846017128785C
:104B3000401EE91C095C6846417169788171232136
:104B40006143224A1C328818032301AA0021FAF784
:104B500091F9601CC4B2022CB0DB1D4D1D4E1E4FDE
:104B6000002070701A233246002118484630FAF7A8
:104B700081F902233A1D002114486030FAF77AF9CE
:104B8000E978684601712878401EE91C095C68468E
:104B9000417169788171032301AA00210B486230B9
:104BA000FAF768F90121009101236A460021AB2040
:104BB000FAF760F9FEBD0000530F00200A10002034
:104BC0006A1000204F48540000000000931D0000B0
:104BD000A90F00203E1000209E10002010B5BCB090
:104BE000202264A101A8F1F7BFFA0021009108A8D2
:104BF000017200242EE0302108A8017221463922DA
:104C00005143C83188B201230AAA0021FAF732F9C8
:104C1000002108A80172214639225143D93188B2B6
:104C200001230AAA0021FAF725F921463922514326
:104C3000E33188B201230AAA0021FAF71BF92146C1
:104C400039225143C83188B201230AAA1946FAF71A
:104C500011F9641C032CCED300240AE0214639222A
:104C60005143C83188B213460AAA0021FAF702F963
:104C7000641C032CF2D3FFF7F1FE002403E00020B4
:104C800044490855641C072CF9D3072403E001208C
:104C900040490855641C092CF9D301203D4908708E
:104CA000C8710A2048720F2088721920C8721E200D
:104CB0000873642048734621364881731E203549A5
:104CC000C8733C21334801744B21417432218174F3
:104CD0001423024600213048FAF7CCF8002108A836
:104CE000017201202D4908701E212C48817100217C
:104CF000C1711E202A4908700123284A0021822000
:104D0000FAF7B8F80123254A921D00218320FAF70B
:104D1000B1F80123224A00218420FAF7ABF80121DF
:104D20002048817401230246123200215C20FAF7E8
:104D3000A1F81DA10AA8F1F745FD0C230AAA00213C
:104D40001F48FAF797F800210991012309AAAB201F
:104D5000FAF790F81E2301AA002119481730FAF734
:104D600089F801236A4600211548B130FAF782F824
:104D70003CB010BD202020202020202020202020FA
:104D80002020202020202020202020202020202023
:104D90002020000044050020AE020000EE000020AC
:104DA000050300202D0F00203161646D696E202005
:104DB000202020313233343536202020202020009E
:104DC0000D1D000010B500290AD00878002807D072
:104DD00005487844F2F79CF8002801D0002010BD67
:104DE0000248784410BD0000EA030000E20300001E
:104DF00070B5420064414B005C41120E39D01B0E6D
:104E000038D0FF2A3CD0FF2B3AD040024902400A5A
:104E1000490A060045184E43000A090AD2184843B9
:104E2000ED017F3A0104731A4019190C4318990FC8
:104E300004D001215B0849075B1A521CD80904D32E
:104E4000401CF50301D19D0607D0FF2A08D2D505E5
:104E500006D0E4072043401970BD0125A843F4E7BC
:104E6000002A01DCE00770BD2402FF202043C005BA
:104E700070BD1B0EFF2A03D0FF2B01D0E00770BDD1
:104E8000FF2645003606B54206D84D00B54203D888
:104E9000D218FF2A00D0E7E7004870BD0000C07FAD
:104EA0001F0000001D0000001F0000001E00000089
:104EB0001F0000001E0000001F0000001F00000077
:104EC0001E0000001F0000001E0000001F00000068
:104ED000000000001F0000001C0000001F00000078
:104EE0001E0000001F0000001E0000001F00000048
:104EF0001F0000001E0000001F0000001E00000038
:104F00001F0000000000000009024300020100C071
:104F1000320904000001020201000524001001050D
:104F20002401000104240202052406000107058271
:104F3000030800FF09040100020A0000000705033E
:104F4000024000000705810240000004030904122A
:104F500001000200000040830440570002010203E8
:104F6000018182838485868788898B8C8D8E8F9141
:104F70009293959697999A9C9D9FA0A2A3A5A7A866
:104F8000AAACAEB0B2B3B5B7B9BCBEC0C2C5C7C992
:104F9000CCCED1D4D7D9DCDFE2E6E9ECF0F3F7FAF6
:104FA000FE0000007B22736964223A2239303030DF
:104FB000222C22736164223A2278222C22636D64AF
:104FC000223A2220202020222C22746F74616C222D
:104FD0003A0000007B22736964223A223930303073
:104FE000222C22736164223A227878222C22636D6B
:104FF00064223A2220202020222C22646174612223
:105000003A2220227D0000007B22736964223A222A
:1050100039303030222C22736164223A2278222CDB
:1050200022657272223A223130227D0061742B6D2A
:1050300061736B3D3235352C3235352C3235352C9C
:105040003000000061742B53523D302C3130303031
:105050000000000061742B53523D312C3130303050
:105060000000000061742B53523D322C313030303F
:105070000000000061742B53523D332C313030302E
:105080000000000061742B534F3D312C3139322C1C
:105090003136382C302C39392C383038302C3830E7
:1050A0003830000061742B554C506F72743D3830AD
:1050B0003830000061742B5552506F72743D383097
:1050C0003830000061742B53433D300061742B571E
:1050D000413D310061742B53433D310061742B52CB
:1050E000623D310061742B55547970653D3100008B
:1050F00061742B53433D320061742B53433D3300A5
:1051000041717561736D6172742D4534000000004A
:1051100061742B41737369646C3D360061742B417B
:1051200070773D31323334353637380061742B4176
:1051300070776C3D38000000313233343536373803
:105140003900000061742B4169703D3139322C31D6
:1051500036382C302C39390061742B67773D313962
:10516000322C3136382C302C3939000061742B55F3
:1051700049703D3139322E3136382E302E393900D2
:1051800061742B41616D3D390000000061742B4159
:10519000737369643D45342D41707000CC52010831
:1051A0000000002044050000A46F000870540108AE
:1051B00044050020FC3700000461000810010000D5
:1051C00043000000F8FFFFFF0040404040404040E7
:1051D00040404141414141404040404040404040CA
:1051E000404040404040404040050202020202026E
:1051F00002020202020202020220202020202020BD
:1052000020202002020202020202909090909090D0
:10521000101010101010101010101010101010108E
:105220001010101002020202020288888888888802
:1052300008080808080808080808080808080808EE
:1052400008080808020202024000000000000000F6
:10525000000000000000000000000000000000004E
:10526000000000000000000000000000000000003E
:10527000000000000000000000000000000000002E
:10528000000000000000000000000000000000001E
:10529000000000000000000000000000000000000E
:1052A00000000000000000000000000000000000FE
:1052B00000000000000000000000000000000000EE
:1052C00000000000000000000000000001C1846C2C
:1052D000DC0200092D0102030406070809F0090594
:1052E0003C020A0214053C4C08161502114E04201B
:1052F0001F201F141A18102904116E04221F1629CA
:1053000014490229145A22281A17102904115D047D
:10531000211F18281A1712290229144A21284D047E
:105320000C330C1E1B04200149281D0E330C3304C2
:105330002A290A3B0E15221A040A59281A22014961
:10534000281A0D26190419283D0D330D15221A04AB
:105350000A59281A2101695A131F1F16E803F4017C
:10536000FA129674DC05156908E90C4113CC05495D
:105370008DB11ED44F0108A40401A80B360850AC0F
:10538000E010A44F29E0040161717561736D6172D1
:10539000742D0102030404E50607080902600202F5
:1053A000250113E0151B20CCFC1E8C5101081004B4
:1053B0001A80041A1C041A2C042A4408191C1A58AE
:1053C000081AE4081A6C081AA4081AB4041AC404C7
:1053D0001AD4041AF0041AF804DA84041ADC041A41
:1053E00044041A54041A64041A74041119401A3833
:1053F0000401300213FF180A29480108D94701089F
:10540000B50839EE19081A4D101AA9041A950C138B
:1054100065C0120833C20112081341C31B083D04C2
:105420001361C21B0809081AC508137DBA1408D1F4
:10543000B9140835BD1408A5BC1B0849041377BF6F
:105440001B088F0813C8041B20B50C1AED041AF9A9
:10545000041A214C1A59041A910C1AC904032A1A65
:10546000031AC7301AC1041AB1041AC5041AC304B6
:04000005080060C1CE
:00000001FF
